:020000040800F2
:10000000E0A0002045010008FB120008FB110008D9
:10001000F9120008DD010008F920000800000000C6
:10002000000000000000000000000000651E000845
:10003000F901000800000000AD1D0008671E00085F
:100040005F0100085F0100085F0100085F01000810
:100050005F0100085F0100085F0100085F01000800
:100060005F0100085F0100085F0100085F010008F0
:100070005F0100085F0100085F0100085F010008E0
:100080005F0100085F0100085F0100085F010008D0
:100090005F0100085F0100085F0100085F010008C0
:1000A0005F0100085F0100085F0100085F010008B0
:1000B0005F0100085F0100085F0100085F010008A0
:1000C0005F0100085F0100085F0100085F01000890
:1000D0005F0100085F0100085F0100085F01000880
:1000E0005F0100085F0100085F0100085F01000870
:1000F0005F0100085F0100085F0100085F01000860
:100100005F0100085F0100085F0100085F0100084F
:100110005F0100085F0100085F0100085F0100083F
:100120005F0100085F0100085F0100085F0100082F
:10013000DFF80CD000F040F8004800475D230008CD
:10014000E0A000200648804706480047FEE7FEE79B
:10015000FEE7FEE7FEE7FEE7FEE7FEE7FEE7FEE777
:10016000DD1E000831010008D2B201E000F8012BC9
:10017000491EFBD270470022F6E710B513460A4627
:1001800004461946FFF7F0FF204610BD30B50B4678
:10019000014600202022012409E021FA02F59D42B7
:1001A00005D303FA02F5491B04FA02F52844151E8B
:1001B000A2F10102F1DC30BD064C074D06E0E0681B
:1001C00040F0010394E8070098471034AC42F6D39E
:1001D000FFF7B2FF80530008A0530008FEE70000BD
:1001E00001B54FF47A7301226946024800F072FEAD
:1001F00008BD00004800002070472DE9F04113259C
:100200009826102000F0EAF800270024FF2000F0D4
:10021000FFF8641CA4B2AC42F8D37F1CBFB2B74253
:10022000F3D3132000F0DAF800270024FF2000F0B9
:10023000EFF8641CA4B2AC42F8D37F1CBFB2B74243
:10024000F3D3122000F0CAF8BDE8F04100F062B923
:100250002DE9F04781468A4613264FF09808102072
:1002600000F0BCF80024002504FB06F709EB0500AC
:10027000385C00F0CDF86D1CADB2B542F6D3641C0D
:10028000A4B24445EFD3132000F0A8F800240025C1
:1002900004FB06F70AEB0500385C00F0B9F86D1CAA
:1002A000ADB2B542F6D3641CA4B24445EFD31220DC
:1002B00000F094F8BDE8F04700F02CB970B5454C5B
:1002C00001220221204600F062FAC82000F054F911
:1002D00000220221204600F05AFAC82000F04CF912
:1002E00001220221204600F052FAC82000F044F911
:1002F000012000F073F8072000F08AF8002000F0D9
:1003000087F8082000F084F8002000F081F806202B
:1003100000F064F8072000F07BF8072000F078F880
:10032000072000F075F8042000F058F800F0F2F80B
:10033000002000F053F80F2000F06AF80D2000F0C4
:1003400067F8502000F04AF8F72000F061F83020FC
:1003500000F044F8392000F05BF8612000F03EF82E
:10036000982000F055F8002000F052F8982000F096
:100370004FF8822000F032F80E2000F049F800F02B
:1003800061F8252000F02AF8134D0024285D00F0C4
:100390003FF8641CA4B20F2CF8D3262000F01EF8FE
:1003A0000D4D00240F35285D00F032F8641CA4B216
:1003B0000F2CF8D3272000F011F8074D00241E352C
:1003C000285D00F025F8641CA4B20F2CF8D300209F
:1003D00070BD0000000801407327000870B50B4C89
:1003E000054600220421204600F0D1F90022102108
:1003F000204600F0CCF92846FFF7F2FE2046BDE883
:1004000070400122102100F0C2B900000008014034
:1004100070B50B4C054601220421204600F0B7F9C7
:1004200000221021204600F0B2F92846FFF7D8FE3E
:100430002046BDE870400122102100F0A8B900005C
:100440000008014070B52020FFF7C8FF1E4D0024B2
:10045000285DFFF7DDFF641CA4B20F2CF8D3212028
:10046000FFF7BCFF184D00240F35285DFFF7D0FFC4
:10047000641CA4B20F2CF8D32220FFF7AFFF124D5B
:1004800000241E35285DFFF7C3FF641CA4B20F2CA7
:10049000F8D32320FFF7A2FF0B4D00242D35285D54
:1004A000FFF7B6FF641CA4B20F2CF8D32420FFF78B
:1004B00095FF054D00243C35285DFFF7A9FF641C1E
:1004C000A4B20F2CF8D370BD2827000810B5502017
:1004D000FFF784FF1720FFF79BFF8220FFF77EFFC7
:1004E0000020FFF795FF0120FFF778FF0220FFF7BC
:1004F0008FFF0020FFF78CFF0020FFF789FF00200F
:10050000FFF786FF00F006F8BDE810400220FFF775
:1005100065BF000010B509A001F0F0FD0D4C02E030
:10052000C82000F029F80821204600F02BF9002807
:10053000F6D0BDE8104008A001F0E0BD446562754A
:10054000673A20652D506170657220627573790D70
:100550000A0000000008014044656275673A2065A2
:100560002D506170657220627573792072656C65BB
:100570006173650D0A00000070B5044600F00CF9C7
:100580000546601C02D004480078044400F004F9D9
:10059000401BA042FAD370BD140000202DE9F84F93
:1005A000DFF8B8A100220AF1040B144601274FF02E
:1005B0000F090BF1040E00BF0B6807FA04F52B407E
:1005C000AB4274D1DFF898C14E68A6EB0C086645C3
:1005D0002BD00DDC032E34D005DC36B3012E19D020
:1005E000022E2FD11BE0112E16D0122E2AD119E087
:1005F000B8F5881F19D006DCB8F5803F15D0B8F5DE
:10060000801F1FD111E0B8F5001F0ED0B8F5041FF0
:1006100018D10AE0CA6815E0CA68121D12E0CA685B
:1006200008320FE0CA680C320CE08A682AB1012A4D
:100630004FF0080203D0456104E0042202E00561A6
:1006400000E00022FF2B01D8064601E000F104067D
:100650004FEA840501D9A5F12005D6F800C009FAB2
:1006600005F82CEA080C02FA05F54CEA050CC6F868
:1006700000C04D68ED006AD53A4DAE6946F00106FE
:10068000AE61AD6924F0030605F001050095364D15
:1006900006EB050CDCF80850A6074FEA167809FAB5
:1006A00008F6B543314EB04202D100261AE04EE0C2
:1006B0002F4EB04201D1012614E02E4EB04201D19E
:1006C00002260FE02C4EB04201D103260AE02B4E49
:1006D000B04201D1042605E0294EB04201D10526E1
:1006E00000E0062606FA08F62E43CCF808604D68AE
:1006F000DAF80060ED03554601D51E4300E09E4345
:100700002E604D68AD0305D5DBF800601E43CBF8C5
:10071000006004E0DBF800509D43CBF800504D68CA
:10072000DEF80060ED02754601D51E4300E09E43F1
:100730002E604D68AD0205D5084D0C352E681E4360
:100740002E6004E0054E0C3635689D433560641C10
:10075000102CFFF431AFBDE8F88F00000004014019
:10076000000011100010024000000140000801408C
:10077000000C01400010014000140140001801402D
:10078000001C01408068084000D0012070470AB179
:10079000016170470904FBE7014880687047000069
:1007A000140000200248816802781144816070477B
:1007B00014000020074810B5016841F010010160E5
:1007C000032000F089F8002000F006F800F024F87B
:1007D000002010BD0020024070B50D4D04464FF4BE
:1007E0007A712878B1FBF0F00A490968B1FBF0F0A2
:1007F00000F031FC48B9102C07D200222146501ECF
:1008000000F04AF800206C6070BD012070BD00004F
:1008100014000020200000201D4808B5816941F027
:1008200001018161806900F001000090032000F067
:1008300053F8002211466FF00B0000F02DF8002253
:1008400011466FF00A0000F027F8002211466FF001
:10085000090000F021F800221146501F00F01CF89A
:1008600000221146101F00F017F800221146901EBA
:1008700000F012F800221146501E00F00DF8054855
:10088000416821F0E06141F00071416008BD000065
:100890000010024000000140F0B40E4B1B680C46F3
:1008A000C3F30223C3F10705042D00D90425191D44
:1008B000072901D2002300E0DB1E012606FA05F11C
:1008C000491E214099409E40761E16403143F0BC9F
:1008D00000F014BD0CED00E0064900F007020868C6
:1008E0004FF6FF03184040EA0220034A1043086015
:1008F000704700000CED00E00000FA052DE9F0471C
:10090000DFF83C8105460E46D8F8000000F00700ED
:10091000B0420CD2D8F8001021F007013143C8F8DA
:100920000010D8F8000000F00700B04263D128782A
:10093000444C800705D56068A96820F0F0000843A2
:1009400060602878C00745D06868012816D0216803
:10095000022816D0890700294DDA616821F00301C9
:1009600001436160FFF718FF6968074641F288306C
:1009700001290FD00229814619D027E02168890377
:10098000E9E78901E7E700BFFFF706FFC11B49451B
:1009900001D918E081466068C0F381000128F3D1D5
:1009A00018E000BFFFF7F8FEC11B49450BD860688F
:1009B000C0F381000228F5D10CE000BFFFF7ECFE88
:1009C000C11B494502D90320BDE8F087606810F0DB
:1009D0000C0FF3D1D8F80010404601F00701B142E6
:1009E0000BD9016821F0070131430160006800F074
:1009F0000700B04201D00120E6E72878400705D57E
:100A00006068E96820F4E0600843606028780007C7
:100A100006D56068296920F4605040EAC100606032
:100A200000F03CF86168084AC1F30311515CC8400A
:100A3000064908600020FFF7CFFE0020C4E7000051
:100A40000020024000100240DE520008200000207A
:100A50000148006870470000200000200448054954
:100A600000684968044AC1F30221515CC8407047DC
:100A70002000002000100240EE5200080448054902
:100A800000684968044AC1F3C221515CC8407047FC
:100A90002000002000100240EE52000812A185B094
:100AA0000FC98DE80F0014A0144A00680490516823
:100AB000134801F00C03042B10D0082B0ED1C1F306
:100AC0008343C9031DF803000AD5516804AAC1F382
:100AD0004041515C0A4A5043B0FBF1F005B0704709
:100AE00008494843FAE7000002030405060708091D
:100AF0000A0B0C0D0E0F1010010200000010024036
:100B000000127A0000093D002DE9F84F04460078F4
:100B1000B94DC00748D06868C0F38100012807D0EC
:100B20006868C0F38100022809D16868C00306D54F
:100B30002868800338D5606800286FD034E060688A
:100B4000B0F5803F0BD010B1B0F5A02F11D02868C0
:100B500020F480302860286820F4802002E0286893
:100B600040F480302860606888B1FFF715FE0646C3
:100B700009E0286840F480202860F0E7FFF70CFEC9
:100B8000801B642875D828688003F7D50CE0FFF730
:100B900003FE064605E000BFFFF7FEFD801B64284C
:100BA000F0D828688003F7D42078944E80074FF05F
:100BB00001094FF000083BD5686810F00C0F07D012
:100BC0006868C0F38100022809D16868C00306D4B0
:100BD0002868800714D5206901281FD110E02069FA
:100BE000B0B1C6F80090FFF7D7FD074605E000BF9B
:100BF000FFF7D2FDC01B0228C4D828688007F7D5AC
:100C00002868616920F0F80040EAC10028600FE020
:100C1000C6F80080FFF7C0FD074606E0E9E000BF28
:100C2000FFF7BAFDC01B022823D828688007F7D435
:100C3000207800072CD57248A169D9B1C0F800907E
:100C4000FFF7AAFD074604E0FFF7A6FDC01B022838
:100C50000FD8686A8007F7D56A484FF4FA510068E0
:100C6000B0FBF1F0009000BF0098411E0091FAD255
:100C70000EE080E0C0F80080FFF78EFD074604E03C
:100C8000FFF78AFDC01B022875D8686A8007F7D471
:100C90002078400760D5E8690027C00008D4E869DB
:100CA00040F08050E861E869012700F08050009032
:100CB00055480168C90513D40168834641F4807121
:100CC0000160FFF769FD824606E000BFFFF764FDA3
:100CD000A0EB0A0064284ED8DBF80000C005F5D56B
:100CE000E06801280AD008B1052813D0286A20F04E
:100CF00001002862286A20F0040002E0286A40F01F
:100D000001002862E06841F2883B98B1FFF744FD9A
:100D100082460BE0286A40F004002862EEE700BF3C
:100D2000FFF73AFDA0EB0A0159455AD8286A800717
:100D3000F6D50CE0FFF730FD824605E0FFF72CFD0D
:100D4000A0EB0A0159454CD8286A8007F6D41FB198
:100D5000E86920F08050E861E06988B36968C1F310
:100D60008101022945D00228C6F8608004D0FFF72F
:100D700013FD044638E034E0FFF70EFD074604E0BB
:100D8000FFF70AFDC01B02282BD828688001F7D482
:100D9000206AB0F5803F05D16868A16820F4003072
:100DA00008436860D4E908010843696821F47411B4
:100DB00008436860C6F86090FFF7EEFC044606E062
:100DC00015E000BFFFF7E8FC001B022809D82868DF
:100DD0008001F7D50BE000BFFFF7DEFC001B022807
:100DE00002D90320BDE8F88F28688001F4D40020E0
:100DF000F8E70120F6E70000001002400000424240
:100E000080044242200000200070004070B50400C1
:100E100005D00025A56294F8510010B104E001202E
:100E200070BD204600F034F8022084F8510020689C
:100E3000016821F040010160D4E901010843D4E9CF
:100E400003121143084361690843218B01F40071C7
:100E50000843E1690843216A0843A16A08432168FD
:100E60000860A069042101EA1040616A0843216812
:100E700048602168E06A08612068C16921F4006166
:100E8000C1616565012084F85100002070BD00003B
:100E900000B500680C4985B0884212D10B488169C1
:100EA00041F4805181618069694600F4805004906A
:100EB000A020009002200190032003900448FFF737
:100EC0006DFB05B000BD0000003001400010024085
:100ED000000801402DE9F84F044690F85000002624
:100EE000994617460D4601280DD04FF0010B84F8A6
:100EF00050B0FFF751FC804694F85100B2460128EB
:100F000004D0022694E00220BDE8F88F002D7BD0AB
:100F1000002F79D0032084F85100C4F854A0256331
:100F2000A786E786C4F838A0A4F83CA0A4F83EA0A1
:100F3000C4F844A0C4F840A0A068B0F5004F04D1A4
:100F40002068016841F48041016020680168490619
:100F500003D4016841F040010160E068B0F5006F22
:100F6000606804D030B3E08E012823D03EE010B199
:100F7000E08E01281AD135F8021B206805E02068B0
:100F80008168890706D535F8021BC160E08E401ED6
:100F9000E0860BE0B9F1000F34D0B9F1FF3F05D086
:100FA000FFF7FAFBA0EB080149452BD2E08E0028A1
:100FB000E5D11EE0216815F8010B087306E02068F2
:100FC0008168890706D515F8011B0173E08E401E64
:100FD000E0860BE0B9F1000F14D0B9F1FF3F05D066
:100FE000FFF7DAFBA0EB080149450BD2E08E0028A1
:100FF000E5D14B46012202212046CDF8008000F0C9
:10100000E6FE10B1032613E011E0424649462046B1
:1010100000F0CDFE18B101262020606508E0A06830
:1010200018B92068C16880680090606D00B1012621
:1010300084F851B084F850A0304665E74FF0E021C5
:101040000428086903D020F004000861704740F0CC
:101050000400FAE7704710B5401EB0F1807F01D35D
:10106000012010BD4FF0E02460610F21601700F0F7
:1010700045F90020A06107202061002010BD10B5B7
:10108000FFF7E8FF10BD70B5040004D094F83900F4
:10109000002510B106E0012070BD84F838502046CC
:1010A00000F022F8242084F839002068C16821F477
:1010B0000051C160204600F035FF2068016921F42D
:1010C000904101612068416921F02A014161206855
:1010D000C16841F40051C160E563202084F8390003
:1010E00084F83A00002070BD10B50068114986B040
:1010F00088421DD11048816941F480418161806935
:101100000E4C00F4804004904FF4007000900220D8
:1011100001900320039069462046FFF73FFA002123
:101120002015CDE90001029169462046FFF736FA05
:1011300006B010BD00380140001002400008014018
:101140002DE9F843044690F839001F4616460D462F
:10115000202850D1A5B19EB194F8380001284AD07A
:10116000012084F838004FF00008C4F83C802120AA
:1011700084F83900FFF710FBA6848146E68426E058
:101180000120BDE8F883E08C401EE084A0684B4657
:10119000B0F5805F4FF000024FF0800120460097CD
:1011A00003D000F077FFE8B90DE000F073FFC8B995
:1011B00028882168C0F308004860206908B16D1CC8
:1011C00005E0AD1C03E0216815F8010B4860E08CD8
:1011D0000028D8D14B46002240212046009700F03D
:1011E00059FF08B10320CCE7202084F8390084F8A7
:1011F00038800020C5E70220C3E7FEE7124810B59B
:10120000816986B041F00401816180690F4C00F072
:1012100004000490002216212046FFF7B8FA162099
:101220000090012001900220039069462046FFF7BC
:10123000B5F900210820CDE9000102916946204658
:10124000FFF7ACF906B010BD0010024000080140E5
:10125000114810B50F4901604FF4827141600021BF
:101260008160C1604FF400720161C0E9051228225B
:10127000C0E90721416281620A21C162FFF7C6FD10
:10128000002805D0BDE81040272104A000F035BF9C
:1012900010BD000000300140480000202E2E2F53CA
:1012A00072632F7370692E63000000000D4810B543
:1012B0000B4901604FF4E1314160002181600C2253
:1012C000C160C0E904128161C161FFF7DCFE002842
:1012D00005D0BDE81040242103A000F00EBF10BDD2
:1012E00000380140A00000202E2E2F5372632F756E
:1012F000736172742E630000FEE770470907090EE0
:10130000002806DA00F00F0000F1E02080F8141D3C
:10131000704700F1E02080F80014704730B50021DC
:101320000A4AC3B20DE0002006E000BF01FB04043E
:101330001568401C80B22B55548A8442F6D8491C4B
:1013400089B2908A8842EED830BD0000300000207B
:1013500070B50022094B0DE0002106E002FB0414E9
:101360001E68055D491C355589B25C8A8C42F5D8EA
:10137000521C92B2998A9142EED870BD3000002082
:101380002DE9F05F81462A481E46DDF828B08388A3
:1013900088464B4502D3C188414504D2BDE8F05F81
:1013A00024A000F0ABBEB088410700D0012101EBC2
:1013B000D000203AF1885043484331684FF0800A0A
:1013C0000F1800252FE0002424E000BFBBF1FF0F21
:1013D0003A7804F007012AFA01F002EA000201D08B
:1013E0000AB908E082B108EB050081B209EB0400FC
:1013F00080B20B9A06E008EB050081B209EB04000D
:1014000080B25A4600F06AFCE043400700D17F1CDE
:10141000641CA4B2B088A042D8D83079400700D06C
:101420007F1C6D1CADB2F088A842CCD8BDE8F09FFF
:101430003000002044656275673A205061696E741F
:101440005F447261774368617220496E70757420E1
:101450006578636565647320746865206E6F726D6E
:10146000616C20646973706C61792072616E67656C
:101470000D0A00002DE9FF4F8046834885B00F46D6
:1014800084881299444502D3C088B84205D809B06F
:101490007E48BDE8F04F00F031BE03200024A0EBF1
:1014A000420015B20FFA80FA01297AD0E9E0264607
:1014B00061E000BF4FF0010908EB040007EB060BE9
:1014C00002901FFA8BF1CDF8009080B24B46089A3B
:1014D00000F0CEF9A8EB040004901FFA8BF1CDF8D0
:1014E000009080B20123089A00F0C2F93819CDE9C2
:1014F000009081B2A8EB060B1FFA8BF00123089A2B
:1015000000F0B6F9381B039081B2CDF800901FFAB5
:101510008BF00123089A00F0ABF90498A7EB060BB7
:101520001FFA8BF1CDF8009080B20123089A00F0E9
:101530009FF902981FFA8BF1CDF8009080B2012339
:10154000089A00F095F9039808EB060B81B2CDF8E4
:1015500000901FFA8BF00123089A00F089F9019896
:10156000CDF8009081B21FFA8BF00123089A00F0A9
:101570007FF9761C36B2AE429CDDBAF1000F06DA76
:101580000AEB8400801D0FFA80FA08E009E0611B75
:101590000AEB81000A306D1E0FFA80FA2DB2641C2E
:1015A00024B2AC4283DD09B0BDE8F08F08EB040043
:1015B000012607EB050902901FFA89F1009680B217
:1015C000139B089A00F054F9A8EB040003901FFA4B
:1015D00089F1009680B2139B089A00F049F93819F6
:1015E000CDE9006081B2A8EB05091FFA89F0139BD1
:1015F000089A00F03DF9A7EB040B1FFA8BF11FFAD4
:1016000089F00096139B089A00F032F90398A7EB33
:1016100005091FFA89F1009680B2139B089A00F021
:1016200027F902981FFA89F1009680B2139B089A55
:1016300000F01EF908EB05091FFA8BF11FFA89F07B
:101640000096139B089A00F013F90198009681B256
:101650001FFA89F0139B089A00F00AF9BAF1000FFB
:1016600005DA0AEB8400801D0FFA80FA07E0611B9F
:101670000AEB81000A306D1E0FFA80FA2DB2641C4D
:1016800024B2AC4292DD8EE7300000203C530008CB
:101690002DE9FE4F1D46304B16469A88824206D3EE
:1016A000DB888B4203D3B24201D3AB4204D2BDE804
:1016B000FE4F2AA000F022BD83468A46321A00D58A
:1016C000821B91466A1A002A00DD4A1B90464FF0A1
:1016D000FF32B34501D2012000E010460290AA4536
:1016E00000D2012209EB0804002701927F1C0D980B
:1016F000FFB2012805D10320B7FBF0F100FB117008
:10170000F0B101200090514658460E9B0C9A00F013
:10171000AFF800BFB8EB440F06DCB3451AD002980F
:10172000444458441FFA80FBB9EB440FDEDBAA4562
:1017300010D001994C440AEB01001FFA80FAD5E75A
:1017400001200090FF22514658460E9B00F090F871
:101750000027DFE7BDE8FE8F30000020446562759A
:10176000673A205061696E745F447261774C696EAC
:101770006520496E707574206578636565647320B3
:10178000746865206E6F726D616C20646973706C33
:1017900061792072616E67650D0A00002DE9FF4FC7
:1017A000ADF5037D8846DDE990BA814600244FF40B
:1017B000807715462646394642A8FEF7DCFC3946B6
:1017C00002A8FEF7D8FC194842AA83884B4503D3E8
:1017D000C38802A8434512D215A000F08FFC0DF576
:1017E000077DBDE8F08F00BF95FBF1F301FB1353BC
:1017F00095FBF1F530330355641C24B200E00A2157
:10180000002DF1D11146002C08DD031913F8013C1D
:101810008B55761C641E36B224B2F4E7CDE900BACB
:1018200041464846869B00F0CBF9D8E730000020BF
:1018300044656275673A205061696E745F446973EC
:101840004E756D20496E70757420657863656564AA
:101850007320746865206E6F726D616C20646973AB
:10186000706C61792072616E67650D0A000000007E
:101870002DE9F05F814626481C46884683880A99F0
:1018800093464B4502D3C288424504D2BDE8F05F7F
:1018900020A000F033BC012901D0002634E000254F
:1018A000681E00EB440718E009EB05000026A0EBDA
:1018B000040A0EE0BAF1000F0DD408EB0600001B7D
:1018C00009D481B21FFA8AF05A4600F007FA761C52
:1018D00036B2B742EEDC6D1C2DB2AF42E4DCBDE89F
:1018E000F09F002509EB06077F1E09E008EB0500C5
:1018F000401E81B2B8B25A4600F0F0F96D1C2DB20C
:10190000A542F3DB761C36B2A642EADBE7E700002D
:101910003000002044656275673A205061696E743A
:101920005F44726177506F696E7420496E70757490
:10193000206578636565647320746865206E6F72D6
:101940006D616C20646973706C61792072616E677F
:10195000650D0A002DE9FE4F8246274891460C4648
:10196000DDE90D2581880C9E1F46514506D3C088B0
:10197000A04203D3494501D3B84204D2BDE8FE4F8B
:101980001EA000F0BBBB002080465AB90EE00096B6
:10199000CDE9018523464A4619465046FFF778FEB1
:1019A000641CA4B2BC42F2D3BDE8FE8F0096CDE920
:1019B000018523464A4619465046FFF769FE0096C0
:1019C000CDE9018552463B4621461046FFF760FEB1
:1019D0000096CDE901854A46234639461046FFF771
:1019E00057FE0096CDE901853B46524619464846CA
:1019F000FFF74EFED8E70000300000204465627516
:101A0000673A20496E707574206578636565647304
:101A100020746865206E6F726D616C2064697370EC
:101A20006C61792072616E67650D0A002DE9F05FC7
:101A30001D46904606468A46DDF828B0B6E07F2966
:101A40004FF0000054D8AA884CE053232C6843433D
:101A500014F813308B4244D153214843022101EB47
:101A6000400004EB0009002737E000242CE000BF11
:101A70004FEAE47004EB507020F00700A4EB000282
:101A8000BBF1FF0F99F800104FF0800020FA02F030
:101A900001EA000101D009B907E071B10AEB0700C2
:101AA00081B2301980B20B9A05E00AEB070081B2CF
:101AB000301980B25A4600F011F9404820400728FA
:101AC00001D109F10109641C2889A042D0DC287ADF
:101AD000400701D009F101097F1C6889B842C4DCC4
:101AE00002E0401C8242B0DC08F10108E8885CE0BA
:101AF0000127AB8854E053222C68424314F812C0EB
:101B00008C454CD107EB4202A45C98F8012094422A
:101B100045D1532250430222296802EB400001EBD9
:101B20000009002737E000242CE000BF4FEAE470F2
:101B300004EB507020F00700A4EB0002BBF1FF0F94
:101B400099F800104FF0800020FA02F001EA00013D
:101B500001D009B907E071B10AEB070081B2301971
:101B600080B20B9A05E00AEB070081B2301980B20F
:101B70005A4600F0B3F811482040072801D109F176
:101B80000109641C2889A042D0DC287A400701D0D2
:101B900009F101097F1C6889B842C4DC02E0401CDD
:101BA0008342A8DC288908F10208064498F800104E
:101BB00000297FF444AFBDE8F09F000007000080DB
:101BC0002DE9FC5F80461B4889460D4681884446C6
:101BD000DDF834B01E461746A14203D3C1888246C1
:101BE000A94222D2BDE8FC5F134800F087BAB08852
:101BF000BAF804300119994203D9F18844462944BE
:101C00008DB2F188BAF806002944814201D94446D0
:101C10004D460C99CDE9001B334629462046FFF777
:101C2000AFFBB0887F1C204484B23A78002ADED112
:101C3000BDE8FC9F30000020F85200082DE9F0417B
:101C4000134C0E460699206026816281A1811F46B1
:101C500015464FF0000870074FEAD60100D0491C26
:101C60006182A5822A460BA000F048FA0F2112A03B
:101C700000F044FAE781A4F810802FB1B42F03D00C
:101C8000A580E680BDE8F081A680E580FAE7000047
:101C900030000020576964746842797465203D20E3
:101CA00025642C2048656967687442797465203D15
:101CB0002025640D0A000000204550445F57494428
:101CC0005448202F2038203D2025640D0A000000B4
:101CD000014908607047000030000020F0B4284C33
:101CE000A388834234D3E3888B4231D32346E789E8
:101CF0001E895D89CFB15A2F1AD0B42F1CD0B7F5E9
:101D0000877F38D10B46281A401E80B2218AD9B16C
:101D1000012916D0022904D003292CD1F11A491E19
:101D20008BB2281A401E80B20EE003460846EDE74B
:101D3000711A491E8BB2E9E7301A401E83B2681A45
:101D4000E2E7F11A491E8BB29E4201D3854203D2CB
:101D5000F0BC0CA000F0D2B9618A414301EBD3057D
:101D600021688020002A4C5D03F0070220FA02F06F
:101D700003D020434855F0BC704784434C55FAE7E4
:101D80003000002044656275673A204578636565D8
:101D900064696E6720646973706C617920626F7525
:101DA0006E6461726965730D0A000000704738B592
:101DB0000B46009204460022802100F008F800281B
:101DC00004D0606D40F020006065032038BD2DE92F
:101DD000F0411D4617460E460446DDF8188035E0F2
:101DE000681C33D02DB1FEF7D7FCA0EB0800A84249
:101DF0002CD32068416821F0E00141606068B0F5B3
:101E0000827F0BD1A068B0F5004F02D0B0F5806F93
:101E100004D12068016821F040010160A06AB0F59A
:101E2000005F0AD1206801684DF6FF721140016021
:101E30002068016841F400510160012084F85100DC
:101E4000002084F850000320BDE8F08120688068FD
:101E500036EA000004D00020B842C1D10020F3E7E8
:101E60000120F9E7704710B5FEF79CFCBDE8104073
:101E7000FFF705B930B58FB001210804CDE9001096
:101E80000024029402250491CDE907504FF4E0109C
:101E900009906846FEF738FE00B1FEE70F20CDE955
:101EA0000A054FF48060CDE90C4002210AA80E9487
:101EB000FEF724FD00B1FEE7FEF7CAFD4FF47A718C
:101EC000B0FBF1F0FFF7C7F80420FFF7B7F80022E6
:101ED0001146501EFEF7E0FC0FB030BD0D48016802
:101EE00041F00101016041680B4A11404160016805
:101EF0000A4A11400160016821F4802101604168B3
:101F000021F4FE0141604FF41F0181600449C003C8
:101F100008607047001002400000FFF8FFFFF6FE67
:101F200008ED00E02DE9F041044600680169E2682F
:101F300021F44051114301612169A068084361699E
:101F400008432168CA6841F20C639A430243CA609D
:101F500020684169A26921F44071114341614C49F3
:101F600020686425322688423CD1FEF787FD00EBCD
:101F7000C00101EB001061688900B0FBF1F7FEF7CA
:101F80007DFD00EBC00101EB00106168B0468900E7
:101F9000B0FBF1F0B0FBF5F06FF01801484307EB30
:101FA000800106EB0110B0FBF5F000F0F006FEF743
:101FB00065FD00EBC00101EB001061688900B0FB1A
:101FC000F1F0B0FBF5F006EB0016FEF757FD00EB65
:101FD000C00101EB001061688900B0FBF1F7FEF76A
:101FE0004DFD3BE0FEF73AFD00EBC00101EB0010B8
:101FF00061688900B0FBF1F7FEF730FD00EBC0012E
:1020000001EB00106168B0468900B0FBF1F0B0FB55
:10201000F5F06FF01801484307EB800106EB011063
:10202000B0FBF5F000F0F006FEF718FD00EBC00184
:1020300001EB001061688900B0FBF1F0B0FBF5F036
:1020400006EB0016FEF70AFD00EBC00101EB0010E5
:1020500061688900B0FBF1F7FEF700FD00EBC001FD
:1020600001EB001061688900B0FBF1F0B0FBF5F006
:102070006FF01801484307EB800108EB0110B0FB3B
:10208000F5F0216800F00F0030448860BDE8F08171
:10209000003801402DE9F041984617460E460446A7
:1020A000069D1DE0681C1BD02DB1FEF775FBA0EB53
:1020B0000800A84214D92068C16821F4D071C16019
:1020C0002068416921F001014161202084F8390034
:1020D00084F83A00002084F838000320BDE8F0813D
:1020E0002068006836EA000004D00020B842D9D049
:1020F0000020F3E70120F9E7FEE7FEE70FB4054B08
:1021000010B503A9044A029800F018F810BC5DF855
:1021100014FB0000F52200082400002002E008C89B
:10212000121F08C1002AFAD170477047002001E051
:1021300001C1121F002AFBD1704700002DE9FF4F9B
:102140008BB09A460F460546002606E025280BD0A0
:1021500052460D9990476D1C761C28780028F5D1C1
:102160000FB03046BDE8F08F0024A0460122604940
:1021700000E0044315F8013F203B02FA03F0084257
:10218000F7D128782E2817D115F8010F44F0040450
:102190002A280ED06FF02F022878A0F130010929EB
:1021A0000AD808EB880102EB410100EB01086D1C25
:1021B000F2E757F8048B6D1C287869283ED006DCBE
:1021C0000028CDD063280BD0642804D136E07328D2
:1021D00010D075284BD052460D999047761C85E05B
:1021E00017F8040B8DF8000000208DF80100E94677
:1021F000012003E057F8049B4FF0FF3061074FF0D8
:10220000000401D40AE0641C44450DDA8442FADB80
:1022100019F804100029F6D106E0641C8442FCDBA6
:1022200019F804100029F8D1264404E019F8010B2C
:1022300052460D999047641EF8D257E001CF4FF0F7
:102240000A0B002802DA40422D2102E0210504D5C4
:102250002B218DF82410012103E0E10705D0202176
:10226000F7E70DF1200908910CE00021F9E701CF13
:102270004FF00A0BF9E75946FDF788FF01F13002EC
:1022800009F8012D0028F6D1ADEB090000F1200B73
:10229000600701D44FF00108D84502DDA8EB0B0020
:1022A00000E000208046002406E009A85246005DB8
:1022B0000D999047641C761C08988442F5DB04E075
:1022C000302052460D999047761CB8F10001A8F1D4
:1022D0000108F5DC05E019F8010B52460D9990470D
:1022E000761CBBF10001ABF1010BF4DC6D1C34E793
:1022F0000928010013B54FF6FF7301226946024811
:10230000FEF71EFF00981CBDA000002010B500289D
:1023100021D0114B0022001F196803E0814203D82D
:102320000A4649680029F9D152B11368841A9C42BF
:1023300004D1006818441060104602E0506000E0CC
:10234000186039B102680B1A934203D10B681A4422
:1023500002604968416010BD280000202DE9FE435D
:10236000FEF728FAFFF786FDFEF748FFFEF79EFF0F
:10237000FEF76EFF7EA0FFF7C1FEFDF79FFF10B1D5
:1023800087A0FFF7BBFEFDF738FFC820FEF7F4F883
:1023900040F64830044600F091F95FEA00094FF03A
:1023A000FF357DD0204600F089F9070079D082A062
:1023B000FFF7A4FEFF264FF48774982223461146A8
:1023C00048460096FFF73AFC9822234611463846C5
:1023D0000096FFF733FC4846FFF77AFCFF20FEF734
:1023E0009DFF3846FFF774FCFF20FEF797FF7BA0A8
:1023F000FFF784FE4846FFF76BFC8448FEF7A8FF12
:102400003846FFF765FC8248FEF7A2FF394648468A
:10241000FDF71EFF4FF4FA684046FEF7ADF87DA0C9
:10242000FFF76CFE4846FFF753FCFF20FEF776FFF0
:102430000124234600220A2105200094FFF718FA00
:1024400002230022192105200094FFF711FA00252C
:102450000095CDE901543C2346220A211420FFF7C0
:1024600017F90095CDE901543C2314220A21462096
:10247000FFF70EF90095CDE901543C2346220A21CD
:102480001420FFF767FACDE900543C2382220A2189
:1024900055200294FFF75EFA3846FFF719FC01E079
:1024A0005EE05FE0FF20FEF739FF032300222821D2
:1024B00005200094FFF7DCF90423002237210520D2
:1024C0000094FFF7D5F9CDE90054AA2237230F2154
:1024D00010460294FFF7DCF8CDE900542323BE2216
:1024E000194696200294FFF7D3F8CDE90054002353
:1024F0000F2223212D20FEF7BDFF009400230F2281
:102500001E2169200194FEF7B5FFCDE900564A4B24
:102510004AA246210520FFF753FBCDE90056464B62
:10252000494A5F210520FFF739F9CDE90056474BAD
:1025300047A278210520FFF779FA39464846FDF78A
:1025400087FE4046FEF718F843A0FFF7D7FDFDF7DA
:10255000BDFF4846FFF7DAFE3846FFF7D7FEFEE735
:1025600043A000E04CA0FFF7C9FD2846BDE8FE836C
:1025700065706420696E697420616E6420636C65A7
:1025800061722D2D2D2D2D2D2D2D2D2D2D2D2D2D02
:102590002D2D2D2D2D2D2D2D2D2D0D0A0000000062
:1025A000652D506170657220696E6974206661697D
:1025B0006C65640D0A0000004E6577496D616765C2
:1025C0003A426C61636B496D61676520616E64209E
:1025D000526564496D6167650D0A000073686F7725
:1025E00020696D61676520666F7220617272617922
:1025F0002D2D2D2D2D2D2D2D2D2D2D2D2D2D2D2D0B
:102600002D2D2D2D2D2D2D2D0D0A0000A02700087C
:10261000E832000844726177696E672D2D2D2D2DEB
:102620002D2D2D2D2D2D2D2D2D2D2D2D2D2D2D2DDA
:102630002D2D2D0D0A0000000C0000204D482D45C9
:1026400054204C495645000015CD5B070000002082
:10265000C4E3BAC361626300476F746F20536C6553
:102660006570206D6F64652E2E2E0D0A000000002F
:102670004661696C656420746F206170706C7920AC
:10268000666F7220626C61636B206D656D6F72792D
:102690002E2E2E0D0A0000004661696C65642074C0
:1026A0006F206170706C7920666F72207265642093
:1026B0006D656D6F72792E2E2E0D0A00F0B50B3000
:1026C000154D20F007010024144A0FE003688B42E7
:1026D0000BD38B4205D95E1A43184768C3E90067DC
:1026E00000E04368136002C004E0021D1068002887
:1026F000ECD12046002802D1286808B10020F0BDA6
:10270000064A07481060074A121A22F00702C0E979
:10271000002401202860D7E72C000020280000209A
:10272000E4000020E09000200E14010A06040A0ACA
:102730000F03030C060A000E14010A46048A4A0F0E
:1027400083430C860A040E14018A06048A4A0F8306
:10275000430C064A048E94018A06048A4A0F834376
:102760000C060A048E94018A06048A4A0F83430CDD
:10277000060A04031D010108233737010000000089
:102780000000835D0181482377770100000000008D
:1027900000031D010108233737010000000000007D
:1027A000FFFFFFFFFFFFFFFFFFFFFFFFFFFFFFFF39
:1027B000FFFFFFFFFFFFFFFFFFFFFFFFFFFFFFFF29
:1027C000FFFFFFFFFFFFFFFFFFFFFFFFFFFFFFFF19
:1027D000FFFFFFFFFFFFFFFFFFFFFFFFFFFFFFFF09
:102A0000FFFFFFFFFFFFFFFFFFBFBFFFFFFFFFFF56
:102A1000FFDFDFFFFFFFFFFFFFF8C7FE3E3FFFFCCA
:102A200089FFFFF3DFDFFFFFFFFFFFFFFDEFFFBFCA
:102A3000BFFFFEDBFFFFFBDFDFFFFFFFFFFFFFFD51
:102A4000EFFFBFBFFFFEDBFFFFFBDFDFFFFFFFFF8F
:102A5000FFFFFDEF1FBFBF8FFEDB8C638BDFDFFF50
:102A6000FFFFFFFFFFFDEEEFBFBF77FEDB775B737E
:102A7000DFDFFFFFFFFFFFFFFC0DF7BFBEFBFEAA7E
:102A8000FB3EFBDFDFFFFFFFFFFFFFFDEC07BFBEED
:102A9000FBFEAAFB7EFBDFDFFFFFFFFFFFFFFDED7D
:102AA000FFBFBEFBFEAAFB7EFBFFFFFFFFFFFFFF9A
:102AB000FFFDEDFFBFBEFBFF76FB7EFBFFFFFFFFD1
:102AC000FFFFFFFFFDEEF7BFBF77FF77777F73DF75
:102AD000DFFFFFFFFFFFFFF8C70E0E0F8FFF778CA2
:102AE0001F89DFDFFFFFFFFFFFFFFFFFFFFFFFFF8C
:102AF000FFFFFFFFFFFFFFFFFFFFFFFFFFFFFFFFE6
:102B0000FFFFFFFFFFFFFFFFFFFFFFFFFFFFFFFFD5
:102B1000FFFFFFFFFFFFFFFFFFFFFFFFFF07E0F8E3
:102B20001F07E0F83F07C0F83F07C0F83F07C0F8AD
:102B300007E0F81F07E0F83F07C0F83F07C0F83F7D
:102B400007C0F8FFFFFFFFFFFFFFFFFFFFFFFFFFD3
:102B5000FFFFFFFFFFFFFFFFFFFFFFFFFFFFFFFF85
:102B6000FFFFFFFFFFFFFFFFFFFFFFFFF1FFFDFF85
:102B7000FFFFFFFFFFFFFFFFFFFFFFFFFC1FFFFD4A
:102B8000FFFDFFFFFFFFFFFFFFFFFFFFFFFFFFFE58
:102B9000DFFFFDFFBFFFFFFFFFFFFFFFFFFFFFFFA7
:102BA000FFFFFEDFFFFDFFBFFFFE7FFFFFFFFFFF19
:102BB000FFFFFFFFFFFE18439D9309F20FFFFFFF8A
:102BC000FFFFFFFFFFFFFFFFFEBB5F6DDBBDED6F94
:102BD000FFFFFFFFFFFFFFFFFFFFFFFE98436DDBDF
:102BE000BDED6FFFFFFFFFFFFFFFFFFFFFFFFEDBFE
:102BF000FB6DDBBDED6FFFFFFFFFFFFFFFFFFFFF83
:102C0000FFFC4843904188F2267FFFFFFFFFFFFF54
:102C1000FFFFFFFFFFFFFFFFFFFFFFFFFFFFFFFFC4
:102C2000FFFFFFFFFFFFFFFFFFFFFFFFFFFFFFFFB4
:102C3000FFFFFFFFFFFFFFFFFFFFFFFFFFFFFF7F24
:102C4000FFFFF8FFFFFFFFFFFFFFFFFFFFFE3FFF5C
:102C5000FFFF7FFFCCFEFFFFFFFFFFFFFFFFFFFF38
:102C6000FDDFFFFFEFFFFFEDFEF7FFFFFFFFFFFFC1
:102C7000FFFFFFFDDFFFFFEFFFFFEDFEF7FFFFE7C9
:102C8000FFFFFFFFFFFFFDC1E49CC270E1EB9EE18F
:102C9000CE19FFFFFFFFFFFFFFFDD6DA7B6F7B5BE7
:102CA000EB6EF7B5B6FFFFFFFFFFFFFFFDD6C2FCDF
:102CB0006F7B67F36EF7C670FFFFFFFFFFFFFFFD3F
:102CC000D6DEFB6F7B5FF76EF7B5F7FFFFFFFFFF09
:102CD000FFFFFE31E07C223123F79831C238E7FF55
:102CE000FFFFFFFFFFFFF7FFFFFFFFDDFFFFFFFD20
:102CF000DFFFFFFFFFFFFFFFFFE3FFFFFFFFE3FF3C
:102D0000FFFFFE3FFFFFFFFFFFFFFFFFFFFFFFFF94
:102D1000FFFFFFFFFFFFFFFFFFFFFFFFFFFFFFFFC3
:102D2000FFFFFFFFFFFFFFFFFFFFFFFFFFFFFFFFB3
:102D3000FFFFFFFFFFFFFFFFFFFFFFFFFFFFFFFFA3
:102D4000FFFFFFFFFE0FFFFFFFFFF3FFFFF9FFFF96
:102D5000FFFFFFFFFFFFFFFCEFFFFFFFFFFFFFFE97
:102D6000FFFFFFFFFFFFFFFFFFFFFDFFFFFFFFFF75
:102D7000FFFFFEFFFFFFFFFFFFFFFFFFFFFDFE382E
:102D800030666463830831E3273FFFFFFFFFFFFFE7
:102D9000FDFDDD5AB7737BBAEEFDDD9BFFFFFFFF44
:102DA000FFFFFFFDFDDD5AB7777BBF8EFDDDBBFF6B
:102DB000FFFFFFFFFFFFFDFDDD5AB7777BBF6EFD15
:102DC000DDBBFFFFFFFFFFFFFFFCEDDD5AB6777BAA
:102DD000BAEEDDDDBBFFFFFFFFFFFFFFFE0E254A62
:102DE00099222083061063113FFFFFFFFFFFFFFFC3
:102DF000FFFFFFFFFFFFFFFFFFFFFFFFFFFFFFFFE3
:102E0000FFFFFFFFFFFFFFFFFFFFFFFFFFFFFFFFD2
:102E1000FFFFFFFFFFFFFFFFFFFFFFFFFFFFFFFFC2
:102E2000FFFFFFFFFFFFFFFFFFFFFFFFFFFFFFFFB2
:10313000FFFFFFFFFFFFFFFFFFFFC1FFFFFFFFFFDD
:10314000FFFFFFFFFFFFFFF0FFFFFFFFFFEDFFFFB0
:10315000FFFFFFFFFC7FBFFFFFFFFB7FFFFFFFFFC6
:10316000EBFFFFFFFFFFC47F7FBFFFFFFFFB7FFF82
:10317000FFFFFFE21E49C19FFFE4FF77FFFFFFFF54
:10318000F8E61C93FFFFEB6DA7B5BFFFE4FF77FFE9
:10319000FFFFFFFBDB6B4FFFFFEF6C2FCDBFFFE4AB
:1031A00027613FFFFFFFFBE3685FFFFFED6DEFBEB1
:1031B0007FFFEAB777B81FFFFFFBDB6BDFFFFFC0C6
:1031C0002607C77FFFEAB777B81FFFFFF1E11C0FA3
:1031D000FFFFFFFFFFBAFFFFEAB777BFFFFFFFFF69
:1031E000FF7FFFFFFFFFFFFFC1FFFFCA40111FFF6F
:1031F000FFFFFFFE3FFFFFFFFFFFFFFFFFFFFFFFA0
:10320000FFFFFFFFFFFFFFFFFFFFFFFFFFF7FFFFD6
:10321000FFFFFFFFFFFFFFFFFFF67FFFFFFFE1FF65
:10322000F7FFFFFFFE3FFF3FFFFFFFF1F77FFFFFCD
:10323000FFDDFFFFFFFFFFC3BFFEDFFFFFFFFBFF61
:103240007FFFFFFFDFFFFFFFFFFFEDBFDEFFFFFFA1
:10325000FFFBFF7FFFFFFFE799261E1FFFEDBFDE8D
:10326000FFFFFFFFFBE74E7FFFFFFB6D776DBFFFAB
:10327000E3B98432487FFFFBF75DBFFFFFFD8D7729
:103280006E7FFFEFB6DEED3ABFFFFBF73C3FFFFF7F
:10329000DD6EF76DFFFFEFB8DEED7ABFFFFBB75DC8
:1032A000FFFFFFC386E2263FFFEFB6DEED7ABFFFEA
:1032B000F0226E3FFFFFFFFFFFFDDFFFC608443235
:1032C0003ABFFFFFFFFFFFFFFFFFFFFFFE3FFFFFD4
:1032D000FFFFFFFFFFFFFFFFFFFFFFFFFFFFFFFFFE
:1032E000FFFFFFFFFFFFFFFFFFFFFFFFFFFFFFFFEE
:1032F000FFFFFFFFFFFFFFFFFFFFFFFFFFFFFFFFDE
:10330000FFFFFFFFFFFFFFFFFFFFFFFFFFFFFFFFCD
:10331000FFFFFFFFFFFFFFFFFFFFFFFFFFFFFFFFBD
:10332000FFFFFFFFFFFFFFFFFFFFFFFFFFFFFFFFAD
:10333000FFFFFFFFFE00000000FFFFFFFFFFFFFF9A
:10334000FFFFFFFFFFFFFFF8F80000E07FFFFFFF38
:10335000FFFFFFFFFFFFFFFFFFFFF0880001F03FCF
:10336000FFFFFFFFFFFFFFFFFFFFFFFFFFE0880002
:1033700001101FFFFFFFFFFFFFFFFFFFFFFFFFFF2A
:10338000E0880001101FFFFFFFFFFFFFFFFFFFFFAF
:10339000FFFFFFE0F80181F0187C21C3C00F003F60
:1033A00083F00C3C2007E0700380E0187C21C3C050
:1033B00006001F83F00C3C2003E0500780401C7C7B
:1033C00073E7E7C4738FCFFE7E7F73E3E058058019
:1033D00040FC7C73E7E7F4F3CFCFFE7E7E73FBE027
:1033E0004C05807FFC3873E7E7F4F3CFCFFE7E3ED9
:1033F00073FBE04C0D80401C3873E7E79FF3FFCF71
:10340000FE7E3E73CFE0460980401C3A73E7E79F9B
:10341000F3FFCFFE7F3CF3CFE0421980401CBA732C
:10342000E7E79FF3FFCFFE7F3CF3CFE043198040F7
:10343000FC927004201FF3FFCFFE7F99F00FE04154
:1034400011807FFC927004201FF3FFCFFE7F99F064
:103450000FE041B180401C9273E7E79FF3FFCFFE7E
:103460007F99F3CFE040E180401CD673E7E79FF3FC
:10347000FFCFFE7FDBF3CFE0406180401CC673E7E7
:10348000E79FF3FFCFFE7FC3F3CFE04001804F9C67
:10349000C673E7E7FFF3FFCFFE7FC3F3FFE1F00161
:1034A00080489CC673E7E7F7F3FFCFFE7FE7F3FBA7
:1034B000E11001FFF89CC673E7E7F7F3FFCFDE7F6B
:1034C000E7F3FBE11FFFFFF8FCEE73E7E7E7F3FF2D
:1034D000CF9E7FE7F3F3E11001804F986C21C3C0CA
:1034E00007C0FF80100FE7E003E1F0018040187C87
:1034F00021C3C00FC0FF80300FE7E007E00001806C
:10350000401FFFFFFFFFFFFFFFFFFFFFFFFFFFE089
:103510000001804FFFFFFFFFFFFFFFFFFFFFFFFFE7
:10352000FFFFE0000180401FFFFFFFFFFFFFFFFFE5
:10353000FFFFFFFFFFE00001804FFFFFFFFFFFFFE6
:10354000FFFFFFFFFFFFFFFFE00001804FFFFFFFD6
:10355000FFFFFFFFFFFFFFFFFFFFFFE000018040D5
:103560001FFFFFFFFFFFFFFFFFFFFFFFFFFFE00069
:1035700001804FFFFFFFFFFFFFFFFFFFFFFFFFFF88
:10358000FFE0000180401FFFFFFFFFFFFFFFFFFF85
:10359000FFFFFFFFE0000180401FFFFFFFFFFFFF75
:1035A000FFFFFFFFFFFFFFE0000180401FFFFFFF65
:1035B000FFFFFFFFFFFFFFFFFFFFE00003C0E01F73
:1035C000FFFFFFFFFFFFFFFFFFFFFFFFFFE0000622
:1035D00061F01FFFFFFFFFFFFFFFFFFFFFFFFFFF88
:1035E000E0000661101FFFFFFFFFFFFFFFFFFFFF6F
:1035F000FFFFFFF0000661103FFFFFFFFFFFFFFF2F
:10360000FFFFFFFFFFFFF80003C1F07FFFFFFFFF99
:10361000FFFFFFFFFFFFFFFFFFFC00018040FFFFF8
:10362000FFFFFFFFFFFFFFFFFFFFFFFFFFFFFFFFAA
:10363000FFFFFFFFFFFFFFFFFFFFFFFFFFFFFFFF9A
:10364000FFFFFFFFFFFFFFFFFFFFFFFFFFFFFFFF8A
:10365000FFFFFFFFFFFFFFFFFFFFFFFFFFFFFFFF7A
:10366000FFFFFFFFFFFFFFFFFFFFFFFFFFFFFFFF6A
:10367000FFFFFFFFFFFFFFFFFFFFFFFFFFFFFFFF5A
:10368000FFFFFFFFFFFFFFFFFFFFFFFFFFFFFFFF4A
:10369000FFFFFFFFFFFFFFFFFFFFFFFFFFFFFFFF3A
:1036A000FFFFFFFFFFFFFFFFFFFFFFFFFFFFFFFF2A
:1036B000FFFFFFFFFFFFFFFFFFFFC781C3FFFC7896
:1036C0001C3FFFFFFFFFFFFFFFFFFFFFFF87818121
:1036D000FFF878181FFFFFFFFFFFFFFFFFFFFFFF4F
:1036E000E79FB9FFFE79FB9FFFFFFFFFFFFFFFFF93
:1036F000FFFFFFE79FF9CF3E79FF9FFFFFFFFFFF2F
:10370000FFFFFFFFFFFFE783F9E67E783F9FFFFFA4
:10371000FFFFFFFFFFFFFFFFFFE781F3F0FE781FD2
:103720003FFFFFFFFFFFFFFFFFFFFFFFE7F9E7F9A5
:10373000FE7F9E7FFFFFFFFFFFFFFFFFFFFFFFE713
:10374000B9CFF0FE7B9CFFFFFFFFFFFFFFFFFFFFF6
:10375000FFFF818181E67818181FFFFFFFFFFFFF41
:10376000FFFFFFFFFF818781CF3818781FFFFFFF22
:10377000FFFFFFFFFFFFFFFFFFFFFFFFFFFFFFFF59
:10378000FFFFFFFFFFFFFFFFFFFFFFFFFFFFFFFF49
:10379000FFFFFFFFFFFFFFFFFFFFFFFFFFFFFFFF39
:1037A000FFFFC7F8CCE6099FFFFFFFFFFFFFFFFF0A
:1037B000FFFFFFFFFFBBF76DE6FDBFFFFFFFFFFF52
:1037C000FFFFFFFFFFFFFFFFFBFF6DCEFDBFFFFF12
:1037D000FFFFFFFFFFFFFFFFFFFFFFE7FCEBCE1D3B
:1037E0007FFFFFFFFFFFFFFFFFFFFFFFFFFFFBFF6D
:1037F0006B9EED7FFFFFFFFFFFFFFFFFFFFFFFFF60
:10380000FFFBFF739FEE7FFFFFFFFFFFFFFFFFFF49
:10381000FFFFFFFFBB37773EEEFFFFFFFFFFFFFF1E
:10382000FFFFFFFFFFFFFFC738F63F1EFFFFFFFF51
:10383000FFFFFFFFFFFFFFFFFFFFFFFFFE7FFFFF19
:10384000FFFFFFFFFFFFFFFFFFFFFFFFFFFFFFFF88
:10385000FFFFFFFFFFFFFFFFFFFFFFFFFFFFFFFF78
:10386000FFFFFFFFFFFFFFFFFFFFFFFFFFFFFFFF68
:10387000FFFFFFFFFFFFFFFFFFFFFFFFFFFFFFFF58
:10388000FFFFFFFFFFFFFFFFFFFFFFFFFFFFFFFF48
:10389000FFFFFFFFFFFFFFFFFC1060FFFFFFFFFFC9
:1038A000FFFFFFFFFFFFFFFFFFFFFFFDDBBBFFFF92
:1038B000FFFFFFFFFFFFFFFFFFFFFFFFFFFFFDFB1E
:1038C000BBFFFFFFFFFFFFFFFFFFFFFFFFFFFFFF4C
:1038D000FFFDFBBBFFFFFFFFFFFFFFFFFFFFFFFF42
:1038E000FFFFFFFFFC187BFFFFFFFFFFFFFFFFFF56
:1038F000FFFFFFFFFFFFFFFFDBFBFFFFFFFFFFFF00
:10390000FFFFFFFFFFFFFFFFFFFFFFDBFBFFFFFFEF
:10391000FFFFFFFFFFFFFFFFFFFFFFFFFFFDDBFBE1
:10392000FFFFFFFFFFFFFFFFFFFFFFFFFFFFFFFFA7
:10393000FC11E0FFFFFFFFFFFFFFFFFFFFFFFFFFA7
:10394000FFFFFFFFFFFFFFFFFFFFFFFFFFFFFFFF87
:10395000FFFFFFFFFFFFFFFFFFFFFFFFFFE0FC1F79
:1039600003E0FC1F03E0F81F07E0F81F07E0F81F63
:10397000E0FC1F03E0FC1F03E0F81F07E0F81F074F
:10398000E0F81FFFFFFFFFFFFFFFFFFFFFFFFFFF4D
:10399000FFFFFFFFFFFFFFFFFFFFFFFFFFFFFFFF37
:1039A000FFFFFFFFFFFFFFFFFFFFFFFFFFFFFFFF27
:1039B000FFFFFFFFFFFFFFFFFFFFFFFFFFF800001C
:1039C0001FFFFFFFF801FFFFFFFFF9999FFFFFFFB8
:1039D000F000000FFFFFFFF000FFFFFFFFF9999FCE
:1039E000FFFFFFE0000007FFFFFFE0007FFFFFFF9A
:1039F000F9999FFFFFFFE3FFFF03FFFFFFC0003FB9
:103A0000FFFFFFF9999FFFFFFFE3FFFF21FFFFFF8C
:103A100080001FFFFFFFF9999FFFFFFFE3FFFF30CB
:103A2000FFFFFF00601BFFFFFFF9999FFFFFFFE310
:103A3000FFFF387FFFFE007003FFFFFFFFFFFFFF68
:103A4000FFFFE3FFFF3C7FFFFE00F007FFFFFFFFEC
:103A5000FFFFFFFFFFE38007007FFFFE01F807FF86
:103A6000FFFFFFFFFFFFFFFFE38007007FFFFE0177
:103A7000F807FFFFFFE00007FFFFFFE3FFFFFC7F0A
:103A8000FFFF03F00FFFFFFFE00007FFFFFFE3FF73
:103A9000FFFC7FFFFFC3E00FFFFFC060000603FFD6
:103AA000FFE3FFFFFC7FFFFE67FE0FFFFFC060002C
:103AB0000603FFFFE3FFFFFC7FFFF07FFFF8FFFF40
:103AC000FFE00007FFFFFFE380003C7FFF007F8FE8
:103AD000E07FFFFFE00007FFFFFFE380003C7FFF88
:103AE000803F1FC03FFFC060000603FFFFE3FFFFF2
:103AF000FC7FFFC03E1F801FFFC060000603FFFF6A
:103B0000E3FFFFFC7FFFC03E07800FFFFFE00007E1
:103B1000FFFFFFE3FFFFFC7FFF801E07800FFFFF1B
:103B2000E00007FFFFFFE3FFFFFC7FFF001F8FC0E8
:103B30000FFFC060000603FFFFE380003C7FFF0033
:103B4000FF1FE00FFFC060000603FFFFE380003CA3
:103B50007FFF01FF3FF00FFFFFE00007FFFFFFE3E4
:103B6000FFFFFC7FFF01FF7FF80FFFFFE00007FF73
:103B7000FFFFE3FFFFFC7FFF03FFFEFC0FFFC060C2
:103B8000000603FFFFE3FFFFFC7FFF03FFFCFC0FCA
:103B9000FFC060000603FFFFE3FFFFFC7FFF0000A4
:103BA000F8000FFFFFE00007FFFFFFE380003C7F0E
:103BB000FF8000F0000FFFFFE00007FFFFFFE38042
:103BC000003C7FFFC000E0001FFFFFFFFFFFFFFF83
:103BD000FFE3FFFFFC7FFFE000C0003FFFFFFFFFB0
:103BE000FFFFFFFFE3FFFFFC7FFFF000C0007FFF50
:103BF000FFFFFFFFFFFFFFE3FFFFFC7FFFF800E099
:103C000000FFFFFFF9999FFFFFFFE3FFFFFC7FFF2E
:103C1000FC00F001FFFFFFF9999FFFFFFFE3FFFFAB
:103C2000FC7FFFFFFFF8FFFFFFFFF9999FFFFFFFFA
:103C3000E00000007FFFFFFFFCFFFFFFFFF9999FFF
:103C4000FFFFFFF0000000FFFFFFFFFEFFFFFFFF91
:103C5000F9999FFFFFFFF8000001FFFFFFFFFFFF43
:103C6000FFFFFFF9999FFFFFFFFFFFFFFFFFFFFF30
:103C7000FFFFFFFFFFFFFFFFFFFFFFFFFFFFFFFF54
:103C8000FFFFFFFFFFFFFFFFFFFFFFFFFFFFFFFF44
:103C9000FFFFFFFFFFFFFFFFFFFFFFFFFFFFFFFF34
:103CA000FFFFFFFFFFFFFFFFFFFFFFFFFFFFFFFF24
:103CB000FFFFFFFFFFFFFFFFFFFFFFFFFFFFFFFF14
:103CC000FFFFFFFFFFFFFFFFFFFFFFFFFFFFFFFF04
:103CD000FFFFFFFFFFFFFFFFFFFFFFFFFFFFFFFFF4
:103CE000FFFFFFFFFFFFFFFFFFFFFFFFFFFFFFFFE4
:103CF000FFFFFFFFFFFFFFFFFFFFFFFFFFFFFFFFD4
:103D0000FFFFFFFFFFFFFFFFFFFFFFFFFFFFFFFFC3
:103D1000FFFFFFFFFFFFFFFFFFFFFFFFFFFFFFFFB3
:103D2000FFFFFFFFFFFFFFFFFFFFFFFFFFFFFFFFA3
:103D3000FFFFFFFFFFFFFFFFFFFFFFFFFFFFFFFF93
:103D4000FFFFFFFFFFFFFFFFFFFFFFFFFFFFFFFF83
:103D5000FFFFFFFFFFFFFFFFFFFFFFFFFFFFFFFF73
:103D6000FFFFFFFFFFFFFFFFFFFFFFFFFFFFFFFF63
:103D7000FFFFFFFFFFFFFFFFFFFFFFFFFFFFFFFF53
:103D8000FFFFFFFFFFFFFFFFFFFFFFFFFFFFFFFF43
:103D9000FFFFFFFFFFFFFFFFFFFFFFFFFFFFFFFF33
:103DA000FFFFFFFFFFFFFFFFFFFFFFFFFFFFFFFF23
:103DB000FFFFFFFFFFFFFFFFFFFFFFFFFFFFFFFF13
:103DC000FFFFFFFFFFFFFFFFFFFFFFFFFFFFFFFF03
:103DD000FFFFFFFFFFFFFFFFFFFFFFFFFFFFFFFFF3
:103DE000FFFFFFFFFFFFFFFFFFFFFFFFFFFFFFFFE3
:103DF000FFFFFFFFFFFFFFFFFFFFFFFFFFFFFFFFD3
:103E0000FFFFFFFFFFFFFFFFFFFFFFFFFFFFFFFFC2
:103E1000FFFFFFFFFFFFFFFFFFFFFFFFFFFFFFFFB2
:103E2000FFFFFFFFFFFFFFFFFFFFFFFFFFFFFFFFA2
:103E3000C4E300000000000000001DC01D803BFF27
:103E40003B073F777E76F870FBFEFBFE3F773F77C0
:103E50003E73387038703BE0000000000000000046
:103E60000000000000000000000000000000000052
:103E70000000000000000000000000000000000042
:103E80000000000000000000000000000000000032
:103E90000000000000000000000000000000000022
:103EA0000000000000000000000000000000000012
:103EB0000000000000000000000000000000000002
:103EC00000000000000000000000000000000000F2
:103ED000000000000000BAC3000000000000000065
:103EE000300073FF700FFE1E7E3C6E38EE30EFFF29
:103EF000FC307C3038303E307E30E030C1F00000A5
:103F000000000000000000000000000000000000B1
:103F100000000000000000000000000000000000A1
:103F20000000000000000000000000000000000091
:103F30000000000000000000000000000000000081
:103F40000000000000000000000000000000000071
:103F50000000000000000000000000000000000061
:103F60000000000000000000000000000000000051
:103F7000000000000000000000000000CAF7000080
:103F8000000000000000300E300E3FEE30EEFCFF6F
:103F900076CE77FE7BFEFFFEF3DEF3CE37EE3E6E8F
:103FA0003C0E303E00000000000000000000000059
:103FB0000000000000000000000000000000000001
:103FC00000000000000000000000000000000000F1
:103FD00000000000000000000000000000000000E1
:103FE00000000000000000000000000000000000D1
:103FF00000000000000000000000000000000000C1
:1040000000000000000000000000000000000000B0
:1040100000000000000000000000000000000000A0
:104020000000DDAE00000000000000000670FFFF91
:104030003E7038007FFFE000FFFC3B8C39CCFFFF77
:10404000739C71DC7FFF001C01F800000000000081
:104050000000000000000000000000000000000060
:104060000000000000000000000000000000000050
:104070000000000000000000000000000000000040
:104080000000000000000000000000000000000030
:104090000000000000000000000000000000000020
:1040A0000000000000000000000000000000000010
:1040B0000000000000000000000000000000000000
:1040C0000000000000000000C5C900000000000062
:1040D0000000E01FFFF03E000E1FCFFBFFF83FFF88
:1040E0000FFF7FD87FDC6FCEEDFFFDF7F9C000003A
:1040F00000000000000000000000000000000000C0
:1041000000000000000000000000000000000000AF
:10411000000000000000000000000000000000009F
:10412000000000000000000000000000000000008F
:10413000000000000000000000000000000000007F
:10414000000000000000000000000000000000006F
:10415000000000000000000000000000000000005F
:1041600000000000000000000000000000006100EE
:10417000000000000000000000000000000000003F
:104180003E00670007800F807F80E380E780E78044
:104190007F80000000000000000000000000000020
:1041A000000000000000000000000000000000000F
:1041B00000000000000000000000000000000000FF
:1041C00000000000000000000000000000000000EF
:1041D00000000000000000000000000000000000DF
:1041E00000000000000000000000000000000000CF
:1041F00000000000000000000000000000000000BF
:1042000000000000000000000000000000000000AE
:1042100000000000620000000000000000007000CC
:104220007000700070007F007B8071C071C071C031
:1042300071C071C07B807F000000000000000000A2
:10424000000000000000000000000000000000006E
:10425000000000000000000000000000000000005E
:10426000000000000000000000000000000000004E
:10427000000000000000000000000000000000003E
:10428000000000000000000000000000000000002E
:10429000000000000000000000000000000000001E
:1042A000000000000000000000000000000000000E
:1042B000000000000000000000006300000000009B
:1042C0000000000000000000000000003F0073003C
:1042D000F000E000E000E000F00073003F000000AC
:1042E00000000000000000000000000000000000CE
:1042F00000000000000000000000000000000000BE
:1043000000000000000000000000000000000000AD
:10431000000000000000000000000000000000009D
:10432000000000000000000000000000000000008D
:10433000000000000000000000000000000000007D
:10434000000000000000000000000000000000006D
:10435000000000000000000000000000000000005D
:104360004100000000000000000000000E001F00DF
:104370001F001F003B803B8071807FC071C0E0E068
:10438000E0E0E0E0000000000000000000000000AD
:10439000000000000000000000000000000000001D
:1043A000000000000000000000000000000000000D
:1043B00000000000000000000000000000000000FD
:1043C00000000000000000000000000000000000ED
:1043D00000000000000000000000000000000000DD
:1043E00000000000000000000000000000000000CD
:1043F00000000000000000000000000000000000BD
:1044000000000000000000000000000000000000AC
:10441000000000000000000000000000000000009C
:10442000000000000000000000000000000000008C
:104430000700070007000700070007000700020049
:10444000020000000000070007000000000000005C
:10445000000000000000000000001CE01CE01CE068
:104460000840084008400000000000000000000074
:1044700000000000000000000000000000000CC070
:104480000CC00CC00CC00CC03FF03FF00CC00CC006
:104490003FF03FF00CC00CC00CC00CC00CC00000C2
:1044A0000000000000000300030007E00FE01860B8
:1044B00018001F000FC000E0186018601FC01F80A8
:1044C00003000300030000000000000000000000E3
:1044D0001C002200220022001C6001E00F803C0032
:1044E00031C002200220022001C0000000000000B4
:1044F00000000000000000000000000003E00FE0EA
:104500000C000C0006000F301FF019E018C01FF05F
:1045100007B00000000000000000000000000000E4
:1045200000000380038003800100010001000000FF
:10453000000000000000000000000000000000007B
:10454000000000000000000000C000C001800180E9
:104550000180030003000300030003000300018047
:104560000180018000C000C00000000000000000C9
:104570000C000C0006000600060003000300030008
:104580000300030003000600060006000C000C00F8
:1045900000000000000000000300030003001B6097
:1045A0001FE0078007800FC00CC000000000000063
:1045B00000000000000000000000000000000000FB
:1045C0000000000003000300030003003FF03FF081
:1045D00003000300030003000000000000000000CF
:1045E00000000000000000000000000000000000CB
:1045F0000000000000000000000000000380030035
:104600000300060006000400000000000000000097
:104610000000000000000000000000003FE03FE05C
:10462000000000000000000000000000000000008A
:10463000000000000000000000000000000000007A
:104640000000000000000000000000000380038064
:104650000380000000000000000000000000006077
:10466000006000C000C000C00180018003000300A2
:10467000060006000C000C000C00180018000000DA
:1046800000000000000000000F801FC018C0306054
:1046900030603060306030603060306018C01FC003
:1046A0000F8000000000000000000000000000007B
:1046B00003001F001F0003000300030003000300AA
:1046C0000300030003001FE01FE0000000000000E3
:1046D00000000000000000000F801FC038E03060C4
:1046E000006000C00180030006000C0018003FE0DD
:1046F0003FE000000000000000000000000000009B
:104700000F803FC030E0006000E007C007C000E05D
:104710000060006060E07FC03F800000000000009B
:10472000000000000000000001C003C003C006C07C
:104730000CC00CC018C030C03FE03FE000C003E038
:1047400003E0000000000000000000000000000086
:104750001FC01FC0180018001F801FC018E0006095
:104760000060006030E03FC01F80000000000000DB
:10477000000000000000000003E00FE01E00180031
:10478000380037803FC038E03060306018E01FC02C
:104790000780000000000000000000000000000092
:1047A0003FE03FE03060006000C000C000C001801A
:1047B00001800180030003000300000000000000EE
:1047C00000000000000000000F801FC038E03060D3
:1047D00038E01FC01FC038E03060306038E01FC0D4
:1047E0000F8000000000000000000000000000003A
:1047F0000F001FC038C03060306038E01FE00F602D
:1048000000E000C003C03F803E0000000000000048
:104810000000000000000000000000000000000098
:1048200003800380038000000000000003800380F9
:1048300003800000000000000000000000000000F5
:10484000000000000000000001C001C001C0000025
:1048500000000000038003000600060004000000C2
:10486000000000000000000000000000003000F028
:1048700003C007001C0078001C00070003C000F004
:1048800000300000000000000000000000000000F8
:1048900000000000000000007FF07FF0000000003A
:1048A0007FF07FF00000000000000000000000002A
:1048B00000000000000000000000000030003C008C
:1048C0000F00038000E0007800E003800F003C0050
:1048D00030000000000000000000000000000000A8
:1048E00000000F801FC018601860006001C00380C6
:1048F00003000000000007000700000000000000A7
:10490000000000000000000003800C800840104000
:10491000104011C012401240124011C01000080097
:1049200008400780000000000000000000000000B8
:1049300000001F801F80038006C006C00CC00C60F2
:104940001FE01FE030307878787800000000000029
:10495000000000000000000000003F803FC0186021
:10496000186018E01FC01FE01870183018303FF0B2
:104970003FE0000000000000000000000000000018
:10498000000007B00FF01C703830300030003000ED
:10499000300038301C700FE007C00000000000003D
:1049A000000000000000000000007F807FC030E0B9
:1049B00030703030303030303030307030E07FC0E8
:1049C0007F800000000000000000000000000000E8
:1049D00000003FF03FF01830183019801F801F8012
:1049E0001980183018303FF03FF000000000000040
:1049F000000000000000000000003FF03FF0183011
:104A0000183019801F801F801980180018003F007F
:104A10003F00000000000000000000000000000057
:104A2000000007B01FF0187030303000300031F84F
:104A300031F8303018301FF007C0000000000000CF
:104A4000000000000000000000003CF03CF0186096
:104A5000186018601FE01FE01860186018603CF0D4
:104A60003CF000000000000000000000000000001A
:104A700000001FE01FE00300030003000300030029
:104A80000300030003001FE01FE00000000000001F
:104A90000000000000000000000003F803F80060C0
:104AA00000600060006030603060306030E03FC027
:104AB0000F80000000000000000000000000000067
:104AC00000003EF83EF818E019801B001F001D8012
:104AD00018C018C018603E783E3800000000000082
:104AE000000000000000000000003F003F000C003C
:104AF0000C000C000C000C000C300C300C303FF0A3
:104B00003FF0000000000000000000000000000076
:104B100000007878787838703CF034B037B037B02F
:104B20003330333030307CF87CF800000000000077
:104B30000000000000000000000039F03DF01C60A3
:104B40001E601E601B601B6019E019E018E03EE06B
:104B50003E600000000000000000000000000000B7
:104B6000000007800FC01CE038703030303030302B
:104B7000303038701CE00FC00780000000000000DB
:104B8000000000000000000000003FC03FE018707F
:104B90001830183018701FE01FC0180018003F00B0
:104BA0003F000000000000000000000000000000C6
:104BB000000007800FC01CE03870303030303030DB
:104BC000303038701CE00FC0078007B00FF00CE0E9
:104BD000000000000000000000003FC03FE018702F
:104BE000183018701FE01FC018E0186018703E38A9
:104BF0003E1800000000000000000000000000005F
:104C000000000FB01FF03870303038001F8007E010
:104C10000070303038703FE037C000000000000006
:104C2000000000000000000000003FF03FF03330C3
:104C300033303330030003000300030003000FC0D0
:104C40000FC0000000000000000000000000000095
:104C500000003CF03CF018601860186018601860A4
:104C6000186018601CE00FC0078000000000000002
:104C70000000000000000000000078F078F03060D4
:104C8000306018C018C00D800D800D80070007002F
:104C9000070000000000000000000000000000000D
:104CA00000007C7C7C7C301833983398339836D85D
:104CB00016D01C701C701C70183000000000000022
:104CC0000000000000000000000078F078F0306084
:104CD00018C00D80070007000D8018C0306078F004
:104CE00078F000000000000000000000000000005C
:104CF00000003CF03CF018600CC007800780030007
:104D00000300030003000FC00FC0000000000000FC
:104D1000000000000000000000001FE01FE018601D
:104D200018C001800300030006000C6018601FE03B
:104D30001FE0000000000000000000000000000074
:104D400003C003C0030003000300030003000300CB
:104D500003000300030003000300030003C003C0BB
:104D6000000000000000180018000C000C000C00EF
:104D700006000600030003000180018000C000C09F
:104D800000C00060006000000000000000000000A3
:104D90000F000F00030003000300030003000300E3
:104DA0000300030003000300030003000F000F00D3
:104DB0000000000000000000020007000D8018C085
:104DC0003060202000000000000000000000000013
:104DD00000000000000000000000000000000000D3
:104DE00000000000000000000000000000000000C3
:104DF00000000000000000000000000000000000B3
:104E00000000FFFCFFFC0000040003000080000025
:104E10000000000000000000000000000000000092
:104E20000000000000000000000000000000000082
:104E300000000000000000000FC01FE000600FE055
:104E40001FE0386030E03FF01F70000000000000FD
:104E50000000000000000000700070003000300012
:104E600037803FE0386030303030303038607FE0BD
:104E7000778000000000000000000000000000003B
:104E8000000000000000000007B01FF018303030B4
:104E90003000300038301FF00FC00000000000006C
:104EA00000000000000000000070007000300030C2
:104EB00007B01FF0187030303030303038701FF8C5
:104EC00007B8000000000000000000000000000023
:104ED000000000000000000007801FE018603FF0A5
:104EE0003FF0300018301FF007C000000000000045
:104EF000000000000000000003F007F006000600BC
:104F00001FE01FE0060006000600060006001FE086
:104F10001FE0000000000000000000000000000092
:104F2000000000000000000007B81FF818703030C3
:104F30003030303018701FF007B0003000700FE0D4
:104F40000FC00000000000003800380018001800F2
:104F50001BC01FE01C6018601860186018603CF0EF
:104F60003CF0000000000000000000000000000015
:104F700003000300000000001F001F0003000300E7
:104F80000300030003001FE01FE00000000000001A
:104F9000000000000000000003000300000000000B
:104FA0001FC01FC000C000C000C000C000C000C0C3
:104FB00000C000C001C03F803F00000000000000B2
:104FC00038003800180018001BE01BE01B001E0012
:104FD0001E001B00198039F039F0000000000000AD
:104FE00000000000000000001F001F00030003007D
:104FF00003000300030003000300030003001FE09D
:105000001FE00000000000000000000000000000A1
:1050100000000000000000007EE07FF033303330FD
:105020003330333033307BB87BB8000000000000F1
:105030000000000000000000000000000000000070
:105040003BC03FE01C6018601860186018603CF0BE
:105050003CF0000000000000000000000000000024
:10506000000000000000000007801FE018603030E2
:105070003030303018601FE0078000000000000072
:105080000000000000000000000000000000000020
:1050900077807FE0386030303030303038603FE04B
:1050A0003780300030007C007C00000000000000F1
:1050B000000000000000000007B81FF81870303032
:1050C0003030303018701FF007B00030003000F87A
:1050D00000F80000000000000000000000000000D8
:1050E0003CE03DF00F300E000C000C000C003FC007
:1050F0003FC00000000000000000000000000000B1
:10510000000000000000000007E01FE018601E0023
:105110000FC001E018601FE01F80000000000000C9
:10512000000000000000000000000C000C000C005B
:105130003FE03FE00C000C000C000C000C300FF0C6
:1051400007C0000000000000000000000000000098
:10515000000000000000000038E038E0186018602F
:105160001860186018E01FF00F70000000000000C9
:10517000000000000000000000000000000000002F
:1051800078F078F0306018C018C00D800D800700EE
:105190000700000000000000000000000000000008
:1051A000000000000000000078F078F0326032600B
:1051B00037E01DC01DC018C018C00000000000006E
:1051C00000000000000000000000000000000000DF
:1051D0003CF03CF00CC00780030007800CC03CF0A2
:1051E0003CF0000000000000000000000000000093
:1051F000000000000000000078F078F0306018C077
:1052000018C00D800F800700060006000C007F000C
:105210007F0000000000000000000000000000000F
:105220001FE01FE018C00180030006000C601FE0B3
:105230001FE000000000000000000000000000006F
:1052400001C003C0030003000300030003000700C4
:105250000E000700030003000300030003C001C0A9
:105260000000000000000000030003000300030032
:105270000300030003000300030003000300030016
:105280000300030003000300000000000000000012
:105290001C001E00060006000600060006000700AF
:1052A0000380070006000600060006001E001C0022
:1052B00000000000000000000000000000000000EE
:1052C00000000E003F3033F001E00000000000005D
:1052D00000000000000000000000000000000000CE
:1052E0000000000000000102030406070809000096
:1052F000000001020304000044656275673A205013
:1053000061696E745F44726177537472696E675F2E
:10531000454E20496E7075742065786365656473C9
:1053200020746865206E6F726D616C2064697370A3
:105330006C61792072616E67650D0A004465627563
:10534000673A205061696E745F4472617743697295
:10535000636C6520496E707574206578636565645B
:105360007320746865206E6F726D616C2064697360
:10537000706C61792072616E67650D0A0000000033
:10538000A053000800000020300000001C2100088D
:10539000D053000830000020B0A000002C210008ED
:1053A000303E000809000B001000150006440008FC
:1053B0000E001400010000001000000000000000BA
:1053C00000A24A04000000000000000000000000ED
:0400000508000131BD
:00000001FF
