:020000040800F2
:10000000F8A00020450100087B1300087B120008BF
:1000100079130008DD0100087921000800000000C4
:10002000000000000000000000000000E51E0008C5
:10003000F9010008000000002D1E0008E71E00085E
:100040005F0100085F0100085F0100085F01000810
:100050005F0100085F0100085F0100085F01000800
:100060005F0100085F0100085F0100085F010008F0
:100070005F0100085F0100085F0100085F010008E0
:100080005F0100085F0100085F0100085F010008D0
:100090005F0100085F0100085F0100085F010008C0
:1000A0005F0100085F0100085F0100085F010008B0
:1000B0005F0100085F0100085F0100085F010008A0
:1000C0005F0100085F0100085F0100085F01000890
:1000D0005F0100085F0100085F0100085F01000880
:1000E0005F0100085F0100085F0100085F01000870
:1000F0005F0100085F0100085F0100085F01000860
:100100005F0100085F0100085F0100085F0100084F
:100110005F0100085F0100085F0100085F0100083F
:100120005F0100085F0100085F0100085F0100082F
:10013000DFF80CD000F040F800480047DD2300084D
:10014000F8A000200648804706480047FEE7FEE783
:10015000FEE7FEE7FEE7FEE7FEE7FEE7FEE7FEE777
:100160005D1F000831010008D2B201E000F8012B48
:10017000491EFBD270470022F6E710B513460A4627
:1001800004461946FFF7F0FF204610BD30B50B4678
:10019000014600202022012409E021FA02F59D42B7
:1001A00005D303FA02F5491B04FA02F52844151E8B
:1001B000A2F10102F1DC30BD064C074D06E0E0681B
:1001C00040F0010394E8070098471034AC42F6D39E
:1001D000FFF7B2FFD4800008F4800008FEE70000BB
:1001E00001B54FF47A7301226946024800F0B2FE6D
:1001F00008BD00005C00002070472DE9F041192582
:10020000C826102000F02AF9022000F0F5F9002796
:100210000024FF2000F03CF9FF2000F039F9641CB5
:10022000A4B2AC42F5D37F1CBFB2B742F0D30220D8
:1002300000F0E2F9132000F011F9022000F0DCF9DF
:1002400000270024FF2000F023F9641CA4B2AC4274
:10025000F8D37F1CBFB2B742F3D3022000F0CCF931
:10026000122000F0FBF8BDE8F04100F093B9000067
:100270002DE9F34F81B0C82000901926102000F01E
:10028000EDF800244FF0800A4FF0C00B002504FB6E
:1002900006F9019A00205719014619F80730D4468B
:1002A0002CFA01F2E246134204D04FEA41082BFA3D
:1002B00008F21043491C0429F2DB00F0E9F80020A1
:1002C00019F80730042152464FEA0B0C22FA01F7C5
:1002D0003B4206D04FEA4108A8F108082CFA08F77B
:1002E0003843491C0829F1DB00F0D2F86D1CADB28F
:1002F000B542CED3641C0098A4B28442C6D3022077
:1003000000F07AF9132000F0A9F80024002504FB7E
:1003100006F702982844385C00F0BAF86D1CADB2BC
:10032000B542F6D3641C0098A4B28442EED30220F6
:1003300000F062F9122000F091F8BDE8FE4F00F0E5
:1003400029B9000070B5434C01220221204600F07B
:100350005EFAC82000F050F900220221204600F089
:1003600056FAC82000F048F901220221204600F088
:100370004EFAC82000F040F9012000F06FF8072085
:1003800000F086F8002000F083F8082000F080F8E4
:10039000002000F07DF8062000F060F8072000F053
:1003A00077F8072000F074F8072000F071F80420B7
:1003B00000F054F800F0EEF8002000F04FF8CF20E5
:1003C00000F066F8502000F049F8F02000F060F8E6
:1003D000302000F043F8392000F05AF8612000F096
:1003E0003DF8C82000F054F8002000F051F8C82073
:1003F00000F04EF8822000F031F80E2000F048F8AE
:1004000000F060F8252000F029F8134D0024285D45
:1004100000F03EF8641CA4B20F2CF8D3262000F0A4
:100420001DF80D4D00240F35285D00F031F8641CD7
:10043000A4B20F2CF8D3272000F010F8064D0024AA
:100440001E35285D00F024F8641CA4B20F2CF8D3EC
:10045000002070BD00080140434F000870B50B4CF0
:10046000054600220421204600F0D1F90022102187
:10047000204600F0CCF92846FFF7B2FE2046BDE842
:1004800070400122102100F0C2B9000000080140B4
:1004900070B50B4C054601220421204600F0B7F947
:1004A00000221021204600F0B2F92846FFF798FEFE
:1004B0002046BDE870400122102100F0A8B90000DC
:1004C0000008014070B52020FFF7C8FF1E4D002432
:1004D000285DFFF7DDFF641CA4B20F2CF8D32120A8
:1004E000FFF7BCFF184D00240F35285DFFF7D0FF44
:1004F000641CA4B20F2CF8D32220FFF7AFFF124DDB
:1005000000241E35285DFFF7C3FF641CA4B20F2C26
:10051000F8D32320FFF7A2FF0B4D00242D35285DD3
:10052000FFF7B6FF641CA4B20F2CF8D32420FFF70A
:1005300095FF054D00243C35285DFFF7A9FF641C9D
:10054000A4B20F2CF8D370BDF84E000810B550209F
:10055000FFF784FF1720FFF79BFF8220FFF77EFF46
:100560000020FFF795FF0120FFF778FF0220FFF73B
:100570008FFF0020FFF78CFF0020FFF789FF00208E
:10058000FFF786FF00F006F8BDE810400220FFF7F5
:1005900065BF000010B509A001F0F0FD0D4C082169
:1005A000204600F02FF90128F9D1C82000F024F8E6
:1005B000BDE8104008A001F0E1BD0000446562758F
:1005C000673A20652D506170657220627573790DF0
:1005D0000A0000000008014044656275673A206522
:1005E0002D506170657220627573792072656C653B
:1005F0006173650D0A00000070B5044600F00CF947
:100600000546601C02D004480078044400F004F958
:10061000401BA042FAD370BD280000202DE9F84FFE
:10062000DFF8B8A100220AF1040B144601274FF0AD
:100630000F090BF1040E00BF0B6807FA04F52B40FD
:10064000AB4274D1DFF898C14E68A6EB0C08664542
:100650002BD00DDC032E34D005DC36B3012E19D09F
:10066000022E2FD11BE0112E16D0122E2AD119E006
:10067000B8F5881F19D006DCB8F5803F15D0B8F55D
:10068000801F1FD111E0B8F5001F0ED0B8F5041F70
:1006900018D10AE0CA6815E0CA68121D12E0CA68DB
:1006A00008320FE0CA680C320CE08A682AB1012ACD
:1006B0004FF0080203D0456104E0042202E0056126
:1006C00000E00022FF2B01D8064601E000F10406FD
:1006D0004FEA840501D9A5F12005D6F800C009FA32
:1006E00005F82CEA080C02FA05F54CEA050CC6F8E8
:1006F00000C04D68ED006AD53A4DAE6946F001067E
:10070000AE61AD6924F0030605F001050095364D94
:1007100006EB050CDCF80850A6074FEA167809FA34
:1007200008F6B543314EB04202D100261AE04EE041
:100730002F4EB04201D1012614E02E4EB04201D11D
:1007400002260FE02C4EB04201D103260AE02B4EC8
:10075000B04201D1042605E0294EB04201D1052660
:1007600000E0062606FA08F62E43CCF808604D682D
:10077000DAF80060ED03554601D51E4300E09E43C4
:100780002E604D68AD0305D5DBF800601E43CBF845
:10079000006004E0DBF800509D43CBF800504D684A
:1007A000DEF80060ED02754601D51E4300E09E4371
:1007B0002E604D68AD0205D5084D0C352E681E43E0
:1007C0002E6004E0054E0C3635689D433560641C90
:1007D000102CFFF431AFBDE8F88F00000004014099
:1007E000000011100010024000000140000801400C
:1007F000000C0140001001400014014000180140AD
:10080000001C01408068084000D0012070470AB1F8
:10081000016170470904FBE70148806870470000E8
:1008200028000020024881680278114481607047E6
:1008300028000020074810B5016841F01001016050
:10084000032000F089F8002000F006F800F024F8FA
:10085000002010BD0020024070B50D4D04464FF43D
:100860007A712878B1FBF0F00A490968B1FBF0F021
:1008700000F031FC48B9102C07D200222146501E4E
:1008800000F04AF800206C6070BD012070BD0000CF
:1008900028000020340000201D4808B5816941F07F
:1008A00001018161806900F001000090032000F0E7
:1008B00053F8002211466FF00B0000F02DF80022D3
:1008C00011466FF00A0000F027F8002211466FF081
:1008D000090000F021F800221146501F00F01CF81A
:1008E00000221146101F00F017F800221146901E3A
:1008F00000F012F800221146501E00F00DF80548D5
:10090000416821F0E06141F00071416008BD0000E4
:100910000010024000000140F0B40E4B1B680C4672
:10092000C3F30223C3F10705042D00D90425191DC3
:10093000072901D2002300E0DB1E012606FA05F19B
:10094000491E214099409E40761E16403143F0BC1E
:1009500000F014BD0CED00E0064900F00702086845
:100960004FF6FF03184040EA0220034A1043086094
:10097000704700000CED00E00000FA052DE9F0479B
:10098000DFF83C8105460E46D8F8000000F007006D
:10099000B0420CD2D8F8001021F007013143C8F85A
:1009A0000010D8F8000000F00700B04263D12878AA
:1009B000444C800705D56068A96820F0F000084322
:1009C00060602878C00745D06868012816D0216883
:1009D000022816D0890700294DDA616821F0030149
:1009E00001436160FFF718FF6968074641F28830EC
:1009F00001290FD00229814619D027E021688903F7
:100A0000E9E78901E7E700BFFFF706FFC11B49459A
:100A100001D918E081466068C0F381000128F3D154
:100A200018E000BFFFF7F8FEC11B49450BD860680E
:100A3000C0F381000228F5D10CE000BFFFF7ECFE07
:100A4000C11B494502D90320BDE8F087606810F05A
:100A50000C0FF3D1D8F80010404601F00701B14265
:100A60000BD9016821F0070131430160006800F0F3
:100A70000700B04201D00120E6E72878400705D5FD
:100A80006068E96820F4E060084360602878000747
:100A900006D56068296920F4605040EAC1006060B2
:100AA00000F03CF86168084AC1F30311515CC8408A
:100AB000064908600020FFF7CFFE0020C4E70000D1
:100AC0000020024000100240348000083400002062
:100AD00001480068704700003400002004480549C0
:100AE00000684968044AC1F30221515CC84070475C
:100AF00034000020001002404480000804480549EA
:100B000000684968044AC1F3C221515CC84070477B
:100B100034000020001002404480000812A185B07B
:100B20000FC98DE80F0014A0144A006804905168A2
:100B3000134801F00C03042B10D0082B0ED1C1F385
:100B40008343C9031DF803000AD5516804AAC1F301
:100B50004041515C0A4A5043B0FBF1F005B0704788
:100B600008494843FAE7000002030405060708099C
:100B70000A0B0C0D0E0F10100102000000100240B5
:100B800000127A0000093D002DE9F84F0446007874
:100B9000B94DC00748D06868C0F38100012807D06C
:100BA0006868C0F38100022809D16868C00306D5CF
:100BB0002868800338D5606800286FD034E060680A
:100BC000B0F5803F0BD010B1B0F5A02F11D0286840
:100BD00020F480302860286820F4802002E0286813
:100BE00040F480302860606888B1FFF715FE064643
:100BF00009E0286840F480202860F0E7FFF70CFE49
:100C0000801B642875D828688003F7D50CE0FFF7AF
:100C100003FE064605E000BFFFF7FEFD801B6428CB
:100C2000F0D828688003F7D42078944E80074FF0DE
:100C300001094FF000083BD5686810F00C0F07D091
:100C40006868C0F38100022809D16868C00306D42F
:100C50002868800714D5206901281FD110E0206979
:100C6000B0B1C6F80090FFF7D7FD074605E000BF1A
:100C7000FFF7D2FDC01B0228C4D828688007F7D52B
:100C80002868616920F0F80040EAC10028600FE0A0
:100C9000C6F80080FFF7C0FD074606E0E9E000BFA8
:100CA000FFF7BAFDC01B022823D828688007F7D4B5
:100CB000207800072CD57248A169D9B1C0F80090FE
:100CC000FFF7AAFD074604E0FFF7A6FDC01B0228B8
:100CD0000FD8686A8007F7D56A484FF4FA51006860
:100CE000B0FBF1F0009000BF0098411E0091FAD2D5
:100CF0000EE080E0C0F80080FFF78EFD074604E0BC
:100D0000FFF78AFDC01B022875D8686A8007F7D4F0
:100D10002078400760D5E8690027C00008D4E8695A
:100D200040F08050E861E869012700F080500090B1
:100D300055480168C90513D40168834641F48071A0
:100D40000160FFF769FD824606E000BFFFF764FD22
:100D5000A0EB0A0064284ED8DBF80000C005F5D5EA
:100D6000E06801280AD008B1052813D0286A20F0CD
:100D700001002862286A20F0040002E0286A40F09E
:100D800001002862E06841F2883B98B1FFF744FD1A
:100D900082460BE0286A40F004002862EEE700BFBC
:100DA000FFF73AFDA0EB0A0159455AD8286A800797
:100DB000F6D50CE0FFF730FD824605E0FFF72CFD8D
:100DC000A0EB0A0159454CD8286A8007F6D41FB118
:100DD000E86920F08050E861E06988B36968C1F390
:100DE0008101022945D00228C6F8608004D0FFF7AF
:100DF00013FD044638E034E0FFF70EFD074604E03B
:100E0000FFF70AFDC01B02282BD828688001F7D401
:100E1000206AB0F5803F05D16868A16820F40030F1
:100E200008436860D4E908010843696821F4741133
:100E300008436860C6F86090FFF7EEFC044606E0E1
:100E400015E000BFFFF7E8FC001B022809D828685E
:100E50008001F7D50BE000BFFFF7DEFC001B022886
:100E600002D90320BDE8F88F28688001F4D400205F
:100E7000F8E70120F6E700000010024000004242BF
:100E800080044242340000200070004070B504002D
:100E900005D00025A56294F8510010B104E00120AE
:100EA00070BD204600F034F8022084F8510020681C
:100EB000016821F040010160D4E901010843D4E94F
:100EC00003121143084361690843218B01F4007147
:100ED0000843E1690843216A0843A16A084321687D
:100EE0000860A069042101EA1040616A0843216892
:100EF00048602168E06A08612068C16921F40061E6
:100F0000C1616565012084F85100002070BD0000BA
:100F100000B500680C4985B0884212D10B48816940
:100F200041F4805181618069694600F480500490E9
:100F3000A020009002200190032003900448FFF7B6
:100F40006DFB05B000BD0000003001400010024004
:100F5000000801402DE9F84F044690F850000026A3
:100F6000994617460D4601280DD04FF0010B84F825
:100F700050B0FFF751FC804694F85100B24601286A
:100F800004D0022694E00220BDE8F88F002D7BD02B
:100F9000002F79D0032084F85100C4F854A02563B1
:100FA000A786E786C4F838A0A4F83CA0A4F83EA021
:100FB000C4F844A0C4F840A0A068B0F5004F04D124
:100FC0002068016841F48041016020680168490699
:100FD00003D4016841F040010160E068B0F5006FA2
:100FE000606804D030B3E08E012823D03EE010B119
:100FF000E08E01281AD135F8021B206805E0206830
:101000008168890706D535F8021BC160E08E401E55
:10101000E0860BE0B9F1000F34D0B9F1FF3F05D005
:10102000FFF7FAFBA0EB080149452BD2E08E002820
:10103000E5D11EE0216815F8010B087306E0206871
:101040008168890706D515F8011B0173E08E401EE3
:10105000E0860BE0B9F1000F14D0B9F1FF3F05D0E5
:10106000FFF7DAFBA0EB080149450BD2E08E002820
:10107000E5D14B46012202212046CDF8008000F048
:10108000E6FE10B1032613E011E042464946204631
:1010900000F0CDFE18B101262020606508E0A068B0
:1010A00018B92068C16880680090606D00B10126A1
:1010B00084F851B084F850A0304665E74FF0E02145
:1010C0000428086903D020F004000861704740F04C
:1010D0000400FAE7704710B5401EB0F1807F01D3DD
:1010E000012010BD4FF0E02460610F21601700F077
:1010F00045F90020A06107202061002010BD10B537
:10110000FFF7E8FF10BD70B5040004D094F8390073
:10111000002510B106E0012070BD84F8385020464B
:1011200000F022F8242084F839002068C16821F4F6
:101130000051C160204600F035FF2068016921F4AC
:10114000904101612068416921F02A0141612068D4
:10115000C16841F40051C160E563202084F8390082
:1011600084F83A00002070BD10B50068114986B0BF
:1011700088421DD11048816941F4804181618069B4
:101180000E4C00F4804004904FF400700090022058
:1011900001900320039069462046FFF73FFA0021A3
:1011A0002015CDE90001029169462046FFF736FA85
:1011B00006B010BD00380140001002400008014098
:1011C0002DE9F843044690F839001F4616460D46AF
:1011D000202850D1A5B19EB194F8380001284AD0FA
:1011E000012084F838004FF00008C4F83C8021202A
:1011F00084F83900FFF710FBA6848146E68426E0D8
:101200000120BDE8F883E08C401EE084A0684B46D6
:10121000B0F5805F4FF000024FF08001204600974C
:1012200003D000F077FFE8B90DE000F073FFC8B914
:1012300028882168C0F308004860206908B16D1C47
:1012400005E0AD1C03E0216815F8010B4860E08C57
:101250000028D8D14B46002240212046009700F0BC
:1012600059FF08B10320CCE7202084F8390084F826
:1012700038800020C5E70220C3E7FEE7124810B51A
:10128000816986B041F00401816180690F4C00F0F2
:1012900004000490002216212046FFF7B8FA162019
:1012A0000090012001900220039069462046FFF73C
:1012B000B5F900210820CDE90001029169462046D8
:1012C000FFF7ACF906B010BD001002400008014065
:1012D000114810B50F4901604FF48271416000213F
:1012E0008160C1604FF400720161C0E905122822DB
:1012F000C0E90721416281620A21C162FFF7C6FD90
:10130000002805D0BDE81040272104A000F035BF1B
:1013100010BD0000003001405C0000202E2E2F5335
:1013200072632F7370692E63000000000D4810B5C2
:101330000B4901604FF4E1314160002181600C22D2
:10134000C160C0E904128161C161FFF7DCFE0028C1
:1013500005D0BDE81040242103A000F00EBF10BD51
:1013600000380140B40000202E2E2F5372632F75D9
:10137000736172742E630000FEE770470907090E5F
:10138000002806DA00F00F0000F1E02080F8141DBC
:10139000704700F1E02080F80014704730B500215C
:1013A0000A4AC3B20DE0002006E000BF01FB0404BE
:1013B0001568401C80B22B55548A8442F6D8491CCB
:1013C00089B2908A8842EED830BD000044000020E7
:1013D00070B50022094B0DE0002106E002FB041469
:1013E0001E68055D491C355589B25C8A8C42F5D86A
:1013F000521C92B2998A9142EED870BD44000020EE
:101400002DE9F05F81462A481E46DDF828B0838822
:1014100088464B4502D3C188414504D2BDE8F05F00
:1014200024A000F0ABBEB088410700D0012101EB41
:10143000D000203AF1885043484331684FF0800A89
:101440000F1800252FE0002424E000BFBBF1FF0FA0
:101450003A7804F007012AFA01F002EA000201D00A
:101460000AB908E082B108EB050081B209EB04007B
:1014700080B20B9A06E008EB050081B209EB04008C
:1014800080B25A4600F06AFCE043400700D17F1C5E
:10149000641CA4B2B088A042D8D83079400700D0EC
:1014A0007F1C6D1CADB2F088A842CCD8BDE8F09F7F
:1014B0004400002044656275673A205061696E748B
:1014C0005F447261774368617220496E7075742061
:1014D0006578636565647320746865206E6F726DEE
:1014E000616C20646973706C61792072616E6765EC
:1014F0000D0A00002DE9FF4F8046834885B00F4656
:1015000084881299444502D3C088B84205D809B0EE
:101510007E48BDE8F04F00F031BE03200024A0EB70
:10152000420015B20FFA80FA01297AD0E9E0264686
:1015300061E000BF4FF0010908EB040007EB060B68
:1015400002901FFA8BF1CDF8009080B24B46089ABA
:1015500000F0CEF9A8EB040004901FFA8BF1CDF84F
:10156000009080B20123089A00F0C2F93819CDE941
:10157000009081B2A8EB060B1FFA8BF00123089AAA
:1015800000F0B6F9381B039081B2CDF800901FFA35
:101590008BF00123089A00F0ABF90498A7EB060B37
:1015A0001FFA8BF1CDF8009080B20123089A00F069
:1015B0009FF902981FFA8BF1CDF8009080B20123B9
:1015C000089A00F095F9039808EB060B81B2CDF864
:1015D00000901FFA8BF00123089A00F089F9019816
:1015E000CDF8009081B21FFA8BF00123089A00F029
:1015F0007FF9761C36B2AE429CDDBAF1000F06DAF6
:101600000AEB8400801D0FFA80FA08E009E0611BF4
:101610000AEB81000A306D1E0FFA80FA2DB2641CAD
:1016200024B2AC4283DD09B0BDE8F08F08EB0400C2
:10163000012607EB050902901FFA89F1009680B296
:10164000139B089A00F054F9A8EB040003901FFACA
:1016500089F1009680B2139B089A00F049F9381975
:10166000CDE9006081B2A8EB05091FFA89F0139B50
:10167000089A00F03DF9A7EB040B1FFA8BF11FFA53
:1016800089F00096139B089A00F032F90398A7EBB3
:1016900005091FFA89F1009680B2139B089A00F0A1
:1016A00027F902981FFA89F1009680B2139B089AD5
:1016B00000F01EF908EB05091FFA8BF11FFA89F0FB
:1016C0000096139B089A00F013F90198009681B2D6
:1016D0001FFA89F0139B089A00F00AF9BAF1000F7B
:1016E00005DA0AEB8400801D0FFA80FA07E0611B1F
:1016F0000AEB81000A306D1E0FFA80FA2DB2641CCD
:1017000024B2AC4292DD8EE74400002090800008B5
:101710002DE9FE4F1D46304B16469A88824206D36D
:10172000DB888B4203D3B24201D3AB4204D2BDE883
:10173000FE4F2AA000F022BD83468A46321A00D509
:10174000821B91466A1A002A00DD4A1B90464FF020
:10175000FF32B34501D2012000E010460290AA45B5
:1017600000D2012209EB0804002701927F1C0D988A
:10177000FFB2012805D10320B7FBF0F100FB117087
:10178000F0B101200090514658460E9B0C9A00F093
:10179000AFF800BFB8EB440F06DCB3451AD002988F
:1017A000444458441FFA80FBB9EB440FDEDBAA45E2
:1017B00010D001994C440AEB01001FFA80FAD5E7DA
:1017C00001200090FF22514658460E9B00F090F8F1
:1017D0000027DFE7BDE8FE8F440000204465627506
:1017E000673A205061696E745F447261774C696E2C
:1017F0006520496E70757420657863656564732033
:10180000746865206E6F726D616C20646973706CB2
:1018100061792072616E67650D0A00002DE9FF4F46
:10182000ADF5037D8846DDE990BA814600244FF48A
:10183000807715462646394642A8FEF79CFC394675
:1018400002A8FEF798FC194842AA83884B4503D3A7
:10185000C38802A8434512D215A000F08FFC0DF5F5
:10186000077DBDE8F08F00BF95FBF1F301FB13533B
:1018700095FBF1F530330355641C24B200E00A21D6
:10188000002DF1D11146002C08DD031913F8013C9D
:101890008B55761C641E36B224B2F4E7CDE900BA4B
:1018A00041464846869B00F0CBF9D8E7440000202B
:1018B00044656275673A205061696E745F4469736C
:1018C0004E756D20496E707574206578636565642A
:1018D0007320746865206E6F726D616C206469732B
:1018E000706C61792072616E67650D0A00000000FE
:1018F0002DE9F05F814626481C46884683880A9970
:1019000093464B4502D3C288424504D2BDE8F05FFE
:1019100020A000F033BC012901D0002634E00025CE
:10192000681E00EB440718E009EB05000026A0EB59
:10193000040A0EE0BAF1000F0DD408EB0600001BFC
:1019400009D481B21FFA8AF05A4600F007FA761CD1
:1019500036B2B742EEDC6D1C2DB2AF42E4DCBDE81E
:10196000F09F002509EB06077F1E09E008EB050044
:10197000401E81B2B8B25A4600F0F0F96D1C2DB28B
:10198000A542F3DB761C36B2A642EADBE7E70000AD
:101990004400002044656275673A205061696E74A6
:1019A0005F44726177506F696E7420496E70757410
:1019B000206578636565647320746865206E6F7256
:1019C0006D616C20646973706C61792072616E67FF
:1019D000650D0A002DE9FE4F8246274891460C46C8
:1019E000DDE90D2581880C9E1F46514506D3C08830
:1019F000A04203D3494501D3B84204D2BDE8FE4F0B
:101A00001EA000F0BBBB002080465AB90EE0009635
:101A1000CDE9018523464A4619465046FFF778FE30
:101A2000641CA4B2BC42F2D3BDE8FE8F0096CDE99F
:101A3000018523464A4619465046FFF769FE00963F
:101A4000CDE9018552463B4621461046FFF760FE30
:101A50000096CDE901854A46234639461046FFF7F0
:101A600057FE0096CDE901853B4652461946484649
:101A7000FFF74EFED8E70000440000204465627581
:101A8000673A20496E707574206578636565647384
:101A900020746865206E6F726D616C20646973706C
:101AA0006C61792072616E67650D0A002DE9F05F47
:101AB0001D46904606468A46DDF828B0B6E07F29E6
:101AC0004FF0000054D8AA884CE053232C684343BD
:101AD00014F813308B4244D153214843022101EBC7
:101AE000400004EB0009002737E000242CE000BF91
:101AF0004FEAE47004EB507020F00700A4EB000202
:101B0000BBF1FF0F99F800104FF0800020FA02F0AF
:101B100001EA000101D009B907E071B10AEB070041
:101B200081B2301980B20B9A05E00AEB070081B24E
:101B3000301980B25A4600F011F940482040072879
:101B400001D109F10109641C2889A042D0DC287A5E
:101B5000400701D009F101097F1C6889B842C4DC43
:101B600002E0401C8242B0DC08F10108E8885CE039
:101B70000127AB8854E053222C68424314F812C06A
:101B80008C454CD107EB4202A45C98F801209442AA
:101B900045D1532250430222296802EB400001EB59
:101BA0000009002737E000242CE000BF4FEAE47072
:101BB00004EB507020F00700A4EB0002BBF1FF0F14
:101BC00099F800104FF0800020FA02F001EA0001BD
:101BD00001D009B907E071B10AEB070081B23019F1
:101BE00080B20B9A05E00AEB070081B2301980B28F
:101BF0005A4600F0B3F811482040072801D109F1F6
:101C00000109641C2889A042D0DC287A400701D051
:101C100009F101097F1C6889B842C4DC02E0401C5C
:101C20008342A8DC288908F10208064498F80010CD
:101C300000297FF444AFBDE8F09F0000070000805A
:101C40002DE9FC5F80461B4889460D468188444645
:101C5000DDF834B01E461746A14203D3C188824640
:101C6000A94222D2BDE8FC5F134800F087BAB088D1
:101C7000BAF804300119994203D9F188444629443D
:101C80008DB2F188BAF806002944814201D9444650
:101C90004D460C99CDE9001B334629462046FFF7F7
:101CA000AFFBB0887F1C204484B23A78002ADED192
:101CB000BDE8FC9F440000204C8000082DE9F04165
:101CC000134C0E460699206026816281A1811F4631
:101CD00015464FF0000870074FEAD60100D0491CA6
:101CE0006182A5822A460BA000F048FA0F2112A0BB
:101CF00000F044FAE781A4F810802FB1B42F03D08C
:101D0000A580E680BDE8F081A680E580FAE70000C6
:101D100044000020576964746842797465203D204E
:101D200025642C2048656967687442797465203D94
:101D30002025640D0A000000204550445F574944A7
:101D40005448202F2038203D2025640D0A00000033
:101D5000014908607047000044000020F0B4284C9E
:101D6000A388834234D3E3888B4231D32346E78967
:101D70001E895D89CFB15A2F1AD0B42F1CD0B7F568
:101D8000877F38D10B46281A401E80B2218AD9B1EC
:101D9000012916D0022904D003292CD1F11A491E99
:101DA0008BB2281A401E80B20EE003460846EDE7CB
:101DB000711A491E8BB2E9E7301A401E83B2681AC5
:101DC000E2E7F11A491E8BB29E4201D3854203D24B
:101DD000F0BC0CA000F0D2B9618A414301EBD305FD
:101DE00021688020002A4C5D03F0070220FA02F0EF
:101DF00003D020434855F0BC704784434C55FAE764
:101E00004400002044656275673A20457863656543
:101E100064696E6720646973706C617920626F75A4
:101E20006E6461726965730D0A000000704738B511
:101E30000B46009204460022802100F008F800289A
:101E400004D0606D40F020006065032038BD2DE9AE
:101E5000F0411D4617460E460446DDF8188035E071
:101E6000681C33D02DB1FEF7D7FCA0EB0800A842C8
:101E70002CD32068416821F0E00141606068B0F532
:101E8000827F0BD1A068B0F5004F02D0B0F5806F13
:101E900004D12068016821F040010160A06AB0F51A
:101EA000005F0AD1206801684DF6FF7211400160A1
:101EB0002068016841F400510160012084F851005C
:101EC000002084F850000320BDE8F081206880687D
:101ED00036EA000004D00020B842C1D10020F3E768
:101EE0000120F9E7704710B5FEF79CFCBDE81040F3
:101EF000FFF705B930B58FB001210804CDE9001016
:101F00000024029402250491CDE907504FF4E0101B
:101F100009906846FEF738FE00B1FEE70F20CDE9D4
:101F20000A054FF48060CDE90C4002210AA80E9406
:101F3000FEF724FD00B1FEE7FEF7CAFD4FF47A710B
:101F4000B0FBF1F0FFF7C7F80420FFF7B7F8002265
:101F50001146501EFEF7E0FC0FB030BD0D48016881
:101F600041F00101016041680B4A11404160016884
:101F70000A4A11400160016821F480210160416832
:101F800021F4FE0141604FF41F0181600449C00348
:101F900008607047001002400000FFF8FFFFF6FEE7
:101FA00008ED00E02DE9F041044600680169E268AF
:101FB00021F44051114301612169A068084361691E
:101FC00008432168CA6841F20C639A430243CA601D
:101FD00020684169A26921F44071114341614C4973
:101FE00020686425322688423CD1FEF787FD00EB4D
:101FF000C00101EB001061688900B0FBF1F7FEF74A
:102000007DFD00EBC00101EB00106168B046890066
:10201000B0FBF1F0B0FBF5F06FF01801484307EBAF
:10202000800106EB0110B0FBF5F000F0F006FEF7C2
:1020300065FD00EBC00101EB001061688900B0FB99
:10204000F1F0B0FBF5F006EB0016FEF757FD00EBE4
:10205000C00101EB001061688900B0FBF1F7FEF7E9
:102060004DFD3BE0FEF73AFD00EBC00101EB001037
:1020700061688900B0FBF1F7FEF730FD00EBC001AD
:1020800001EB00106168B0468900B0FBF1F0B0FBD5
:10209000F5F06FF01801484307EB800106EB0110E3
:1020A000B0FBF5F000F0F006FEF718FD00EBC00104
:1020B00001EB001061688900B0FBF1F0B0FBF5F0B6
:1020C00006EB0016FEF70AFD00EBC00101EB001065
:1020D00061688900B0FBF1F7FEF700FD00EBC0017D
:1020E00001EB001061688900B0FBF1F0B0FBF5F086
:1020F0006FF01801484307EB800108EB0110B0FBBB
:10210000F5F0216800F00F0030448860BDE8F081F0
:10211000003801402DE9F041984617460E46044626
:10212000069D1DE0681C1BD02DB1FEF775FBA0EBD2
:102130000800A84214D92068C16821F4D071C16098
:102140002068416921F001014161202084F83900B3
:1021500084F83A00002084F838000320BDE8F081BC
:102160002068006836EA000004D00020B842D9D0C8
:102170000020F3E70120F9E7FEE7FEE70FB4054B87
:1021800010B503A9044A029800F018F810BC5DF8D5
:1021900014FB0000752300083800002002E008C886
:1021A000121F08C1002AFAD170477047002001E0D1
:1021B00001C1121F002AFBD1704700002DE9FF4F1B
:1021C0008BB09A460F460546002606E025280BD020
:1021D00052460D9990476D1C761C28780028F5D141
:1021E0000FB03046BDE8F08F0024A04601226049C0
:1021F00000E0044315F8013F203B02FA03F00842D7
:10220000F7D128782E2817D115F8010F44F00404CF
:102210002A280ED06FF02F022878A0F1300109296A
:102220000AD808EB880102EB410100EB01086D1CA4
:10223000F2E757F8048B6D1C287869283ED006DC3D
:102240000028CDD063280BD0642804D136E0732851
:1022500010D075284BD052460D999047761C85E0DA
:1022600017F8040B8DF8000000208DF80100E946F6
:10227000012003E057F8049B4FF0FF3061074FF057
:10228000000401D40AE0641C44450DDA8442FADB00
:1022900019F804100029F6D106E0641C8442FCDB26
:1022A00019F804100029F8D1264404E019F8010BAC
:1022B00052460D999047641EF8D257E001CF4FF077
:1022C0000A0B002802DA40422D2102E0210504D544
:1022D0002B218DF82410012103E0E10705D02021F6
:1022E000F7E70DF1200908910CE00021F9E701CF93
:1022F0004FF00A0BF9E75946FDF748FF01F13002AC
:1023000009F8012D0028F6D1ADEB090000F1200BF2
:10231000600701D44FF00108D84502DDA8EB0B009F
:1023200000E000208046002406E009A85246005D37
:102330000D999047641C761C08988442F5DB04E0F4
:10234000302052460D999047761CB8F10001A8F153
:102350000108F5DC05E019F8010B52460D9990478C
:10236000761CBBF10001ABF1010BF4DC6D1C34E712
:102370000928010013B54FF6FF7301226946024890
:10238000FEF71EFF00981CBDB400002010B5002809
:1023900021D0114B0022001F196803E0814203D8AD
:1023A0000A4649680029F9D152B11368841A9C423F
:1023B00004D1006818441060104602E0506000E04C
:1023C000186039B102680B1A934203D10B681A44A2
:1023D00002604968416010BD3C0000202DE9FE43C9
:1023E000FEF728FAFFF786FDFEF748FFFEF79EFF8F
:1023F000FEF76EFF86A0FFF7C1FEFDF7A3FF10B149
:102400008FA0FFF7BBFEFDF7F8FEC820FEF7F4F83B
:1024100041F28830044600F0B1F95FEA00094FF05C
:10242000FF357DD0204600F0A9F9070079D08AA0B9
:10243000FFF7A4FEFF264FF48774C82223461146F7
:1024400048460096FFF73AFCC82223461146384614
:102450000096FFF733FC4846FFF77AFCFF20FEF7B3
:102460009DFF3846FFF774FCFF20FEF797FF83A01F
:10247000FFF784FE4846FFF76BFC8C48FEF7A8FF89
:102480003846FFF765FC8A48FEF7A2FF3946484602
:10249000FDF7EEFE4FF4FA684046FEF7ADF885A072
:1024A000FFF76CFE4846FFF753FCFF20FEF776FF70
:1024B0000124234600220A2105200094FFF718FA80
:1024C00002230022192105200094FFF711FA0025AC
:1024D0000095CDE901543C2346220A211420FFF740
:1024E00017F90095CDE901543C2314220A21462016
:1024F000FFF70EF90095CDE901543C2346220A214D
:102500001420FFF767FA0094002314225521AA2013
:102510000194FEF7EFFF46216F4B70A2052001E00A
:102520006EE06FE0CDE90065FFF78AFBCDE900655D
:102530006D4B6EA2A0210520FFF7B8FA3846FFF7D1
:1025400007FCFF20FEF72AFF032300222821052095
:102550000094FFF7CDF904230022372105200094D1
:10256000FFF7C6F9CDE90054AA2237230F21104600
:102570000294FFF7CDF8CDE900542323BE2219467B
:1025800096200294FFF7C4F8CDE900543C23822240
:102590000A2155200294FFF71DFACDE900540023CB
:1025A00014222321AA20FEF7A5FFCDE90056524BA5
:1025B00052A25A210520FFF743FBCDE900564E4BAE
:1025C000514A78210520FFF729F9CDE900564F4BF4
:1025D0004FA287210520FFF769FA39464846FDF7E3
:1025E00047FE4046FEF708F84BA0FFF7C7FDFDF792
:1025F000ADFF4846FFF7CAFE3846FFF7C7FEFEE7C5
:102600004BA000E054A0FFF7B9FD2846BDE8FE83CB
:1026100065706420696E697420616E6420636C6506
:1026200061722D2D2D2D2D2D2D2D2D2D2D2D2D2D61
:102630002D2D2D2D2D2D2D2D2D2D0D0A00000000C1
:10264000652D506170657220696E697420666169DC
:102650006C65640D0A0000004E6577496D61676521
:102660003A426C61636B496D61676520616E6420FD
:10267000526564496D6167650D0A000073686F7784
:1026800020696D61676520666F7220617272617981
:102690002D2D2D2D2D2D2D2D2D2D2D2D2D2D2D2D6A
:1026A0002D2D2D2D2D2D2D2D0D0A0000E827000894
:1026B000703B000844726177696E672D2D2D2D2DBA
:1026C0002D2D2D2D2D2D2D2D2D2D2D2D2D2D2D2D3A
:1026D0002D2D2D0D0A0000000C00002068656C6C8B
:1026E0006F20776F726C64001C000020D1C5BADACD
:1026F000D7D6CCE500000000140000204D482D4541
:1027000054204C495645000015CD5B0700000020C1
:10271000C4E3BAC361626300476F746F20536C6592
:102720006570206D6F64652E2E2E0D0A000000006E
:102730004661696C656420746F206170706C7920EB
:10274000666F7220626C61636B206D656D6F72796C
:102750002E2E2E0D0A0000004661696C65642074FF
:102760006F206170706C7920666F722072656420D2
:102770006D656D6F72792E2E2E0D0A00F0B50B303F
:10278000154D20F007010024144A0FE003688B4226
:102790000BD38B4205D95E1A43184768C3E900671B
:1027A00000E04368136002C004E0021D10680028C6
:1027B000ECD12046002802D1286808B10020F0BDE5
:1027C000064A07481060074A121A22F00702C0E9B9
:1027D000002401202860D7E7400000203C000020B2
:1027E000FC000020F8900020FFFFFFFFFFFFFFFF2D
:1027F000FFFFFFFFFFFFFFFFFFFFFFFFFFFFFFFFE9
:10280000FFFFFFFFFFFFFFFFFFFFFFFFFFFFFFFFD8
:10281000FFFFFFFFFFFFFFFFFFFFFFFFFFFFFFFFC8
:10282000FFFFFFFFFFFFFFFFFFFFFFFFFFFFFFFFB8
:102BD000FFFFFFFFFFFFFFFFFFFFFFFFFDFDFFFF09
:102BE000FFFFFFFFFEFEFFFFFFFFFFFFFFFFFFFFF7
:102BF000FFFFFFC63FF1F1FFFFE44FFFFF9EFEFF27
:102C0000FFFFFFFFFFFFFFFFFFFFFFFFEF7FFDFD68
:102C1000FFFFF6DFFFFFDEFEFFFFFFFFFFFFFFFF0F
:102C2000FFFFFFFFFFEF7FFDFDFFFFF6DFFFFFDE92
:102C3000FEFFFFFFFFFFFFFFFFFFFFFFFFFFEF783C
:102C4000FDFDFC7FF6DC631C5EFEFFFFFFFFFFFF68
:102C5000FFFFFFFFFFFFFFEF777DFDFBBFF6DBBA56
:102C6000DB9EFEFFFFFFFFFFFFFFFFFFFFFFFFFFFA
:102C7000E06FBDFDF7DFF557D9F7DEFEFFFFFFFF81
:102C8000FFFFFFFFFFFFFFFFFFEF603DFDF7DFF5F9
:102C900057DBF7DEFEFFFFFFFFFFFFFFFFFFFFFF3A
:102CA000FFFFEF6FFDFDF7DFF557DBF7DFFFFFFFFE
:102CB000FFFFFFFFFFFFFFFFFFFFFFEF6FFDFDF7D0
:102CC000DFFBB7DBF7DFFFFFFFFFFFFFFFFFFFFFCC
:102CD000FFFFFFFFEF77BDFDFBBFFBBBBBFB9EFE16
:102CE000FFFFFFFFFFFFFFFFFFFFFFFFFFC6387083
:102CF000707C7FFBBC60FC4EFEFFFFFFFFFFFFFF11
:102D0000FFFFFFFFFFFFFFFFFFFFFFFFFFFFFFFFD3
:102D1000FFFFFFFFFFFFFFFFFFFFFFFFFFFFFFFFC3
:102D2000FFFFFFFFFFFFFFFFFFFFFFFFFFFFFFFFB3
:102D3000FFFFFFFFFFFFFFFFFFFFFFFFFFFFFFFFA3
:102D4000FFFFFFFFFFFFFFFFFFFFFFFFFFFFFFFF93
:102D5000FFFFFFFFFFFFFFFFFFFFFFFFFFFFFFFF83
:102D6000FFFFFFFFFFFFFFFFFFFFFFFFFFFFFFFF73
:102D7000FFFFFFFFFFFFFFFFFFFFFFFFFFFFFFFF63
:102D8000FFFFFFFFFFFFFFFFFFFFFFFFFFFFFFFF53
:102D9000FFFFFFFFFFFFFFFFFFFFFFFFFFFFFFFF43
:102DA000FFFFFFFFFFFFFFFFFFFFFFFFFFFFFFFF33
:102DB000FFFFFFFFFFFFFFFFFFFFFFFFFFFFFFFF23
:102DC000FFFFFFFFFFFFFFFFFFFFFFFFFFFFFFFF13
:102DD000FFFFFFFFFFFFFFFFFFFFFFFFFFFFFFFF03
:102DE000FFFFFFFFFFFFFFFFFFFFFFFFFFFFFFFFF3
:102DF000FFFFFFFFFFFF01FC07F01FC07F01FC0783
:102E0000F01FC07F01FC07F01FC07F01FC07F0012D
:102E1000FC07F01FC07F01FC07F01FC07F01FC070B
:102E2000F01FC07F01FC07F001FC07F01FC07F010D
:102E3000FC07F01FC07F01FC07F01FC07F01FC07EB
:102E4000F0FFFFFFFFFFFFFFFFFFFFFFFFFFFFFFA1
:102E5000FFFFFFFFFFFFFFFFFFFFFFFFFFFFFFFF82
:102E6000FFFFFFFFFFFFFFFFFFFFFFFFFFFFFFFF72
:102E7000FFFFFFFFFFFFFFFFFFFFFFFFFFFFFFFF62
:102E8000FFFFFFFFFFFFFFFFFFFFFFFFFFFFFFFF52
:102E9000FFFFFFFFFFFFFFFFFFFFFFFFFFFFFFFF42
:102EA000FFFFFFFFFFFFFFFFFFFFFFFFFFFFFFFF32
:102EB000FFFFFFFFFFFFFFFFFFFFFFFFFFFFFFFF22
:102EC000FFFFFFFFFFFFFFFFFFFFFFFFFFFFFFFF12
:102ED000FFFFFFFFFFFFFFFFFFFFFFFFFFFFFFFF02
:102EE000FFFFFFFFFFFFFFFFFFFFFFFFFFFFFFFFF2
:102EF000FFFFFFFFFC7FFF7FFFFFFFFFFFFFFFFFE5
:102F0000FFFFFFFFFFFFFFFFFFFFFF07FFFF7FFF49
:102F10007FFFFFFFFFFFFFFFFFFFFFFFFFFFFFFF41
:102F2000FFFFFFFFB7FFFF7FEFFFFFFFFFFFFFFF89
:102F3000FFFFFFFFFFFFFFFFFFFFFFFFFFB7FFFFE9
:102F40007FEFFFFF9FFFFFFFFFFFFFFFFFFFFFFF81
:102F5000FFFFFFFFFFFF8610E764C27C83FFFFFFD8
:102F6000FFFFFFFFFFFFFFFFFFFFFFFFFFFFFFAEC2
:102F7000D7DB76EF7B5BFFFFFFFFFFFFFFFFFFFF6E
:102F8000FFFFFFFFFFFFFFFFA610DB76EF7B5BFF7E
:102F9000FFFFFFFFFFFFFFFFFFFFFFFFFFFFFFFF41
:102FA000FFB6FEDB76EF7B5BFFFFFFFFFFFFFFFF60
:102FB000FFFFFFFFFFFFFFFFFFFF1210E410623C67
:102FC000899FFFFFFFFFFFFFFFFFFFFFFFFFFFFFE7
:102FD000FFFFFFFFFFFFFFFFFFFFFFFFFFFFFFFF01
:102FE000FFFFFFFFFFFFFFFFFFFFFFFFFFFFFFFFF1
:102FF000FFFFFFFFFFFFFFFFFFFFFFFFFFFFFFFFE1
:10300000FFFFFFFFFFFFFFFFFFDFFFFFFE3FFFFFB1
:10301000FFFFFFFFFFFFFFFFFFFFFFFFFFFF8FFF30
:10302000FFFFDFFFF33FBFFFFFFFFFFFFFFFFFFFDC
:10303000FFFFFFFFFFFFFF77FFFFFBFFFFFB7FBDF2
:10304000FFFFFFFFFFFFFFFFFFFFFFFFFFFFFFFF90
:1030500077FFFFFBFFFFFB7FBDFFFFF9FFFFFFFFD8
:10306000FFFFFFFFFFFFFFFFFF707927309C387ADB
:10307000E7B873867FFFFFFFFFFFFFFFFFFFFFFF44
:10308000FFFF75B69EDBDED6FADBBDED6DBFFFFF41
:10309000FFFFFFFFFFFFFFFFFFFFFF75B0BF1BDE5E
:1030A000D9FCDBBDF19C3FFFFFFFFFFFFFFFFFFFF0
:1030B000FFFFFFFF75B7BEDBDED7FDDBBDED7DFF9C
:1030C000FFFFFFFFFFFFFFFFFFFFFFFFFF8C781FEA
:1030D000088C48FDE60C708E39FFFFFFFFFFFFFFF5
:1030E000FFFFFFFFFFFFFDFFFFFFFFF77FFFFFFF7A
:1030F00077FFFFFFFFFFFFFFFFFFFFFFFFFFFFF86F
:10310000FFFFFFFFF8FFFFFFFF8FFFFFFFFFFFFF46
:10311000FFFFFFFFFFFFFFFFFFFFFFFFFFFFFFFFBF
:10312000FFFFFFFFFFFFFFFFFFFFFFFFFFFFFFFFAF
:10313000FFFFFFFFFFFFFFFFFFFFFFFFFFFFFFFF9F
:10314000FFFFFFFFFFFFFFFFFFFFFFFFFFFFFFFF8F
:10315000FFFFFFFFFFFFFFFFFFFFFFFFFFFFFFFF7F
:10316000FFFFFF83FFFFFFFFFCFFFFFE7FFFFFFF6F
:10317000FFFFFFFFFFFFFFFFFFFFFFFF3BFFFFFF23
:10318000FFFFFFFFBFFFFFFFFFFFFFFFFFFFFFFF8F
:10319000FFFFFFFFFF7FFFFFFFFFFFFFFFBFFFFFFF
:1031A000FFFFFFFFFFFFFFFFFFFFFFFFFFFF7F8E20
:1031B0000C199918E0C20C78C9CFFFFFFFFFFFFF81
:1031C000FFFFFFFFFFFFFF7F7756ADDCDEEEBBBFEB
:1031D0007766FFFFFFFFFFFFFFFFFFFFFFFFFFFF20
:1031E0007F7756ADDDDEEFE3BF776EFFFFFFFFFFBA
:1031F000FFFFFFFFFFFFFFFFFF7F7756ADDDDEEF35
:10320000DBBF776EFFFFFFFFFFFFFFFFFFFFFFFF4B
:10321000FFFF3B7756AD9DDEEEBBB7776EFFFFFF3E
:10322000FFFFFFFFFFFFFFFFFFFFFF838952A6485D
:103230008820C18418C44FFFFFFFFFFFFFFFFFFF7F
:10324000FFFFFFFFFFFFFFFFFFFFFFFFFFFFFFFF8E
:10325000FFFFFFFFFFFFFFFFFFFFFFFFFFFFFFFF7E
:10326000FFFFFFFFFFFFFFFFFFFFFFFFFFFFFFFF6E
:10327000FFFFFFFFFFFFFFFFFFFFFFFFFFFFFFFF5E
:10328000FFFFFFFFFFFFFFFFFFFFFFFFFFFFFFFF4E
:10329000FFFFFFFFFFFFFFFFFFFFFFFFFFFFFFFF3E
:1032A000FFFFFFFFFFFFFFFFFFFFFFFFFFFFFFFF2E
:1032B000FFFFFFFFFFFFFFFFFFFFFFFFFFFFFFFF1E
:1032C000FFFFFFFFFFFFFFFFFFFFFFFFFFFFFFFF0E
:1032D000FFFFFFFFFFFFFFFFFFFFFFFFFFFFFFFFFE
:1032E000FFFFFFFFFFFFFFFFFFFFFFFFFFFFFFFFEE
:1032F000FFFFFFFFFFFFFFFFFFFFFFFFFFFFFFFFDE
:10330000FFFFFFFFFFFFFFFFFFFFFFFFFFFFFFFFCD
:10331000FFFFFFFFFFFFFFFFFFFFFFFFFFFFFFFFBD
:10332000FFFFFFFFFFFFFFFFFFFFFFFFFFFFFFFFAD
:10333000FFFFFFFFFFFFFFFFFFFFFFFFFFFFFFFF9D
:10334000FFFFFFFFFFFFFFFFFFFFFFFFFFFFFFFF8D
:10335000FFFFFFFFFFFFFFFFFFFFFFFFFFFFFFFF7D
:10336000FFFFFFFFFFFFFFFFFFFFFFFFFFFFFFFF6D
:10337000FFFFFFFFFFFFFFFFFFFFFFFFFFFFFFFF5D
:10338000FFFFFFFFFFFFFFFFFFFFFFFFFFFFFFFF4D
:10339000FFFFFFFFFFFFFFFFFFFFFFFFFFFFFFFF3D
:1033A000FFFFFFFFFFFFFFFFFFFFFFFFFFFFFFFF2D
:1033B000FFFFFFFFFFFFFFFFFFFFFFFFFFFFFFFF1D
:1033C000FFFFFFFFFFFFFFFFFFFFFFFFFFFFFFFF0D
:1033D000FFFFFFFFFFFFFFFFFFFFFFFFFFFFFFFFFD
:1033E000FFFFFFFFFFFFFFFFFFFFFFFFFFFFFFFFED
:1033F000FFFFFFFFFFFFFFFFFFFFDFFFFFFFFFFFFD
:10340000FFFFFFFFFFFFFFFFFFFFFFFFC1FFFFFF0A
:10341000FF87FFDFFFFFFFFFFFFFFFFFFFFFFFFF54
:10342000FFFFFFFFFFEDFFFFFFFF77FFFFFFFFFF46
:10343000FFFFFFFFFFFFFFFFFFFFFFFFFFFFEBFFB0
:10344000FFFFFF7FFFFFFFFFFFFFFFFFFFFFFFFF0C
:10345000FFFFFFFFFFFFFFE21E49C19F9E649878B8
:103460007FFFFFFFFFFFFFFFFFFFFFFFFFFFFFFFEC
:10347000EB6DA7B5BFEDB5DDB6FFFFFFFFFFFFFFAB
:10348000FFFFFFFFFFFFFFFFFFEF6C2FCDBFF63504
:10349000DDB9FFFFFFFFFFFFFFFFFFFFFFFFFFFFA4
:1034A000FFFFED6DEFBE7F75BBDDB7FFFFFFFFFFD9
:1034B000FFFFFFFFFFFFFFFFFFFFFFC02607C77FE4
:1034C0000E1B8898FFFFFFFFFFFFFFFFFFFFFFFFBF
:1034D000FFFFFFFFFFFFFFBAFFFFFFFFF77FFFFFC9
:1034E000FFFFFFFFFFFFFFFFFFFFFFFFFFFFFFFFEC
:1034F000C1FFFFFFFFF8FFFFFFFFFFFFFFFFFFFF21
:10350000FFFFFFFFFFFFFFFFFFFFFFFFFFFFFFFFCB
:10351000FFFFFFFFFFFFFFFFFFFFFFFFFFFFFFFFBB
:10352000FFFFFFFFFFFFFFFFFFFFFFFFFFFFFFFFAB
:10353000FFFFFFFFFFFFFFFFFFFFFFFFFFFFFFFF9B
:10382000FFFFFFFFFFFFFFFFFFFFFFFFFFFFFFFCAB
:103830007FBF1FFF9FFFFFFFFFFFFFFFFF67FFFF30
:10384000FFFFFFFFFFFFFFC47F7FA1DFFF6FFFFFD1
:10385000FFE1FFFFFF1F77FFFFFFFFFFFFFFFFFFFE
:10386000E4FF77F6DFEF7FFFFFFFF6FFFFFFBFF715
:10387000FFFFFFFFFFFFFFFFFFE4FF77F6DFEF7FB4
:10388000FFFFFFF6FFFFFFBFF7FFFFFFFFFFFFFF99
:10389000FFFFE4276131DCC219243FFFF1CC392757
:1038A000BE74E7FFFFFFFFFFFFFFFFEAB777B7DB5D
:1038B0006F769D5FFFF7B6D69FBF75DBFFFFFFFFFB
:1038C000FFFFFFFFEAB777B7DC6F76BD5FFFF7C694
:1038D000D0BFBF73C3FFFFFFFFFFFFFFFFEAB77754
:1038E000B7DB6F76BD5FFFF7B6D7BFBB75DFFFFFF6
:1038F000FFFFFFFFFFFFCA4011030422191D5FFFF6
:10390000E3C2381F0226E3FFFFFFFFFFFFFFFFFFB9
:10391000FFFFFFFFFFFFFFFFFFFFFEFFFFFFFFFFB8
:10392000FFFFFFFFFFFFFFFFFFFFFFFFFFFFFFFFA7
:10393000FFFFFFFC7FFFFFFFFFFFFFFFFFFFFFFF1A
:10394000FFFFFFFFFFFFFFFFFFFFFFFFFFFFFFFF87
:10395000FFFFFFFFFFFFFFFFFFFFFFFFFFFFFFFF77
:10396000FFFFFFFFFFFFFFFFFFFFFFFFFFFFFFFF67
:10397000FFFFFFFFFFFFFFFFFFFFFFFFFFFFFFFF57
:103D0000FFFFF000000007FFFFFFFFFFFFFFFFFFC7
:103D1000FFFFFFFFFFFFFFFFFFFFFFC7C00007031D
:103D2000FFF87C21C3FFC00F003FF83FC030F08098
:103D30001FFFFFFF8440000F81FFF87C21C3FFC0FD
:103D400006001FF83FC030F0800FFFFFFF04400067
:103D50000880FFFC7C73E7FFE7C4738FFCFFF9F971
:103D6000FDCF8FFFFFFF0440000880FFFC7C73E75E
:103D7000FFE7F4F3CFFCFFF9F9F9CFEFFFFFFF07FF
:103D8000C00C0F80FFFC3873E7FFE7F4F3CFFCFFB4
:103D9000F9F8F9CFEFFFFFFF03801C0700FFFC38A5
:103DA00073E7FFE79FF3FFFCFFF9F8F9CF3FFFFF51
:103DB000FF02803C0200FFFC3A73E7FFE79FF3FF3E
:103DC000FCFFF9FCF3CF3FFFFFFF02C02C0207FF0F
:103DD000FCBA73E7FFE79FF3FFFCFFF9FCF3CF3F6B
:103DE000FFFFFF02602C03FFFFFC92700400601FC6
:103DF000F3FFFCFFF9FE67C03FFFFFFF02606C02AC
:103E000000FFFC92700400601FF3FFFCFFF9FE67E7
:103E1000C03FFFFFFF02304C0200FFFC9273E7FF40
:103E2000E79FF3FFFCFFF9FE67CF3FFFFFFF0210A4
:103E3000CC0200FFFCD673E7FFE79FF3FFFCFFF91E
:103E4000FF6FCF3FFFFFFF0218CC0207FFFCC673D6
:103E5000E7FFE79FF3FFFCFFF9FF0FCF3FFFFFFFF7
:103E600002088C03FFFFFCC673E7FFE7FFF3FFFCCC
:103E7000FFF9FF0FCFFFFFFFFF020D8C0200FFFCD9
:103E8000C673E7FFE7F7F3FFFCFE79FF9FCFEFFF75
:103E9000FFFF02070C0200FFFCC673E7FFE7F7F322
:103EA000FFFCFE79FF9FCFEFFFFFFF02030C020034
:103EB000FFFCEE73E7FFE7E7F3FFFCFC79FF9FCF22
:103EC000CFFFFFFF02000C027CFFF86C21C3FFC094
:103ED00007C0FFF000C03F9F800FFFFFFF0F800C67
:103EE0000244FFF87C21C3FFC00FC0FFF001C03FB8
:103EF0009F801FFFFFFF08800FFFC4FFFFFFFFFF32
:103F0000FFFFFFFFFFFFFFFFFFFFFFFFFFFFFF08B8
:103F1000FFFFFFC7FFFFFFFFFFFFFFFFFFFFFFFFE9
:103F2000FFFFFFFFFFFFFFFF08800C027CFFFFFF8A
:103F3000FFFFFFFFFFFFFFFFFFFFFFFFFFFFFFFF91
:103F4000FF0F800C0200FFFFFFFFFFFFFFFFFFFFDF
:103F5000FFFFFFFFFFFFFFFFFFFF00000C0200FF5E
:103F6000FFFFFFFFFFFFFFFFFFFFFFFFFFFFFFFF61
:103F7000FFFFFF00000C027FFFFFFFFFFFFFFFFFBF
:103F8000FFFFFFFFFFFFFFFFFFFFFFFF00000C022F
:103F900000FFFFFFFFFFFFFFFFFFFFFFFFFFFFFF30
:103FA000FFFFFFFFFF00000C027FFFFFFFFFFFFF8F
:103FB000FFFFFFFFFFFFFFFFFFFFFFFFFFFF00000F
:103FC0000C027FFFFFFFFFFFFFFFFFFFFFFFFFFF71
:103FD000FFFFFFFFFFFFFF00000C0200FFFFFFFFDE
:103FE000FFFFFFFFFFFFFFFFFFFFFFFFFFFFFFFFE1
:103FF00000000C027FFFFFFFFFFFFFFFFFFFFFFF3F
:10400000FFFFFFFFFFFFFFFFFF00000C0200FFFFAD
:10401000FFFFFFFFFFFFFFFFFFFFFFFFFFFFFFFFB0
:10402000FFFF00000C0200FFFFFFFFFFFFFFFFFF8D
:10403000FFFFFFFFFFFFFFFFFFFFFF00000C02007D
:10404000FFFFFFFFFFFFFFFFFFFFFFFFFFFFFFFF80
:10405000FFFFFFFF00001E0700FFFFFFFFFFFFFF46
:10406000FFFFFFFFFFFFFFFFFFFFFFFFFF0000332A
:104070000F80FFFFFFFFFFFFFFFFFFFFFFFFFFFFBF
:10408000FFFFFFFFFFFF0000330880FFFFFFFFFF80
:10409000FFFFFFFFFFFFFFFFFFFFFFFFFFFFFF80AF
:1040A00000330881FFFFFFFFFFFFFFFFFFFFFFFF60
:1040B000FFFFFFFFFFFFFFFFC0001E0F83FFFFFF9B
:1040C000FFFFFFFFFFFFFFFFFFFFFFFFFFFFFFFF00
:1040D000FFE0000C0207FFFFFFFFFFFFFFFFFFFFF6
:1040E000FFFFFFFFFFFFFFFFFFFFFFFFFFFFFFFFE0
:1040F000FFFFFFFFFFFFFFFFFFFFFFFFFFFFFFFFD0
:10410000FFFFFFFFFFFFFFFFFFFFFFFFFFFFFFFFBF
:10411000FFFFFFFFFFFFFFFFFFFFFFFFFFFFFFFFAF
:10412000FFFFFFFFFFFFFFFFFFFFFFFFFFFFFFFF9F
:10413000FFFFFFFFFFFFFFFFFFFFFFFFFFFFFFFF8F
:10414000FFFFFFFFFFFFFFFFFFFFFFFFFFFFFFFF7F
:10415000FFFFFFFFFFFFFFFFFFFFFFFFFFFFFFFF6F
:10416000FFFFFFFFFFFFFFFFFFFFFFFFFFFFFFFF5F
:10417000FFFFFFFFFFFFFFFFFFFFFFFFFFFFFFFF4F
:10418000FFFFFFFFFFFFFFFFFFFFFFFFFFFFFFFF3F
:10419000FFFFFFFFFFFFFFFFFFFFFFFFFFFFFFFF2F
:1041A000FFFFFFFFFFFFFFFFFFFFFFFFFFFFFFFF1F
:1041B000FFFFFFFFFFFFFFFFFFFFFFFFFFFFFFFF0F
:1041C000FFFFFFFFFFFFFFFFFFFFFFFFFFFFFFFFFF
:1041D000FFFFFFFFFFFFFFFFFFFFFFFFFFFFFFFFEF
:1041E000FFFFFFFFFFFFFFFFFFFFFFFFFFFFFFFFDF
:1041F000FFFFFFFFFFFFFFFFFFFFFFFFFFFFFFFFCF
:10420000FFFFFFFFFFFFFFFFFFFFFFFFFFFFFFFFBE
:10421000FFFFFFFFFFFFFFFFFFFFFFFFFFFFFFFFAE
:10422000FFFFFFFFFFFFFFFFFFFFFFFFFFFFFFFF9E
:10423000FFFFFFFFFFFFFFFFFFFFFFFFFFFFFFFF8E
:10424000FFFFFFFFFFFFFFFFFFFFFFFFFFFFFFFF7E
:10425000FFFFFFFFFFFFFFFFFFFFFFFFFFFFFFFF6E
:10426000FFFFFFFFFFFFFFFFFE0E0E0FFFE0E0E08E
:10427000FFFFFFFFFFFFFFFFFFFFFFFFFFFFFFFF4E
:10428000FFFC040407FFC040407FFFFFFFFFFFFF6C
:10429000FFFFFFFFFFFFFFFFFFFFFCE4E4E679CE37
:1042A0004E4E7FFFFFFFFFFFFFFFFFFFFFFFFFFF00
:1042B000FFFFFFFCE4E4E733CE4E4E7FFFFFFFFF3E
:1042C000FFFFFFFFFFFFFFFFFFFFFFFFFFCCE4E764
:1042D00087FCCE4E7FFFFFFFFFFFFFFFFFFFFFFFCB
:1042E000FFFFFFFFFFFF9CE4E7CFF9CE4E7FFFFF0C
:1042F000FFFFFFFFFFFFFFFFFFFFFFFFFFFFFF3C91
:10430000E4E787F3CE4E7FFFFFFFFFFFFFFFFFFFD6
:10431000FFFFFFFFFFFFFFFE7CE4E733E7CE4E7FAA
:10432000FFFFFFFFFFFFFFFFFFFFFFFFFFFFFFFF9D
:10433000FC04040679C040407FFFFFFFFFFFFFFF42
:10434000FFFFFFFFFFFFFFFFFFFC060E0FFFC06038
:10435000E0FFFFFFFFFFFFFFFFFFFFFFFFFFFFFF8C
:10436000FFFFFFFFFFFFFFFFFFFFFFFFFFFFFFFF5D
:10437000FFFFFFFFFFFFFFFFFFFFFFFFFFFFFFFF4D
:10438000FFFFFFFFFFFFFFFFFFFFFFFFFFFFFFFF3D
:10439000FFFFFFFFFFFFFFFFFFFFFFFFFFFFFFFF2D
:1043A000FFFFFFFFFFFFFFFFFFFFFFFFFFFFFFFF1D
:1043B000FFFFF1FE33398267FFFFFFFFFFFFFFFFC3
:1043C000FFFFFFFFFFFFFFFFFFFFFFEEFDDB79BFFA
:1043D0006FFFFFFFFFFFFFFFFFFFFFFFFFFFFFFF7D
:1043E000FFFFFFFFFEFFDB73BF6FFFFFFFFFFFFF5E
:1043F000FFFFFFFFFFFFFFFFFFFFFFFFFFF9FF3A98
:10440000F3875FFFFFFFFFFFFFFFFFFFFFFFFFFFE0
:10441000FFFFFFFFFFFFFEFFDAE7BB5FFFFFFFFFCE
:10442000FFFFFFFFFFFFFFFFFFFFFFFFFFFFFFFE9D
:10443000FFDCE7FB9FFFFFFFFFFFFFFFFFFFFFFF2B
:10444000FFFFFFFFFFFFFFFFEECDDDCFBBBFFFFF95
:10445000FFFFFFFFFFFFFFFFFFFFFFFFFFFFFFFF6C
:10446000FFF1CE3D8FC7BFFFFFFFFFFFFFFFFFFF45
:10447000FFFFFFFFFFFFFFFFFFFFFFFFFF9FFFFFAC
:10448000FFFFFFFFFFFFFFFFFFFFFFFFFFFFFFFF3C
:10449000FFFFFFFFFFFFFFFFFFFFFFFFFFFFFFFF2C
:1044A000FFFFFFFFFFFFFFFFFFFFFFFFFFFFFFFF1C
:1044B000FFFFFFFFFFFFFFFFFFFFFFFFFFFFFFFF0C
:1044C000FFFFFFFFFFFFFFFFFFFFFFFFFFFFFFFFFC
:1044D000FFFFFFFFFFFFFFFFFFFFFFFFFFFFFFFFEC
:1044E000FFFFFFFFFFFFFFFFFFFFFFFFFFFFFFFFDC
:1044F000FFFFFFFFFFFFFF04183FFFFFFFFFFFFF6E
:10450000FFFFFFFFFFFFFFFFFFFFFFFFFFFFFFFFBB
:1045100076EEFFFFFFFFFFFFFFFFFFFFFFFFFFFF45
:10452000FFFFFFFFFFFFFFFFFF7EEEFFFFFFFFFF2D
:10453000FFFFFFFFFFFFFFFFFFFFFFFFFFFFFFFF8B
:10454000FFFF7EEEFFFFFFFFFFFFFFFFFFFFFFFF0D
:10455000FFFFFFFFFFFFFFFFFFFFFF061EFFFFFF45
:10456000FFFFFFFFFFFFFFFFFFFFFFFFFFFFFFFF5B
:10457000FFFFFFFFF6FEFFFFFFFFFFFFFFFFFFFF55
:10458000FFFFFFFFFFFFFFFFFFFFFFFFFFF6FEFF45
:10459000FFFFFFFFFFFFFFFFFFFFFFFFFFFFFFFF2B
:1045A000FFFFFFFFFFFF76FEFFFFFFFFFFFFFFFFA5
:1045B000FFFFFFFFFFFFFFFFFFFFFFFFFFFFFF0406
:1045C000783FFFFFFFFFFFFFFFFFFFFFFFFFFFFF42
:1045D000FFFFFFFFFFFFFFFFFFFFFFFFFFFFFFFFEB
:1045E000FFFFFFFFFFFFFFFFFFFFFFFFFFFFFFFFDB
:1045F000FFFFFFFFFFFFFFFFFFFFFFFFFFFFFFFFCB
:10460000FFFFFFFFFFFFFFFFFFFFFFFFFFFFFFFFBA
:10461000FFFFFFFFFFFFFFFFFFFFFFFFFFFFFFFFAA
:10462000FFFFFFFFFFFFFFFFFFFFFFFFFFFFFFFF9A
:10463000FFFFFFFFFFFFFFFFFFFFFFFFFFFFFFFF8A
:10464000FFFFFFFFFFFFFFFFFFFFFFFFFFFFFFFF7A
:10465000FFFFFFFFFFFFFFFFFFFFFFFFFFFFFFFF6A
:10466000FFFFFFFFFFFFFFFFFFFFFFFFFFFFFFFF5A
:10467000FFFFFFFFFFFFFFFFFFFFFFFFFFFFFFFF4A
:10468000FFFFFFFFFFFFFFFFFFFFFFFFFFFFFFFF3A
:10469000FFFFF01FC07F01FC07F01FC07F01FC0778
:1046A000F01FC07F01FC07F01FC07FF01FC07F011B
:1046B000FC07F01FC07F01FC07F01FC07F01FC0753
:1046C000F01FC07FF01FC07F01FC07F01FC07F01FB
:1046D000FC07F01FC07F01FC07F01FC07FFFFFFF3A
:1046E000FFFFFFFFFFFFFFFFFFFFFFFFFFFFFFFFDA
:1046F000FFFFFFFFFFFFFFFFFFFFFFFFFFFFFFFFCA
:10470000FFFFFFFFFFFFFFFFFFFFFFFFFFFFFFFFB9
:10471000FFFFFFFFFFFFFFFFFFFFFFFFFFFFFFFFA9
:10472000FFFFFFFFFFFFFFFFFFFFFFFFFFFFFFFF99
:10473000FFFFFFFFFFFFFFFFFFFFFFFFFFFFFFFF89
:10474000FFFFFFFFFFFFFFFFFFFFFFFFFFFFFFFF79
:10475000FFFFFFFFFFFFFFFFFFFFFFFFFFFFFFFF69
:10476000FFFFFFFFFFFFFFFFFFFFFFFFFFFFFFFF59
:10477000FFFFFFFFFFFFFFFFFFFFFFFFFFFFFFFF49
:10478000FFFFFFFFFFFFFFFFFFFFFFFFFFFFFFFF39
:10479000FFFFFFFFFFFFFFFFFFFFFFFFFFFFFFF335
:1047A000333FFFFFFFFFFFFFFFFFFFFFFFFFFFFFA5
:1047B000FFFFFFFFFFFFFFFFF3333FFFFFFFFFFFA1
:1047C000FFFFFFFFFFFFFFFFFFFFFFFFFFFFFFFFF9
:1047D000FFF3333FFFFFFFFFFFFFFFFFFFFFFFFF81
:1047E000FFFFFFFFFFFFFFFFFFFFF3333FFFFFFF71
:1047F000FFFFFC00000FFFFFFFFFFFFFFFFFFFFFBA
:10480000FFFFFFF3333FFFFFFFFFFFF8000007FF4D
:10481000FFFFFFFFFFFFFFFFFFFFFFFFF3333FFF40
:10482000FFFFFFFFF0000003FFFFFFFFFFFFFFFFA1
:10483000FFFFFFFFFFFFFFFFFFFFFFFFFFF1FFFF96
:1048400081FFFFFFFFFFFFFFFFFFFFFFFFFFFFFFF6
:10485000FFFFFFFFFFFFF1FFFF90FFFFFFFFFFFFE5
:10486000FFFFFFFFFFFFFFFFFFFFFFFFFFFFFFF166
:10487000FFFF987FFFFFFFFFFFFFFFFFFFFFFFFF2F
:10488000C0000FFFFFFFFFFFF1FFFF9C3FFFFFFF97
:10489000FFFFFFFFFFFFFFFFFFC0000FFFFFFFFF56
:1048A000FFF1FFFF9E3FFFFFFFFFFFFFFFFFFFFF47
:1048B000FF80C0000C07FFFFFFFFF1C003803FFF38
:1048C000FFFFFFFFFFFFFFFFFFFF80C0000C07FFA0
:1048D000FFFFFFF1C003803FFFFFFFFFFFFFFFFF70
:1048E000FFFFFFFFC0000FFFFFFFFFFFF1FFFFFE15
:1048F0003FFFFFFFFFFFFFFFFFFFFFFFFFC0000FB6
:10490000FFFFFFFFFFF1FFFFFE3FFFFFFFFFFFFF86
:10491000FFFFFFFFFF80C0000C07FFFFFFFFF1FF5D
:10492000FFFE3FFFFFFFFFFFFFFFFFFFFFFF80C016
:10493000000C07FFFFFFFFF1FFFFFE3FFFFFFFFF40
:10494000FFFFFFFFFFFFFFFFC0000FFFFFFFFFFFA5
:10495000F1C0001E3FFFFFFFFFFFFFFFFFFFFFFF54
:10496000FFC0000FFFFFFFFFFFF1C0001E3FFFFF72
:10497000FFFFF003FFFFFFFFFF80C0000C07FFFFFA
:10498000FFFFF1FFFFFE3FFFFFFFFFE001FFFFFF23
:10499000FFFF80C0000C07FFFFFFFFF1FFFFFE3F9E
:1049A000FFFFFFFFC000FFFFFFFFFFFFC0000FFF83
:1049B000FFFFFFFFF1FFFFFE3FFFFFFFFF80007FD4
:1049C000FFFFFFFFFFC0000FFFFFFFFFFFF1FFFF33
:1049D000FE3FFFFFFFFF00003FFFFFFFFF80C00023
:1049E0000C07FFFFFFFFF1C0001E3FFFFFFFFE00AF
:1049F000C037FFFFFFFF80C0000C07FFFFFFFFF184
:104A0000C0001E3FFFFFFFFC00E007FFFFFFFFFFAE
:104A1000C0000FFFFFFFFFFFF1FFFFFE3FFFFFFFA3
:104A2000FC01E00FFFFFFFFFFFC0000FFFFFFFFFD4
:104A3000FFF1FFFFFE3FFFFFFFFC03F00FFFFFFF53
:104A4000FFFFFFFFFFFFFFFFFFFFF1FFFFFE3FFF45
:104A5000FFFFFC03F00FFFFFFFFFFFFFFFFFFFFF64
:104A6000FFFFFFF1FFFFFE3FFFFFFFFE07E01FFF1D
:104A7000FFFFFFFFFFFFFFFFFFFFFFFFF1C0001E73
:104A80003FFFFFFFFF87C01FFFFFFFFFFFF3333F25
:104A9000FFFFFFFFFFF1C0001E3FFFFFFFFCCFFC49
:104AA0001FFFFFFFFFFFF3333FFFFFFFFFFFF1FF9C
:104AB000FFFE3FFFFFFFE0FFFFF1FFFFFFFFFFF300
:104AC000333FFFFFFFFFFFF1FFFFFE3FFFFFFE0051
:104AD000FF1FC0FFFFFFFFFFF3333FFFFFFFFFFF9D
:104AE000F1FFFFFE3FFFFFFF007E3F807FFFFFFFE4
:104AF000FFF3333FFFFFFFFFFFF1FFFFFE3FFFFF2D
:104B0000FF807C3F003FFFFFFFFFF3333FFFFFFFCE
:104B1000FFFFF1FFFFFE3FFFFFFF807C0F001FFF45
:104B2000FFFFFFFFFFFFFFFFFFFFFFF00000003F61
:104B3000FFFFFF003C0F001FFFFFFFFFFFFFFFFF16
:104B4000FFFFFFFFF80000007FFFFFFE003F1F8018
:104B50001FFFFFFFFFFFFFFFFFFFFFFFFFFC000046
:104B600000FFFFFFFE01FE3FC01FFFFFFFFFFFFF33
:104B7000FFFFFFFFFFFFFFFFFFFFFFFFFFFE03FE43
:104B80007FE01FFFFFFFFFFFFFFFFFFFFFFFFFFFB4
:104B9000FFFFFFFFFFFFFE03FEFFF01FFFFFFFFF12
:104BA000FFFFFFFFFFFFFFFFFFFFFFFFFFFFFFFE16
:104BB00007FFFDF81FFFFFFFFFFFFFFFFFFFFFFFE6
:104BC000FFFFFFFFFFFFFFFFFE07FFF9F81FFFFFDB
:104BD000FFFFFFFFFFFFFFFFFFFFFFFFFFFFFFFFE5
:104BE000FFFE0001F0001FFFFFFFFFFFFFFFFFFFC1
:104BF000FFFFFFFFFFFFFFFFFFFFFF0001E0001FC0
:104C0000FFFFFFFFFFFFFFFFFFFFFFFFFFFFFFFFB4
:104C1000FFFFFFFF8001C0003FFFFFFFFFFFFFFF1F
:104C2000FFFFFFFFFFFFFFFFFFFFFFFFFFC0018050
:104C3000007FFFFFFFFFFFFFFFFFFFFFFFFFFFFF03
:104C4000FFFFFFFFFFFFE0018000FFFFFFFFFFFF0F
:104C5000FFFFFFFFFFFFFFFFFFFFFFFFFFFFFFF073
:104C600001C001FFFFFFFFFFFFFFFFFFFFFFFFFF8F
:104C7000FFFFFFFFFFFFFFFFF801E003FFFFFFFF64
:104C8000FFFFFFFFFFFFFFFFFFFFFFFFFFFFFFFF34
:104C9000FFFFFFF1FFFFFFFFFFFFFFFFFFFFFFFF32
:104CA000FFFFFFFFFFFFFFFFFFFFFFFFF9FFFFFF1A
:104CB000FFFFFFFFFFFFFFFFFFFFFFFFFFFFFFFF04
:104CC000FFFFFFFFFFFDFFFFFFFFFFFFFFFFFFFFF6
:104CD000FFFFFFFFFFFFFFFFFFFFFFFFFFFFFFFFE4
:104CE000FFFFFFFFFFFFFFFFFFFFFFFFFFFFFFFFD4
:104CF000FFFFFFFFFFFFFFFFFFFFFFFFFFFFFFFFC4
:104D0000FFFFFFFFFFFFFFFFFFFFFFFFFFFFFFFFB3
:104EF000FFFFFFFFFFFFFFFF0E14010A06040A0A6F
:104F00000F03030C060A000E14010A46048A4A0F16
:104F100083430C860A040E14018A06048A4A0F830E
:104F2000430C064A048E94018A06048A4A0F83437E
:104F30000C060A048E94018A06048A4A0F83430CE5
:104F4000060A04031D010108233737010000000091
:104F50000000835D01814823777701000000000095
:104F600000031D0101082337370100000000000085
:104F7000C4E300000000000000001DC01D803BFFD6
:104F80003B073F777E76F870FBFEFBFE3F773F776F
:104F90003E73387038703BE00000000000000000F5
:104FA0000000000000000000000000000000000001
:104FB00000000000000000000000000000000000F1
:104FC00000000000000000000000000000000000E1
:104FD00000000000000000000000000000000000D1
:104FE00000000000000000000000000000000000C1
:104FF00000000000000000000000000000000000B1
:1050000000000000000000000000000000000000A0
:10501000000000000000BAC3000000000000000013
:10502000300073FF700FFE1E7E3C6E38EE30EFFFD7
:10503000FC307C3038303E307E30E030C1F0000053
:105040000000000000000000000000000000000060
:105050000000000000000000000000000000000050
:105060000000000000000000000000000000000040
:105070000000000000000000000000000000000030
:105080000000000000000000000000000000000020
:105090000000000000000000000000000000000010
:1050A0000000000000000000000000000000000000
:1050B000000000000000000000000000CAF700002F
:1050C000000000000000300E300E3FEE30EEFCFF1E
:1050D00076CE77FE7BFEFFFEF3DEF3CE37EE3E6E3E
:1050E0003C0E303E00000000000000000000000008
:1050F00000000000000000000000000000000000B0
:10510000000000000000000000000000000000009F
:10511000000000000000000000000000000000008F
:10512000000000000000000000000000000000007F
:10513000000000000000000000000000000000006F
:10514000000000000000000000000000000000005F
:10515000000000000000000000000000000000004F
:105160000000DDAE00000000000000000670FFFF40
:105170003E7038007FFFE000FFFC3B8C39CCFFFF26
:10518000739C71DC7FFF001C01F800000000000030
:10519000000000000000000000000000000000000F
:1051A00000000000000000000000000000000000FF
:1051B00000000000000000000000000000000000EF
:1051C00000000000000000000000000000000000DF
:1051D00000000000000000000000000000000000CF
:1051E00000000000000000000000000000000000BF
:1051F00000000000000000000000000000000000AF
:105200000000000000000000C5C900000000000010
:105210000000E01FFFF03E000E1FCFFBFFF83FFF36
:105220000FFF7FD87FDC6FCEEDFFFDF7F9C00000E8
:10523000000000000000000000000000000000006E
:10524000000000000000000000000000000000005E
:10525000000000000000000000000000000000004E
:10526000000000000000000000000000000000003E
:10527000000000000000000000000000000000002E
:10528000000000000000000000000000000000001E
:10529000000000000000000000000000000000000E
:1052A000000000000000000000000000000061009D
:1052B00000000000000000000000000000000000EE
:1052C0003E00670007800F807F80E380E780E780F3
:1052D0007F800000000000000000000000000000CF
:1052E00000000000000000000000000000000000BE
:1052F00000000000000000000000000000000000AE
:10530000000000000000000000000000000000009D
:10531000000000000000000000000000000000008D
:10532000000000000000000000000000000000007D
:10533000000000000000000000000000000000006D
:10534000000000000000000000000000000000005D
:10535000000000006200000000000000000070007B
:105360007000700070007F007B8071C071C071C0E0
:1053700071C071C07B807F00000000000000000051
:10538000000000000000000000000000000000001D
:10539000000000000000000000000000000000000D
:1053A00000000000000000000000000000000000FD
:1053B00000000000000000000000000000000000ED
:1053C00000000000000000000000000000000000DD
:1053D00000000000000000000000000000000000CD
:1053E00000000000000000000000000000000000BD
:1053F000000000000000000000006300000000004A
:105400000000000000000000000000003F007300EA
:10541000F000E000E000E000F00073003F0000005A
:10542000000000000000000000000000000000007C
:10543000000000000000000000000000000000006C
:10544000000000000000000000000000000000005C
:10545000000000000000000000000000000000004C
:10546000000000000000000000000000000000003C
:10547000000000000000000000000000000000002C
:10548000000000000000000000000000000000001C
:10549000000000000000000000000000000000000C
:1054A0004100000000000000000000000E001F008E
:1054B0001F001F003B803B8071807FC071C0E0E017
:1054C000E0E0E0E00000000000000000000000005C
:1054D00000000000000000000000000000000000CC
:1054E00000000000000000000000000000000000BC
:1054F00000000000000000000000000000000000AC
:10550000000000000000000000000000000000009B
:10551000000000000000000000000000000000008B
:10552000000000000000000000000000000000007B
:10553000000000000000000000000000000000006B
:10554000000000000000000000000000000000005B
:10555000000000000000000000000000000000004B
:1055600000000000000000000C000C000C000C000B
:105570000C000C000C000C0000000C0000000000EF
:10558000000000000000000000001DC01DC00880D9
:1055900008800880000000000000000000000000FB
:1055A00000000000000000000D800D800D800D80C7
:1055B0003FC01B003FC01B001B001B001B00000066
:1055C00000000000000004001F803180318038009E
:1055D0001E000F000380318031803F000400040072
:1055E000000000000000000018002400240018C083
:1055F00007801E0031800240024001800000000050
:10560000000000000000000000000F00180018005B
:1056100018000C001D80370033001D8000000000C2
:10562000000000000000000000000700070002006A
:105630000200020000000000000000000000000066
:1056400000000000000000000300030006000E0040
:105650000C000C000C000C000E0006000300030000
:105660000000000000000000180018000C000600F8
:10567000060006000600060006000C001C001800CC
:105680000000000000000000060006003FC03FC010
:105690000F001F80198000000000000000000000C3
:1056A00000000000000000000000000004000400F2
:1056B00004003F800400040004000000000000001B
:1056C00000000000000000000000000000000000DA
:1056D0000000000000000000060004000C000800AC
:1056E00008000000000000000000000000000000B2
:1056F00000003F80000000000000000000000000EB
:105700000000000000000000000000000000000099
:1057100000000000000000000C000C000000000071
:1057200000000000000000C000C0018001800300F4
:10573000030006000C000C001800180030003000B8
:1057400000000000000000000E001B0031803180CE
:1057500031803180318031801B000E00000000005C
:10576000000000000000000006003E0006000600E9
:10577000060006000600060006003FC0000000000C
:1057800000000000000000000F001980318031800F
:10579000030006000C00180030003F8000000000ED
:1057A00000000000000000003F0061800180030055
:1057B0001F0003800180018061803F000000000025
:1057C0000000000000000000070007000F000B00B1
:1057D0001B00130033003F8003000F800000000017
:1057E00000000000000000001F80180018001800D2
:1057F0001F0011800180018021801F000000000037
:10580000000000000000000007801C0018003000AD
:10581000370039803180318019800F00000000008E
:1058200000000000000000007F00430003000600AD
:105830000600060006000C000C000C000000000032
:1058400000000000000000001F0031803180318026
:105850001F0031803180318031801F000000000046
:1058600000000000000000001E0033003180318085
:1058700033801D800180030007003C000000000011
:1058800000000000000000000000000000000C000C
:105890000C000000000000000C000C0000000000E4
:1058A00000000000000000000000000000000300F5
:1058B00003000000000000000600040008000800CB
:1058C0000000000000000000000000C00300040011
:1058D0001800600018000400030000C00000000071
:1058E00000000000000000000000000000000000B8
:1058F0007FC000007FC0000000000000000000002A
:10590000000000000000000000006000180004001B
:10591000030000C003000400180060000000000045
:10592000000000000000000000001F0031803180F6
:10593000018007000C000C0000000C0000000000BB
:1059400000000000000000000E00110021002100F6
:105950002700290029002700200011000E00000068
:10596000000000000000000000003F000F000900E0
:10597000198019801F8030C030C079E0000000001D
:10598000000000000000000000007F003180318036
:1059900031803F003180318031807F000000000085
:1059A000000000000000000000001F4030C0604008
:1059B000600060006000604030801F000000000058
:1059C000000000000000000000007F00318030C0B7
:1059D00030C030C030C030C031807F0000000000D7
:1059E000000000000000000000007F803080308058
:1059F00032003E003200308030807F8000000000A6
:105A0000000000000000000000007FC03040304077
:105A100032003E003200300030007C000000000008
:105A2000000000000000000000001E803180608047
:105A30006000600067C0618031801F0000000000CE
:105A4000000000000000000000007BC031803180B9
:105A500031803F803180318031807BC00000000088
:105A6000000000000000000000003FC0060006002B
:105A7000060006000600060006003FC00000000009
:105A8000000000000000000000001FC00300030031
:105A9000030003006300630063003E000000000099
:105AA000000000000000000000007BC031803300D7
:105AB00036003C003E003300318079C00000000019
:105AC000000000000000000000007E001800180028
:105AD000180018001840184018407FC0000000004F
:105AE00000000000000000000000E0E060C071C0A5
:105AF0007BC06AC06EC064C060C0FBE000000000F4
:105B00000000000000000000000073C031803980F8
:105B10003D803580378033803180798000000000FF
:105B2000000000000000000000001F00318060C085
:105B300060C060C060C060C031801F000000000015
:105B4000000000000000000000007F003180318074
:105B5000318031803F00300030007E0000000000C6
:105B6000000000000000000000001F00318060C045
:105B700060C060C060C060C031801F000CC01F806A
:105B8000000000000000000000007F003180318034
:105B900031803E003300318031807CE00000000025
:105BA000000000000000000000001F8031803180F4
:105BB00038001F000380318031803F00000000006A
:105BC000000000000000000000007F804C804C803E
:105BD0004C800C000C000C000C003F00000000008A
:105BE000000000000000000000007BC03180318018
:105BF000318031803180318031801F000000000011
:105C0000000000000000000000007BC031803180F7
:105C10001B001B001B000A000E000E00000000000D
:105C200000000000000000000000FBE060C064C055
:105C30006EC06EC02A803B803B8031800000000037
:105C4000000000000000000000007BC031801B004D
:105C50000E000E000E001B0031807BC00000000013
:105C60000000000000000000000079E030C0198052
:105C70000F0006000600060006001F80000000005E
:105C8000000000000000000000003F802180230091
:105C9000060004000C00188030803F8000000000E7
:105CA000000000000000000007800600060006005B
:105CB0000600060006000600060006000600078033
:105CC00000000000000030003000180018000C0038
:105CD0000C000600030003000180018000C000C02A
:105CE00000000000000000001E0006000600060084
:105CF00006000600060006000600060006001E005C
:105D000000000000000004000A000A0011002080CA
:105D100020800000000000000000000000000000E3
:105D20000000000000000000000000000000000073
:105D30000000000000000000000000000000000063
:105D400000000000FFE00800040002000000000066
:105D50000000000000000000000000000000000043
:105D600000000000000000000000000000001F0014
:105D7000018001801F80318033801DC00000000041
:105D8000000000000000000070003000300037000C
:105D9000398030C030C030C039807700000000004A
:105DA00000000000000000000000000000001E8055
:105DB000318060806000608031801F000000000042
:105DC00000000000000000000380018001801D80B1
:105DD000338061806180618033801DC000000000DD
:105DE00000000000000000000000000000001F0094
:105DF000318060C07FC0600030C01F8000000000A4
:105E0000000000000000000007E00C000C003F80D4
:105E10000C000C000C000C000C003F800000000087
:105E200000000000000000000000000000001DC095
:105E3000338061806180618033801D8001800180BA
:105E40001F0000000000000070003000300037002C
:105E5000398031803180318031807BC0000000008A
:105E600000000000000000000600060000001E0008
:105E7000060006000600060006003FC00000000005
:105E800000000000000000000600060000003F00C7
:105E900003000300030003000300030003000300EA
:105EA0003E0000000000000070003000300037802D
:105EB00036003C003C003600330077C00000000094
:105EC00000000000000000001E00060006000600A2
:105ED000060006000600060006003FC000000000A5
:105EE00000000000000000000000000000007F80B3
:105EF00036C036C036C036C036C076E0000000007E
:105F0000000000000000000000000000000077001A
:105F1000398031803180318031807BC000000000C9
:105F200000000000000000000000000000001F0052
:105F3000318060C060C060C031801F000000000080
:105F400000000000000000000000000000007700DA
:105F5000398030C030C030C0398037003000300068
:105F60007C000000000000000000000000001DC0D8
:105F7000338061806180618033801D800180018079
:105F800007C00000000000000000000000007B804F
:105F90001CC018001800180018007F000000000046
:105FA00000000000000000000000000000001F8052
:105FB00031803C001F00038031803F000000000062
:105FC00000000000000000001800180018007F000A
:105FD000180018001800180018800F0000000000BA
:105FE00000000000000000000000000000007380BE
:105FF000318031803180318033801DC0000000004D
:1060000000000000000000000000000000007BC055
:10601000318031801B001B000E000E0000000000CC
:106020000000000000000000000000000000F1E09F
:1060300060C064C06EC03B803B80318000000000C7
:1060400000000000000000000000000000007BC015
:106050001B000E000E000E001B007BC000000000A5
:10606000000000000000000000000000000079E0D7
:1060700030C0198019800B000F00060006000C00CC
:106080003E000000000000000000000000003F8013
:10609000218003000E00180030803F8000000000C7
:1060A000000000000000000006000C000C000C00C6
:1060B0000C000C0018000C000C000C000C0006007A
:1060C00000000000000000000600060006000600B8
:1060D0000600060006000600060006000600060090
:1060E00000000000000000000C0006000600060092
:1060F00006000600030006000600060006000C006D
:10610000000000000000000000000000000000008F
:1061100018002480030000000000000000000000C0
:10612000000000000000000000000000000000006F
:10613000000000000000000000000000000000005F
:10614000000000000000000000000000000000004F
:10615000070007000700070007000700070002000C
:10616000020000000000070007000000000000001F
:10617000000000000000000000001CE01CE01CE02B
:106180000840084008400000000000000000000037
:1061900000000000000000000000000000000CC033
:1061A0000CC00CC00CC00CC03FF03FF00CC00CC0C9
:1061B0003FF03FF00CC00CC00CC00CC00CC0000085
:1061C0000000000000000300030007E00FE018607B
:1061D00018001F000FC000E0186018601FC01F806B
:1061E00003000300030000000000000000000000A6
:1061F0001C002200220022001C6001E00F803C00F5
:1062000031C002200220022001C000000000000076
:1062100000000000000000000000000003E00FE0AC
:106220000C000C0006000F301FF019E018C01FF022
:1062300007B00000000000000000000000000000A7
:1062400000000380038003800100010001000000C2
:10625000000000000000000000000000000000003E
:10626000000000000000000000C000C001800180AC
:10627000018003000300030003000300030001800A
:106280000180018000C000C000000000000000008C
:106290000C000C00060006000600030003000300CB
:1062A0000300030003000600060006000C000C00BB
:1062B00000000000000000000300030003001B605A
:1062C0001FE0078007800FC00CC000000000000026
:1062D00000000000000000000000000000000000BE
:1062E0000000000003000300030003003FF03FF044
:1062F0000300030003000300000000000000000092
:10630000000000000000000000000000000000008D
:1063100000000000000000000000000003800300F7
:10632000030006000600040000000000000000005A
:106330000000000000000000000000003FE03FE01F
:10634000000000000000000000000000000000004D
:10635000000000000000000000000000000000003D
:106360000000000000000000000000000380038027
:10637000038000000000000000000000000000603A
:10638000006000C000C000C0018001800300030065
:10639000060006000C000C000C001800180000009D
:1063A00000000000000000000F801FC018C0306017
:1063B00030603060306030603060306018C01FC0C6
:1063C0000F8000000000000000000000000000003E
:1063D00003001F001F00030003000300030003006D
:1063E0000300030003001FE01FE0000000000000A6
:1063F00000000000000000000F801FC038E0306087
:10640000006000C00180030006000C0018003FE09F
:106410003FE000000000000000000000000000005D
:106420000F803FC030E0006000E007C007C000E020
:106430000060006060E07FC03F800000000000005E
:10644000000000000000000001C003C003C006C03F
:106450000CC00CC018C030C03FE03FE000C003E0FB
:1064600003E0000000000000000000000000000049
:106470001FC01FC0180018001F801FC018E0006058
:106480000060006030E03FC01F800000000000009E
:10649000000000000000000003E00FE01E001800F4
:1064A000380037803FC038E03060306018E01FC0EF
:1064B0000780000000000000000000000000000055
:1064C0003FE03FE03060006000C000C000C00180DD
:1064D00001800180030003000300000000000000B1
:1064E00000000000000000000F801FC038E0306096
:1064F00038E01FC01FC038E03060306038E01FC097
:106500000F800000000000000000000000000000FC
:106510000F001FC038C03060306038E01FE00F60EF
:1065200000E000C003C03F803E000000000000000B
:10653000000000000000000000000000000000005B
:1065400003800380038000000000000003800380BC
:1065500003800000000000000000000000000000B8
:10656000000000000000000001C001C001C00000E8
:106570000000000003800300060006000400000085
:10658000000000000000000000000000003000F0EB
:1065900003C007001C0078001C00070003C000F0C7
:1065A00000300000000000000000000000000000BB
:1065B00000000000000000007FF07FF000000000FD
:1065C0007FF07FF0000000000000000000000000ED
:1065D00000000000000000000000000030003C004F
:1065E0000F00038000E0007800E003800F003C0013
:1065F000300000000000000000000000000000006B
:1066000000000F801FC018601860006001C0038088
:106610000300000000000700070000000000000069
:10662000000000000000000003800C8008401040C3
:10663000104011C012401240124011C0100008005A
:10664000084007800000000000000000000000007B
:1066500000001F801F80038006C006C00CC00C60B5
:106660001FE01FE0303078787878000000000000EC
:10667000000000000000000000003F803FC01860E4
:10668000186018E01FC01FE01870183018303FF075
:106690003FE00000000000000000000000000000DB
:1066A000000007B00FF01C703830300030003000B0
:1066B000300038301C700FE007C000000000000000
