:020000040800F2
:1000000000040020E30D0008F10D0008F30D0008C6
:10001000F50D0008F70D0008F90D000800000000BC
:10002000000000000000000000000000FB0D0008C0
:10003000FD0D000800000000FF0D0008010E000883
:10004000450E0008470E0008490E00084B0E000838
:100050004D0E00084F0E0008510E0008530E000808
:10006000550E0008570E0008590E00085B0E0008D8
:100070005D0E00085F0E0008610E0008630E0008A8
:10008000650E0008670E0008690E0008030E0008E0
:10009000030E0008030E0008030E0008730E00088C
:1000A000750E0008770E0008790E00087B0E000818
:1000B0007D0E00087F0E0008810E0008830E0008E8
:1000C000850E0008870E0008890E00088B0E0008B8
:1000D0008D0E00088F0E0008910E0008930E000888
:1000E000950E0008970E0008990E00089B0E000858
:1000F0009D0E00089F0E0008A10E0008A30E000828
:10010000A50E0008A70E0008A90E0008AB0E0008F7
:10011000AD0E0008AF0E0008B10E0008B30E0008C7
:10012000B50E0008B70E0008B90E0008BB0E000897
:1001300000F002F800F03AF80AA090E8000C8244BF
:100140008344AAF10107DA4501D100F02FF8AFF29C
:10015000090EBAE80F0013F0010F18BFFB1A43F0A5
:1001600001031847A0280000C0280000103A24BF4F
:1001700078C878C1FAD8520724BF30C830C144BF0C
:1001800004680C607047000000230024002500264E
:10019000103A28BF78C1FBD8520728BF30C148BFEA
:1001A0000B6070471FB51FBD10B510BD01F00DFAF3
:1001B0001146FFF7F7FF00F0ECFE01F02BFA03B455
:1001C000FFF7F2FF03BC01F033FA000010B504465C
:1001D000C448844208D10121042000F01DFB002105
:1001E000042000F019FB46E0BF48844208D10121F9
:1001F000082000F011FB0021082000F00DFB3AE080
:10020000BA48844208D10121102000F005FB0021EA
:10021000102000F001FB2EE0B548844208D10121F6
:10022000202000F0F9FA0021202000F0F5FA22E069
:10023000B048844208D10121402000F0EDFA0021AD
:10024000402000F0E9FA16E0AB48844208D10121D1
:10025000802000F0E1FA0021802000F0DDFA0AE0C1
:10026000A648844207D10121801500F0D5FA00216B
:10027000A01500F0D1FA10BD10B50121084600F01C
:10028000CBFA0021012000F0C7FA10BD2DE9F041A2
:10029000024600250026002000230024002791F8B4
:1002A00003C00CF00F0591F803C00CF0100CBCF16A
:1002B000000F03D091F802C04CEA050591F800C088
:1002C000BCF1000F31D0146800202BE04FF0010C7E
:1002D0000CFA00F3B1F800C00CEA03069E4220D1EC
:1002E00083004FF00F0C0CFA03F7BC4305FA03FC34
:1002F0004CEA040491F803C0BCF1280F06D14FF07A
:10030000010C0CFA00FCC2F814C00AE091F803C01A
:10031000BCF1480F05D14FF0010C0CFA00FCC2F8FB
:1003200010C0401C0828D1D31460B1F800C0BCF143
:10033000FF0F34DD546800202EE000F1080C4FF070
:10034000010808FA0CF3B1F800C00CEA03069E425B
:1003500021D183004FF00F0C0CFA03F7BC4305FAD0
:1003600003FC4CEA040491F803C0BCF1280F05D14A
:1003700000F1080C08FA0CF8C2F8148091F803C0D8
:10038000BCF1480F07D100F1080C4FF0010808FA42
:100390000CF8C2F81080401C0828CED35460BDE889
:1003A000F0814FF6FF710180022181700421C1703C
:1003B00070470246002093680B400BB1012000E01B
:1003C000002070470146886880B2704702460020CE
:1003D000D3680B400BB1012000E0002070470146BC
:1003E000C86880B2704701617047416170470AB1C7
:1003F000016100E041617047C16070474FF4803295
:100400000A43826181618261826982697047024622
:1004100000203B4B18684FF68073184040EA0210EA
:100420000843374B186070473649C8617047F0B5CC
:100430000A460023002400210025314E7168C0F3D4
:10044000034583B200F44016B6F5401F08D121F0F1
:1004500070612B4E766826F07066294F7E6012E040
:1004600000F48016B6F5801F06D1032606FA05F4BF
:10047000A14341F0706106E0460D360103FA06F62D
:10048000B14341F0706122B1460D360103FA06F620
:1004900031431B4E7160F0BD30B500228B071C0F3D
:1004A0000F2303FA04F2164B08338C1053F8243050
:1004B0009343134C08348D1044F8253023468C1098
:1004C00053F824308C07240F00FA04F423430C4C17
:1004D00008348D1044F8253030BD0A49DC310860FD
:1004E0007047000000080140000C0140001001406E
:1004F0000014014000180140001C01400020014090
:100500000000014000002042DF48006840F0010088
:10051000DD49086008464068DC490840DA4948601F
:1005200008460068DA490840D7490860084600686C
:1005300020F4802008600846406820F4FE004860EF
:100540004FF41F0088607047CF49096821F480315B
:10055000CD4A11601146096821F480211160B0F57F
:10056000803F03D0B0F5802F0ED106E0C649096860
:1005700041F48031C44A116007E0C349096841F47D
:10058000A021C14A116000E000BF00BF704710B554
:1005900001460022002300204A11012A02D1BA4C50
:1005A000236806E0022A02D1B74C236A01E0B64C68
:1005B000636A01F01F02012494401C400CB1012029
:1005C00000E0002010BD38B5002000900024002578
:1005D00000BF3120FFF7DBFF05460098401C00906C
:1005E0000098B0F5A06F01D0002DF2D03120FFF7B8
:1005F000CEFF08B1012400E00024204638BD0146AA
:100600000020A14A106820F0F80040EAC100106004
:100610007047A04908607047024600209A4B58680E
:1006200020F47C1042EA01031843974B586070474E
:1006300098490866704701460020934A506820F0A8
:1006400003000843506070478F48406800F00C007A
:100650007047014600208C4A506820F0F0000843A3
:100660005060704701460020874A506820F4E060DF
:1006700008435060704701460020834A506820F4C8
:10068000605040EAC1005060704729B17E4A527AFA
:1006900002437D4B5A7204E07B4A527A82437A4B82
:1006A0005A7270477B49D831086070470146002074
:1006B000754A506820F4404008435060704700215C
:1006C000714A20321170704A82F82010012802D03D
:1006D00004280AD104E001216B4A2032117005E0A0
:1006E0000521694A2032117000E000BF00BF704749
:1006F0006949086070476449096A0143624A1162A6
:100700007047654944390860704730B500210022C0
:10071000002400235C4D6D6805F00C0121B1042913
:1007200005D0082923D105E05C4D056022E05B4D32
:1007300005601FE0544D6D6805F47012524D6D68F0
:1007400005F48034022505EB92421CB9544D554303
:1007500005600BE04C4D6D6805F400351DB1504D42
:100760005543056002E04D4D5543056002E04B4D99
:10077000056000BF00BF444D6D6805F0F001090938
:10078000484D6B5C0568DD4045603F4D6D6805F484
:10079000E061090A434D6B5C4568DD4085603A4D78
:1007A0006D6805F46051C90A3E4D6B5C4568DD40DB
:1007B000C560354D6D6805F44041890B3A4D6B5C61
:1007C000C568B5FBF3F5056130BD29B12E4A526904
:1007D00002432D4B5A6104E02B4A526982432A4B53
:1007E0005A61704729B1284A92690243264B9A619F
:1007F00004E0254A92698243234B9A61704729B1EC
:10080000214AD2690243204BDA6104E01E4AD269D0
:1008100082431D4BDA61704729B11B4AD2680243FB
:10082000194BDA6004E0184AD2688243164BDA604A
:10083000704729B1144A12690243134B1A6104E04C
:10084000114A12698243104B1A61704712494039AC
:10085000086070470F49C86470470B49C8717047FA
:100860000948406A40F08070074948627047014675
:100870000020054A92680A400AB1012000E00020E9
:100880007047014988727047001002400000FFF86D
:10089000FFFFF6FE000042428004424200127A004E
:1008A00000093D000000002010000020014600204B
:1008B000FD4A106800F03800084310607047FA499C
:1008C000096821F00801F84A1160114609680143DE
:1008D00011607047F449096821F01001F24A116073
:1008E00011460968014311607047F048EE494860BD
:1008F000EF4848607047EC48006940F08000EA49E2
:10090000086170470420E849C96801F0010109B194
:1009100001200EE0E449C96801F0040109B1022098
:1009200007E0E149C96801F0100109B1032000E0C6
:100930000420704708B500200090FF20009002E0DE
:100940000098401E009000980028F9D108BD70B5AD
:1009500004460425FFF7D6FF054605E0FFF7EAFF4A
:10096000FFF7D0FF0546641E012D01D1002CF5D103
:1009700004B90525284670BD70B50546042440F627
:10098000FF70FFF7E4FF0446042C19D1C648006944
:1009900040F00200C449086108464561006940F022
:1009A0004000086140F6FF70FFF7D1FF0446052CB8
:1009B00006D0BD48006941F6FD710840BA4908619A
:1009C000204670BD10B5042440F6FF70FFF7BFFF4E
:1009D0000446042C18D1B448006940F00400B24920
:1009E00008610846006940F04000086140F6FF7069
:1009F000FFF7ADFF0446052C06D0AB48006941F671
:100A0000FB710840A8490861204610BD10B50424B8
:100A100040F6FF70FFF79BFF0446042C3BD1A34830
:100A2000A1498860A24888600846006940F020001B
:100A300008610846006940F04000086140F6FF7018
:100A4000FFF785FF0446042C1CD19748006941F646
:100A5000DF710840944908610846006940F01000C1
:100A60000861A520934908800F20FFF770FF044616
:100A7000052C10D08C48006941F6EF7108408A4976
:100A8000086108E0052C06D08748006941F6EF713F
:100A9000084085490861204610BDF8B506460D4658
:100AA0000424002000900F20FFF751FF0446042C7F
:100AB00028D17D48006940F001007B4908613580FC
:100AC0000F20FFF744FF0446042C12D1B01C009005
:100AD000280C009908800F20FFF739FF0446052CE9
:100AE00010D07148006941F6FE7108406E490861F6
:100AF00008E0052C06D06C48006941F6FE710840FC
:100B0000694908612046F8BD70B505460E460424C3
:100B10000F20FFF71CFF0446042C13D16248006924
:100B200040F00100604908612E800F20FFF70FFFA1
:100B30000446052C06D05C48006941F6FE71084069
:100B400059490861204670BD70B505460E4604241B
:100B50000F20FFF7FCFE0446042C17D153485249DE
:100B60008860534888600846006940F010000861BA
:100B70002E800F20FFF7EBFE0446052C06D04A48D6
:100B8000006941F6EF71084047490861204670BD91
:100B90002DE9F04704464FF6FF763746B046B1469A
:100BA0000425E443E6B2C4F30727C4F307484FEA39
:100BB00014690F20FFF7CBFE0546042D40D13B48BA
:100BC000394988603A4888600846006940F010005A
:100BD0000861FF2E06D03748083006800F20FFF747
:100BE000B6FE0546042D08D1FF2F06D031480A3045
:100BF00007800F20FFF7ABFE0546042D0AD1B8F1A0
:100C0000FF0F07D02B480C30A0F800800F20FFF713
:100C10009EFE0546042D0AD1B9F1FF0F07D02548E5
:100C20000E30A0F800900F20FFF791FE0546052D2D
:100C300006D01D48006941F6EF7108401A49086165
:100C40002846BDE8F08770B50546042440F6FF70DD
:100C5000FFF77DFE0446042C49D1144812498860F0
:100C6000134888600846006940F020000861084683
:100C7000006940F04000086140F6FF70FFF767FE32
:100C80000446042C2AD10848006941F6DF71084067
:100C9000054908610846006940F0100008615DB12F
:100CA0000020044908800AE0002002402301674533
:100CB000AB89EFCD00F8FF1FA5204549088040F61D
:100CC000FF70FFF744FE0446052C10D04148006930
:100CD00041F6EF7108403F49086108E0052C06D055
:100CE0003C48006941F6DF7108403A4908612046F6
:100CF00070BD2DE9F04105460E46174604243648DE
:100D000034498860354888600F20FFF720FE04468C
:100D1000042C19D12F48006940F010002D490861BA
:100D200047F0F800304328432949891C08800F20E8
:100D3000FFF70DFE0446052C06D02648006941F653
:100D4000EF710840234908612046BDE8F081214841
:100D5000C069800870471F48006A704700201D491D
:100D6000C96901F0020109B1012000E000207047CB
:100D700000201849096801F0200109B1012000E0B4
:100D80000020704729B1134A12690243114B1A61BE
:100D900004E0104A126982430E4B1A617047014603
:100DA0000020012908D10B4AD26902F001020AB1E0
:100DB000012008E0002006E0064AD2680A400AB195
:100DC000012000E0002070470249C8607047000021
:100DD00000F8FF1F0020024023016745AB89EFCDDB
:100DE00070470B4880470B4981F308880A48004741
:100DF000FEE7FEE7FEE7FEE7FEE7FEE7FEE7FEE7CB
:100E0000FEE7FEE705480649064A074B7047000023
:100E1000E10D00089806002031010008980000202C
:100E20009806002098020020980200207047704722
:100E300000BFFEE700BFFEE700BFFEE77047704758
:100E400070477047704770477047704770477047EA
:100E500070477047704770477047704770477047DA
:100E600070477047704770477047704770477047CA
:100E700070477047704770477047704770477047BA
:100E800070477047704770477047704770477047AA
:100E9000704770477047704770477047704770479A
:100EA000704770477047704770477047704770478A
:100EB00070477047704770477047704708B5012109
:100EC0000820FFF78FFC4FF47870ADF80000022087
:100ED0008DF8020010208DF8030069463F48FFF7A7
:100EE000D5F91020ADF8000002208DF80200042092
:100EF0008DF8030069463948FFF7C8F908BD10B5F9
:100F0000FFF702FB4FF48030FFF71EFBFFF75BFBA0
:100F10003349087008460078012805D14FF4E011E4
:100F20000004FFF779FB0DE00120FFF772FB00BF23
:100F30002120FFF72CFB0028FAD04FF4601100208D
:100F4000FFF76AFB1020FFF7C5FC0220FFF7AEFC9D
:100F50000020FFF77EFB0020FFF78DFB4FF4806041
:100F6000FFF780FB0120FFF763FB00BF3920FFF78D
:100F70000EFB0028FAD00220FFF75DFB00BFFFF751
:100F800063FB0828FBD1012144F20900FFF72AFC8A
:100F900010BD08B5FFF7B3FFFFF790FF00F007FAA9
:100FA0004FF4967000F043F8FF200090002168464F
:100FB00000F011FA0021684600F00DFA4FF4967027
:100FC00000F035F80121074800F005FA0121054835
:100FD00000F001FA00BFFEE770470000000C01407E
:100FE000140000203E16000870B5044600251BE0E2
:100FF0004FF480711548FFF7F8F904F0800028B12C
:101000004FF400711148FFF7EEF904E04FF400715E
:101010000E48FFF7EAF96006040E4FF480710B48A2
:10102000FFF7E1F9681CC5B2082DE1DB70BD0022B5
:10103000002100BF06E0002200E0521CB2F5205F54
:10104000FBD3491C8142F6D370470000000C0140DD
:1010500010B5002400BF0AE01021FE48FFF7B6F9E2
:1010600008B9012010BD0A20FFF7E1FF641CB4F5A8
:10107000C87FF1D30020F5E710B504468021F5487C
:10108000FFF7B3F94021F348FFF7AFF92046FFF728
:10109000ABFF8021EF48FFF7A6F910BD70B50546FC
:1010A0000C46FFF7D5FF8021EA48FFF79EF9402163
:1010B000E848FFF79AF92846FFF796FF4021E548F0
:1010C000FFF791F92046FFF78FFF8021E148FFF7F6
:1010D0008AF970BD2DE9F04104460E4600272546E9
:1010E0008021DC48FFF781F94021DA48FFF77DF9DC
:1010F0002878FFF779FF6D1C4021D648FFF773F978
:1011000000BF05E02878FFF76FFF6D1C781CC7B2A1
:10111000701EB842F6DC8021CE48FFF764F9BDE8C6
:10112000F0812DE9F04104460E4615460027B846E9
:10113000E11704EB5171C910A4EBC10151B1204674
:10114000E11704EB5171C910A4EBC101C1F1080111
:101150002144CCB22046E11704EB5171C1F3C7041E
:10116000FFF776FF8021BB48FFF73FF94021B948E0
:10117000FFF73BF92420FFF737FF4021B548FFF781
:1011800032F900270BE04FF0000805E02878FFF760
:101190002BFF6D1C08F10108A045F7DB7F1CB7424F
:1011A000F1D38021AB48FFF71EF9BDE8F0812DE9AE
:1011B000F04104460D4616460027B846E11704EBF9
:1011C0005171C910A4EBC10151B12046E11704EBE4
:1011D0005171C910A4EBC101C1F108012144CCB285
:1011E0002046E11704EB5171C1F3C704FFF730FF4C
:1011F00080219848FFF7F9F840219648FFF7F5F865
:101200002420FFF7F1FE40219248FFF7ECF8002779
:101210000AE04FF0000804E03046FFF7E5FE08F171
:101220000108A045F8DB7F1CAF42F2D3802189483A
:10123000FFF7D9F8BDE8F08110B5C0212220FFF7F3
:101240002DFF2020FFF718FF10BD2DE9FE430446B7
:101250000D4617461E46DDE90A8944208DF8080030
:101260008DF809408DF80A5045208DF800008DF862
:1012700001708DF802608DF803808DF804900321D1
:1012800002A8FFF727FF05216846FFF723FFBDE807
:10129000FE837CB506460C4615464E208DF80400AC
:1012A0008DF805604F208DF800008DF801408DF815
:1012B0000250022101A8FFF70DFF03216846FFF746
:1012C00009FF7CBD2DE9FC4706460F4614461D4626
:1012D000DDE90A892B46224639463046CDE90089A8
:1012E000FFF7B3FF2A4621463046FFF7D2FFBDE89D
:1012F000FC871CB504215848FFF7ECFE0421574831
:10130000FFF7E8FE02215648FFF7E4FE02215548A8
:10131000FFF7E0FE02215448FFF7DCFE02215348AC
:10132000FFF7D8FE002000900346C7221821019045
:10133000FFF78BFF0022C7211046FFF7AAFF1CBD55
:1013400010B54FF400614348FFF74FF820214148A2
:10135000FFF74BF86420FFF76AFE20213D48FFF7B6
:1013600042F86420FFF763FEFFF7C3FF10BD10B51E
:10137000C7212220FFF792FE2020FFF77DFEFF20ED
:10138000FFF77AFE10BD10B504212220FFF786FE7C
:101390002020FFF771FEFF20FFF76EFE10BD70B535
:1013A00004460D4629462046FFF794FE70BD10B551
:1013B000FFF7C6FF1F212E48FFF7F1FFFFF73CFFA5
:1013C00010BD10B5FFF7BCFF1F212A48FFF7E7FF4C
:1013D000FFF732FF10BD70B504460D460022C7214D
:1013E0001046FFF756FF2DB9FF22C8210846FFF728
:1013F000DEFE04E02246C8210846FFF792FEFFF712
:10140000B6FF70BD2DE9FC5F04460D4616461F462B
:10141000DDE90C89B9F1000F52D1C6F30720F1B212
:10142000AA46EB1705EB5373CDE90010C3F3C701D0
:10143000A346E31704EB5373C3F3C700FAB2C7F331
:101440000723FFF73FFF98F80020BB1B591C2B1BFD
:10145000D8B211E0000C0140150000201900002056
:1014600025000020290000202B0000202F00002054
:10147000E5290008C6290008FFF799FEFFF783FF5A
:10148000C820FFF7D4FDC6F30720F1B2EB1705EB38
:101490005373CDE90010C3F3C701E31704EB537393
:1014A000C3F3C700FAB2C7F30723FFF70BFF98F89F
:1014B0000020BB1B591C2B1BD8B2FFF778FE7FE026
:1014C000B9F1010F3ED1C6F30720F1B2AA46EB17DE
:1014D00005EB5373CDE90010C3F3C701A346E3172F
:1014E00004EB5373C3F3C700FAB2C7F30723FFF744
:1014F000E9FEBA1B511C2A1BD0B24246FFF711FE6F
:10150000FFF741FF4FF49670FFF791FDC6F30720F8
:10151000F1B2EB1705EB5373CDE90010C3F3C7012C
:10152000E31704EB5373C3F3C700FAB2C7F30723FF
:10153000FFF7C8FEBA1B511C2A1BD0B24246FFF768
:10154000F0FD3DE0C6F30720F1B2AA46EB1705EB2C
:101550005373CDE90010C3F3C701A346E31704EBAF
:101560005373C3F3C700FAB2C7F30723FFF7AAFE0A
:10157000BA1B511C2A1BD0B24246FFF7D2FDFFF71F
:1015800002FF4FF49670FFF752FDC6F30720F1B249
:10159000EB1705EB5373CDE90010C3F3C701E31755
:1015A00004EB5373C3F3C700FAB2C7F30723FFF783
:1015B00089FEBA1B511C2A1BD0B24246FFF7B1FD6F
:1015C000BDE8FC9F704770477047754600F02CF8E7
:1015D000AE4605006946534620F00700854618B020
:1015E00020B5FFF70FFCBDE820404FF000064FF09C
:1015F00000074FF000084FF0000B21F00701AC4648
:10160000ACE8C009ACE8C009ACE8C009ACE8C00966
:101610008D46704710B50446AFF300802046BDE804
:101620001040FEF7CCBD0000004870473400002099
:1016300001491820ABBEFEE72600020070470000FB
:10164000000000000000000000000000000000009A
:10165000000000000000000000000000000000008A
:10166000000000000000000000000000000000007A
:10167000000000000000000000000000000000006A
:10168000000000000000000000000000000000005A
:10169000000000000000000000000000000000004A
:1016A000000000000000000000000000000000003A
:1016B000000000000000000000000000000000002A
:1016C000000000000000000000000000000000001A
:1016D000000000000007FFFFFFFF80000000000087
:1016E00000000000000000000000000000001E1FBD
:1016F000FFFFCFE00000000000000000000000003D
:10170000000000000000003C8FFFFF07F000000019
:1017100000000000000000000000000000000000C9
:101720003DCFFFFF73F0000000000000000000004C
:101730000000000000000000007DEFFFFE73F800D5
:101740000FC07C380E000FF9FFE00E03F700E7FC36
:1017500000007CCFFFFE73F8000FC07C380E000F36
:10176000F9FFE00E03F781E7FC00007E1FFCFF0796
:10177000F8000FC0FC380E000FF9FFE00E01E38106
:10178000C7FC00007E1FF87F8FF8000EE0FC380ECB
:10179000000F001E000E01E381C78000007E1FF8CD
:1017A0007FDFF8000EE0DC380E000F001E000E0197
:1017B000E3C3C78000007E4FFA7FDFF8000EE1DC54
:1017C000380E000F001E000E01E1C3878000007E6E
:1017D0006FF27FDFC0000E71DC3FFE000FF81E00CD
:1017E0000E01E1C387FC00007E67F27FDFC0000EC0
:1017F000719C3FFE000FF81E000E01E1E787FC0020
:10180000007E73E67FDFF8000E739C3FFE1F8FF8AB
:101810001E000E01E0E707FC00007E73E67FDFF8A4
:10182000000E3B9C380E1F8F001E000E01E0E707E4
:101830008000007E79EE7FDFC0000E3B1C380E007A
:101840000F001E000E01E0FF078000007E7DCE7FAE
:10185000DFC0000E3F1C380E000F001E000E01E01E
:101860007E078000007E7CCE7FDFF8000E1F1C38D4
:101870000E000F001E000E01E07E078000007E7E3D
:101880005E7FDFF8000E1E1C380E000FFC1E000FDE
:10189000FBF07E07FE00007E7E1E7FDFF8000E0E4E
:1018A0001C380E000FFC1E000FFBF03C07FE000072
:1018B0007E7F3E7FDFF80000000000000000000097
:1018C0000000000000000000007E7FFE7FDC38008A
:1018D0000000000000000000000000000000000008
:1018E00000007C3FFE7FD99800000000000000004F
:1018F0000000000000000000000000799FFE0003CF
:10190000D8000000000000000000000000000000FF
:10191000000000007BC0000003C0000000000000C9
:10192000000000000000000000000000007B9FFE9F
:101930007FD99800000000000000000000000000B7
:10194000000000000000791FFE7FDC38000000006E
:101950000000000000000000000000000000007C0B
:101960003FFE7FDFF80000000000000000000000E4
:1019700000000000000000007FFFFE7FDFF8000095
:101980000000000000000000000000000000000057
:10199000007FFFFE7FDC0000000000000000000070
:1019A000000000000000000000007FFFFE7FDFF865
:1019B0000000000000000000000000000000000027
:1019C0000000007FFFFE7FDC000000000000398087
:1019D00000000000000C0300000000007FFFFE7FFD
:1019E000DC000000060E0039800070E180000C036E
:1019F00018E30000007FFFFE7FDFF80000060E0006
:101A000039800030E180000C0318E30000007FFF04
:101A1000FE7FDC000000060E0039800030F38000FD
:101A20000C0318E30000007FFFFE7FDFF8000006D4
:101A30000E1E39878039B38786CC3B18E30000003F
:101A40007FFFFE7FDFF80000060E3F398FE039B3DD
:101A50001FC6CC7F18E30000007FFFFE7FDFF80089
:101A60000007FE63399C6019B318E70CE718E30020
:101A700000007FFFFE7FDFF8000007FE63B998706B
:101A80001BBB38670CC318E30000007FFFFC1F0777
:101A9000F80000060E7FB998701F1F38660CC31837
:101AA000E30000007FFFF99F73F80000060E603925
:101AB00098701F1E38660CC300000000003FFFF93D
:101AC000DE73F00000060E71399CE00F1E1CE60C60
:101AD000E718E30000003FFFF9DE73F00000060E98
:101AE0003F398FC00E1E0FC60C7F18E70000001F85
:101AF000FFF81F07E0000000000C000300000003D7
:101B000000003008420000000FFFFC3F8FC00000C3
:101B100000000000000000000000000000000000C5
:101B200000000000000000000000000000000000B5
:101B300000000000000000000000000000000000A5
:101B40000000000000000000000000000000000095
:101B50000000000000000000000000000000000085
:101B60000000000000000000000000000000000075
:101B70000000000000000000000000000000000065
:101B80000000000000000000000000000000000055
:101B90000000000000000000000000000000000045
:101BA0000000000000000000000000000000000035
:101BB0000000000000000000000000000000000025
:101BC0000000000000000000000000000000003FD6
:101BD000DFDFDFDFFFEFEFEFEFFFF7F7F7F7FBFBFD
:101BE000FBFBFBFDFDFDFDFE000000000000000012
:101BF00000000000000000000000000000000000E5
:101C000000000000000000000000000000000000D4
:101C100000000000000000000000000000000000C4
:101C200000000000000000000000000000000000B4
:101C300000000000000000000000000000000000A4
:101C400000000000000000000000000000F00000A4
:101C5000018000C0000006060E31CE0E0C00000010
:101C6000000000000000FE0000018018C000001FFE
:101C70009F1F319F1F1F000000000000000000C6D2
:101C800000000180180000001199B31B0193B300FC
:101C90000000000000000000C63C79F1B1BCCF8B11
:101CA0008181B1B19B01B1B30000000000000000D0
:101CB00000CE66C9B9B1BCDDCDC183B1B18E0331EF
:101CC000B1800000000000000000F866E319B19840
:101CD000D8CCC00331B18E0731B1800000000000C4
:101CE000000000CC7E7B19B198D8C8C00E31B19BE2
:101CF0000E31B3000000000000000000C6601B1998
:101D0000B198D8C8C01C19B31B18333300000000A9
:101D10000000000000C77CF9F99F9CCF88C19F9FFD
:101D20001F319F9F1F000000000000000000C33C07
:101D3000F0E19D8CC708C19F8E0E71DF8E0C0000F4
:101D40000000000000000000000000000000000093
:101D50000000000000000000000000000000000083
:101D60000000000000000000000000000000000073
:101D70000000000000000000000000000000000063
:101D80000000000000000000000000000000000053
:101D90000000000000000000000000000000000043
:101DA0000000000000000000000000000000000033
:101DB0000000000000000000000000000000000023
:101DC0000000000000000000000000000000000013
:101DD000000000000000000000000000001C0000E7
:101DE00000000C0000186006000000007006306162
:101DF000BE018C1800007F000000008C00001860FD
:101E00000660000000F80F9861BE03EC300000632C
:101E1000000000018000001C6006600000000C0152
:101E200098C3300666300000C1B70F34F3EDB8FC3C
:101E30000C43C6F3C3E3CC0C0198C33006663000F4
:101E400000C1BB993C9BCDDCDC0CC6E6F266E66CBF
:101E5000780F0C823E0666600000C1B991B0398DE2
:101E60008D8C06CC6660E66660780F8D860706630B
:101E7000600000C1B1BFB1F98D8D8C068C6663EC3A
:101E800067E00C018D84030663600000E3B99831BC
:101E9000998D8D8C078C66666666000C01870C0335
:101EA0000663C000007F3F9F31F9ED8CFC0387E69D
:101EB00077E7E7ECFDDF870C3E67E1C000001C37E9
:101EC0000F30D8ED8C6C030386336361CCF08E0742
:101ED000183C2181C00000003000000000000C0010
:101EE000000000006000000000180000000000007A
:101EF00000300000000000F80000000007C00000F3
:101F000000000000000000000000300000000000A1
:101F1000F00000000007800000000000000000004A
:101F200000000000000000000000000000000000B1
:101F300000000000000000000000000000000000A1
:101F40000000000000000000000000000000000091
:101F50000000000000000000000000000000000081
:101F600000000000000000000000000000700038C9
:101F70000000C00E0E00060001E300300060D80033
:101F8000000180000000FE00600000C00E1E000680
:101F90000007F3003000609800000180000000C6D8
:101FA00000600000C00F1E0006000E13003000612C
:101FB0009800000180000000C63CF6CE1CDC0F1625
:101FC0003C3E3CCC033E3E3E61981E1EF980000024
:101FD00000CE66F7DB30EC0D366E7666CCF3773FDD
:101FE000266318373A9D80000000F8666631B0CC51
:101FF0000DB6C666660CF3633306631863601D8016
:10200000000000CC7E663FBCCC0DA6C3667E0C33C0
:1020100063233E62186360FD80000000C660663086
:1020200006CC0CE6E666600E3363336666186370B2
:10203000CD80000000C67C661F3ECC0CE67E7E7E16
:10204000E7F33E3F7E661F3F3EFD80000000C33C3D
:10205000660F38CC0CC63C3E1C41E31C3E3A6C1F5C
:102060001C1E6D8000000000000000000000000049
:10207000000000000000000C000000000000000054
:102080000000000000000000000000000000000050
:102090000000000000000000000000000000000040
:1020A0000000000000000000000000000000000030
:1020B0000000000000000000000000000000000020
:1020C0000000000000000000000000000000000010
:1020D0000000000000000000000000000000000000
:1020E00000000000000000000000000000000000F0
:1020F000000000000000000000000000000C0000D4
:1021000000000000300000C0000000000060003847
:102110000000000000003E00000000000030000849
:10212000C00000E0E0006000FCFDE0000000006096
:10213000000000000000000018000000F1E0006056
:1021400000C0CEC000000000C03C7EE6EE632E3131
:10215000CF3EC78DC0F163C3E3CCC0CEC00000004A
:1021600000C06E7F677763373749BECECEC0DB676E
:10217000E7676CF0CCC000000000C0C66666636311
:1021800033360198CC6CC0DB6C6666603CFCC000EA
:10219000000000C0C66666636323360F98D86C40A3
:1021A000DA6C3627E00CC0C000000000E0C66666AE
:1021B000636323361998CCEC40CE666666000CC08B
:1021C000C0000000007E7E6666633F2333DF8ECF53
:1021D000CC40CE67E7E7EEFCC1E0000000001E3C0B
:1021E0006666633B2331CF8EC78C40CC63C3E1C4AA
:1021F000F8C1E00000000000000000000000000046
:1022000000000000000000000000000000000000CE
:1022100000000000000000000000000000000000BE
:1022200000000000000000000000000000000000AE
:10223000000000000000000000000000000000009E
:10224000000000000000000000000000000000008E
:10225000000000000000000000000000000000007E
:10226000000000000000000000000000000000006E
:10227000000000000000000000000000000000005E
:10228000000000000000000000000000000000004E
:10229000000000000000000000000000000000003E
:1022A000000000000000000000000000000000002E
:1022B000000000000000000000000000000000001E
:1022C000000000000000000000000000000000000E
:1022D00000000000000000000000000000000000FE
:1022E00000000000000000000000000000000000EE
:1022F00000000000000000000000000000000000DE
:1023000000000000000000000000000000000000CD
:1023100000000000000000000000000000C6318046
:1023200000000000000000000000000000000000AD
:10233000000000000000C631800000000000000026
:10234000000000000000000000000000000000C6C7
:1023500031800000000000000000000000000000CC
:102360000000000000000000C63180000000000FE7
:10237000FFFF8000000000000000000000000000DF
:1023800000C63180000000003FFFFFE000000000B9
:102390000001FF00000000000000C63180000000C6
:1023A000003FFFFFF0000000000007FFC00000003A
:1023B000000000C6318000000000700001F800003D
:1023C0000000000FFFE0000000000000000000001F
:1023D000000000700001BC00000000000FFFF000D2
:1023E0000000000000000000000000007000019EDE
:1023F00000000000001FEFF00000000000000000DF
:1024000000000000007000018E00000000003FE7A7
:10241000F9000000000003FFFFE000000000700072
:1024200001C700000000003FC7FF000000000003DC
:10243000FFFFE00000000070FFF1FF00000000005F
:102440007FC3FF000000001FE3FFFFE7F80000006C
:1024500070FFF0FF00000000007F83FE000000001E
:102460001FE3FFFFE7F80000007000000700000016
:102470000000FF01FE000000000003FFFFE000007D
:102480000000700000070000000000FF01FE0000D7
:1024900000000003FFFFE0000000007000000700E4
:1024A000000000003E07FE000000000003FFFFE008
:1024B000000000007000000700000000001E01FC8A
:1024C000000000001FE3FFFFE7F800000070FFFFBF
:1024D000870000000001C4003C400000001FE3FF33
:1024E000FFE7F800000070FFFF87000000001FC03A
:1024F0003C01C00000000003FFFFE000000000708E
:102500007FFF8700000000FFC03C07E000000000E4
:1025100003FFFFE000000000700000070000000063
:102520003FE0381FE00000000003FFFFE000000074
:102530000070000007000000001FE0780FF00000AE
:10254000001FE3FFFFE7F800000070000007000035
:1025500000003FE07E0FF80000001FE3FFFFE7F8F8
:1025600000000070FFFF87000000007FF07C07F88C
:102570000000000003FFFFE00000000070FFFF8785
:10258000000000007FF01807FC0000000003FFFFC0
:10259000E00000000070FFFF8700000000FF9030A7
:1025A00003FC0000000FE3FFFFE3F80000007000F1
:1025B000000700000000FF002001FC0000001FE3F6
:1025C000FFFFE7F80000007000000700000000FFB8
:1025D000004001FC0000000FE3FFFFE7F8000000EF
:1025E0007000000700000000FE000040FC0000003A
:1025F0000003FFFFE0000000007000000700000083
:10260000007C0000C0FC0000000003FFFFE00000B1
:10261000000070FFFF87000000003C0001C0780050
:10262000000000000000000000000070FFFF8700B5
:102630000000003FFF83FFF80000000000000000E2
:102640000000000070000007000000001FFF87FF6F
:10265000F00000000000C6318000000000700000A3
:1026600007000000001FFF8FFFF00000000000C601
:1026700031800000000070000007000000000FFF24
:102680009FFFE00000000000C631800000000070E5
:102690000000070000000007FF8FFFE000000000BF
:1026A00000C631800000000070000007000000003C
:1026B00003FF87FFC00000000000C631800000005B
:1026C000003FFFFFFE0000000000FF83FF800000CE
:1026D000000000C63180000000003FFFFFFE000048
:1026E0000000000001C0000000000000C6318000B2
:1026F0000000000FFFFFF800000000000000C00015
:102700000000000000C63180000000000000000052
:102710000000000000000040000000000000000079
:1027200000000000000000000000000000000000A9
:102730000000000000000000000000000000000099
:102740000000000000000000000000000000000089
:102750000000000000000000000000000000000079
:102760000000000000000000000000000000000069
:102770000000000000000000000000000000000059
:102780000000000000000000000000000000000049
:102790000000000000000000000000000000000039
:1027A0000000000000000000000000000000000029
:1027B0000000000000000000000000000000000019
:1027C0000000000000000000000000000000000009
:1027D00000000000000000000000000000000000F9
:1027E00000000000000000000000000000000000E9
:1027F00000000000000000000000000000000000D9
:102800000000000000000000018600000000000041
:10281000000000000000000000000000000F800029
:102820000001B600000000000000000000000000F1
:102830000000000000000CC00000018600007800CD
:1028400000000F0004000000000000000000000C69
:10285000DE7C73C1B6CE00400000000C000000001A
:10286000C2010402003000000DC266DB41B69900CF
:1028700043CF3BD90C3D34F3E0C6012402022000D3
:10288000000F9F66FB39B79F00726926490705A4B0
:102890009660E64974B2677317D80C13668301B764
:1028A0009800426FA64F01BCA49660AE4924D29214
:1028B000649F6C0C1F7CD301B6DD0042682646097C
:1028C000ECE49260AA49249A726CD3640C1B78736E
:1028D00001B666007A6723C60F34C493E0BA492470
:1028E0009A92649364000060000000000000000001
:1028F000440000000040927934F2F36793640000D2
:10290000600000000000000003DC00000003C000C5
:102910000000800000000000000000000000000037
:102920000000000000000000000000800000000027
:102930000000000000000000000000000000000097
:102940000000000000000000000000000000000087
:102950000000000000000000000000000000000077
:102960000000000000000000000000000000000067
:102970000000000000000000000000000000000057
:102980000000000000000000000000000000000047
:102990000000000000000000000000000000000037
:1029A0000000000000000000000000000000000027
:1029B0000000000000000000000000000000000017
:1029C0000000000000003210181828181818180805
:1029D000000000000000000000000013112263113D
:1029E00000000000003266664466AA1180081118D3
:1029F00081181188118811880000FFFFFFFF5FAF69
:102A0000FFFF2F00242A00080000002034000000EF
:102A10006C010008582A00083400002064060000F9
:102A20008801000800000000010203040102030401
:102A300006070809020406080001C700000CD7D6E3
:102A40009D218F22F0036604042C7FF01F3A1A3B6D
:082A5000083C331101000000F5
:0400000508000131BD
:00000001FF
