:020000040800F2
:1000000000040020E30D0008F10D0008F30D0008C6
:10001000F50D0008F70D0008F90D000800000000BC
:10002000000000000000000000000000FB0D0008C0
:10003000FD0D000800000000FF0D0008010E000883
:10004000450E0008470E0008490E00084B0E000838
:100050004D0E00084F0E0008510E0008530E000808
:10006000550E0008570E0008590E00085B0E0008D8
:100070005D0E00085F0E0008610E0008630E0008A8
:10008000650E0008670E0008690E0008030E0008E0
:10009000030E0008030E0008030E0008730E00088C
:1000A000750E0008770E0008790E00087B0E000818
:1000B0007D0E00087F0E0008810E0008830E0008E8
:1000C000850E0008870E0008890E00088B0E0008B8
:1000D0008D0E00088F0E0008910E0008930E000888
:1000E000950E0008970E0008990E00089B0E000858
:1000F0009D0E00089F0E0008A10E0008A30E000828
:10010000A50E0008A70E0008A90E0008AB0E0008F7
:10011000AD0E0008AF0E0008B10E0008B30E0008C7
:10012000B50E0008B70E0008B90E0008BB0E000897
:1001300000F002F800F03AF80AA090E8000C8244BF
:100140008344AAF10107DA4501D100F02FF8AFF29C
:10015000090EBAE80F0013F0010F18BFFB1A43F0A5
:100160000103184790280000B0280000103A24BF6F
:1001700078C878C1FAD8520724BF30C830C144BF0C
:1001800004680C607047000000230024002500264E
:10019000103A28BF78C1FBD8520728BF30C148BFEA
:1001A0000B6070471FB51FBD10B510BD01F009FAF7
:1001B0001146FFF7F7FF00F0ECFE01F027FA03B459
:1001C000FFF7F2FF03BC01F02BFA000010B5044664
:1001D000C448844208D10121042000F01DFB002105
:1001E000042000F019FB46E0BF48844208D10121F9
:1001F000082000F011FB0021082000F00DFB3AE080
:10020000BA48844208D10121102000F005FB0021EA
:10021000102000F001FB2EE0B548844208D10121F6
:10022000202000F0F9FA0021202000F0F5FA22E069
:10023000B048844208D10121402000F0EDFA0021AD
:10024000402000F0E9FA16E0AB48844208D10121D1
:10025000802000F0E1FA0021802000F0DDFA0AE0C1
:10026000A648844207D10121801500F0D5FA00216B
:10027000A01500F0D1FA10BD10B50121084600F01C
:10028000CBFA0021012000F0C7FA10BD2DE9F041A2
:10029000024600250026002000230024002791F8B4
:1002A00003C00CF00F0591F803C00CF0100CBCF16A
:1002B000000F03D091F802C04CEA050591F800C088
:1002C000BCF1000F31D0146800202BE04FF0010C7E
:1002D0000CFA00F3B1F800C00CEA03069E4220D1EC
:1002E00083004FF00F0C0CFA03F7BC4305FA03FC34
:1002F0004CEA040491F803C0BCF1280F06D14FF07A
:10030000010C0CFA00FCC2F814C00AE091F803C01A
:10031000BCF1480F05D14FF0010C0CFA00FCC2F8FB
:1003200010C0401C0828D1D31460B1F800C0BCF143
:10033000FF0F34DD546800202EE000F1080C4FF070
:10034000010808FA0CF3B1F800C00CEA03069E425B
:1003500021D183004FF00F0C0CFA03F7BC4305FAD0
:1003600003FC4CEA040491F803C0BCF1280F05D14A
:1003700000F1080C08FA0CF8C2F8148091F803C0D8
:10038000BCF1480F07D100F1080C4FF0010808FA42
:100390000CF8C2F81080401C0828CED35460BDE889
:1003A000F0814FF6FF710180022181700421C1703C
:1003B00070470246002093680B400BB1012000E01B
:1003C000002070470146886880B2704702460020CE
:1003D000D3680B400BB1012000E0002070470146BC
:1003E000C86880B2704701617047416170470AB1C7
:1003F000016100E041617047C16070474FF4803295
:100400000A43826181618261826982697047024622
:1004100000203B4B18684FF68073184040EA0210EA
:100420000843374B186070473649C8617047F0B5CC
:100430000A460023002400210025314E7168C0F3D4
:10044000034583B200F44016B6F5401F08D121F0F1
:1004500070612B4E766826F07066294F7E6012E040
:1004600000F48016B6F5801F06D1032606FA05F4BF
:10047000A14341F0706106E0460D360103FA06F62D
:10048000B14341F0706122B1460D360103FA06F620
:1004900031431B4E7160F0BD30B500228B071C0F3D
:1004A0000F2303FA04F2164B08338C1053F8243050
:1004B0009343134C08348D1044F8253023468C1098
:1004C00053F824308C07240F00FA04F423430C4C17
:1004D00008348D1044F8253030BD0A49DC310860FD
:1004E0007047000000080140000C0140001001406E
:1004F0000014014000180140001C01400020014090
:100500000000014000002042DF48006840F0010088
:10051000DD49086008464068DC490840DA4948601F
:1005200008460068DA490840D7490860084600686C
:1005300020F4802008600846406820F4FE004860EF
:100540004FF41F0088607047CF49096821F480315B
:10055000CD4A11601146096821F480211160B0F57F
:10056000803F03D0B0F5802F0ED106E0C649096860
:1005700041F48031C44A116007E0C349096841F47D
:10058000A021C14A116000E000BF00BF704710B554
:1005900001460022002300204A11012A02D1BA4C50
:1005A000236806E0022A02D1B74C236A01E0B64C68
:1005B000636A01F01F02012494401C400CB1012029
:1005C00000E0002010BD38B5002000900024002578
:1005D00000BF3120FFF7DBFF05460098401C00906C
:1005E0000098B0F5A06F01D0002DF2D03120FFF7B8
:1005F000CEFF08B1012400E00024204638BD0146AA
:100600000020A14A106820F0F80040EAC100106004
:100610007047A04908607047024600209A4B58680E
:1006200020F47C1042EA01031843974B586070474E
:1006300098490866704701460020934A506820F0A8
:1006400003000843506070478F48406800F00C007A
:100650007047014600208C4A506820F0F0000843A3
:100660005060704701460020874A506820F4E060DF
:1006700008435060704701460020834A506820F4C8
:10068000605040EAC1005060704729B17E4A527AFA
:1006900002437D4B5A7204E07B4A527A82437A4B82
:1006A0005A7270477B49D831086070470146002074
:1006B000754A506820F4404008435060704700215C
:1006C000714A20321170704A82F82010012802D03D
:1006D00004280AD104E001216B4A2032117005E0A0
:1006E0000521694A2032117000E000BF00BF704749
:1006F0006949086070476449096A0143624A1162A6
:100700007047654944390860704730B500210022C0
:10071000002400235C4D6D6805F00C0121B1042913
:1007200005D0082923D105E05C4D056022E05B4D32
:1007300005601FE0544D6D6805F47012524D6D68F0
:1007400005F48034022505EB92421CB9544D554303
:1007500005600BE04C4D6D6805F400351DB1504D42
:100760005543056002E04D4D5543056002E04B4D99
:10077000056000BF00BF444D6D6805F0F001090938
:10078000484D6B5C0568DD4045603F4D6D6805F484
:10079000E061090A434D6B5C4568DD4085603A4D78
:1007A0006D6805F46051C90A3E4D6B5C4568DD40DB
:1007B000C560354D6D6805F44041890B3A4D6B5C61
:1007C000C568B5FBF3F5056130BD29B12E4A526904
:1007D00002432D4B5A6104E02B4A526982432A4B53
:1007E0005A61704729B1284A92690243264B9A619F
:1007F00004E0254A92698243234B9A61704729B1EC
:10080000214AD2690243204BDA6104E01E4AD269D0
:1008100082431D4BDA61704729B11B4AD2680243FB
:10082000194BDA6004E0184AD2688243164BDA604A
:10083000704729B1144A12690243134B1A6104E04C
:10084000114A12698243104B1A61704712494039AC
:10085000086070470F49C86470470B49C8717047FA
:100860000948406A40F08070074948627047014675
:100870000020054A92680A400AB1012000E00020E9
:100880007047014988727047001002400000FFF86D
:10089000FFFFF6FE000042428004424200127A004E
:1008A00000093D000000002010000020014600204B
:1008B000FD4A106800F03800084310607047FA499C
:1008C000096821F00801F84A1160114609680143DE
:1008D00011607047F449096821F01001F24A116073
:1008E00011460968014311607047F048EE494860BD
:1008F000EF4848607047EC48006940F08000EA49E2
:10090000086170470420E849C96801F0010109B194
:1009100001200EE0E449C96801F0040109B1022098
:1009200007E0E149C96801F0100109B1032000E0C6
:100930000420704708B500200090FF20009002E0DE
:100940000098401E009000980028F9D108BD70B5AD
:1009500004460425FFF7D6FF054605E0FFF7EAFF4A
:10096000FFF7D0FF0546641E012D01D1002CF5D103
:1009700004B90525284670BD70B50546042440F627
:10098000FF70FFF7E4FF0446042C19D1C648006944
:1009900040F00200C449086108464561006940F022
:1009A0004000086140F6FF70FFF7D1FF0446052CB8
:1009B00006D0BD48006941F6FD710840BA4908619A
:1009C000204670BD10B5042440F6FF70FFF7BFFF4E
:1009D0000446042C18D1B448006940F00400B24920
:1009E00008610846006940F04000086140F6FF7069
:1009F000FFF7ADFF0446052C06D0AB48006941F671
:100A0000FB710840A8490861204610BD10B50424B8
:100A100040F6FF70FFF79BFF0446042C3BD1A34830
:100A2000A1498860A24888600846006940F020001B
:100A300008610846006940F04000086140F6FF7018
:100A4000FFF785FF0446042C1CD19748006941F646
:100A5000DF710840944908610846006940F01000C1
:100A60000861A520934908800F20FFF770FF044616
:100A7000052C10D08C48006941F6EF7108408A4976
:100A8000086108E0052C06D08748006941F6EF713F
:100A9000084085490861204610BDF8B506460D4658
:100AA0000424002000900F20FFF751FF0446042C7F
:100AB00028D17D48006940F001007B4908613580FC
:100AC0000F20FFF744FF0446042C12D1B01C009005
:100AD000280C009908800F20FFF739FF0446052CE9
:100AE00010D07148006941F6FE7108406E490861F6
:100AF00008E0052C06D06C48006941F6FE710840FC
:100B0000694908612046F8BD70B505460E460424C3
:100B10000F20FFF71CFF0446042C13D16248006924
:100B200040F00100604908612E800F20FFF70FFFA1
:100B30000446052C06D05C48006941F6FE71084069
:100B400059490861204670BD70B505460E4604241B
:100B50000F20FFF7FCFE0446042C17D153485249DE
:100B60008860534888600846006940F010000861BA
:100B70002E800F20FFF7EBFE0446052C06D04A48D6
:100B8000006941F6EF71084047490861204670BD91
:100B90002DE9F04704464FF6FF763746B046B1469A
:100BA0000425E443E6B2C4F30727C4F307484FEA39
:100BB00014690F20FFF7CBFE0546042D40D13B48BA
:100BC000394988603A4888600846006940F010005A
:100BD0000861FF2E06D03748083006800F20FFF747
:100BE000B6FE0546042D08D1FF2F06D031480A3045
:100BF00007800F20FFF7ABFE0546042D0AD1B8F1A0
:100C0000FF0F07D02B480C30A0F800800F20FFF713
:100C10009EFE0546042D0AD1B9F1FF0F07D02548E5
:100C20000E30A0F800900F20FFF791FE0546052D2D
:100C300006D01D48006941F6EF7108401A49086165
:100C40002846BDE8F08770B50546042440F6FF70DD
:100C5000FFF77DFE0446042C49D1144812498860F0
:100C6000134888600846006940F020000861084683
:100C7000006940F04000086140F6FF70FFF767FE32
:100C80000446042C2AD10848006941F6DF71084067
:100C9000054908610846006940F0100008615DB12F
:100CA0000020044908800AE0002002402301674533
:100CB000AB89EFCD00F8FF1FA5204549088040F61D
:100CC000FF70FFF744FE0446052C10D04148006930
:100CD00041F6EF7108403F49086108E0052C06D055
:100CE0003C48006941F6DF7108403A4908612046F6
:100CF00070BD2DE9F04105460E46174604243648DE
:100D000034498860354888600F20FFF720FE04468C
:100D1000042C19D12F48006940F010002D490861BA
:100D200047F0F800304328432949891C08800F20E8
:100D3000FFF70DFE0446052C06D02648006941F653
:100D4000EF710840234908612046BDE8F081214841
:100D5000C069800870471F48006A704700201D491D
:100D6000C96901F0020109B1012000E000207047CB
:100D700000201849096801F0200109B1012000E0B4
:100D80000020704729B1134A12690243114B1A61BE
:100D900004E0104A126982430E4B1A617047014603
:100DA0000020012908D10B4AD26902F001020AB1E0
:100DB000012008E0002006E0064AD2680A400AB195
:100DC000012000E0002070470249C8607047000021
:100DD00000F8FF1F0020024023016745AB89EFCDDB
:100DE00070470B4880470B4981F308880A48004741
:100DF000FEE7FEE7FEE7FEE7FEE7FEE7FEE7FEE7CB
:100E0000FEE7FEE705480649064A074B7047000023
:100E1000E10D00089806002031010008980000202C
:100E20009806002098020020980200207047704722
:100E300000BFFEE700BFFEE700BFFEE77047704758
:100E400070477047704770477047704770477047EA
:100E500070477047704770477047704770477047DA
:100E600070477047704770477047704770477047CA
:100E700070477047704770477047704770477047BA
:100E800070477047704770477047704770477047AA
:100E9000704770477047704770477047704770479A
:100EA000704770477047704770477047704770478A
:100EB00070477047704770477047704708B5012109
:100EC0000820FFF78FFC4FF47870ADF80000022087
:100ED0008DF8020010208DF8030069463D48FFF7A9
:100EE000D5F91020ADF8000002208DF80200042092
:100EF0008DF8030069463748FFF7C8F908BD10B5FB
:100F0000FFF702FB4FF48030FFF71EFBFFF75BFBA0
:100F10003149087008460078012805D14FF4E011E6
:100F20000004FFF779FB0DE00120FFF772FB00BF23
:100F30002120FFF72CFB0028FAD04FF4601100208D
:100F4000FFF76AFB1020FFF7C5FC0220FFF7AEFC9D
:100F50000020FFF77EFB0020FFF78DFB4FF4806041
:100F6000FFF780FB0120FFF763FB00BF3920FFF78D
:100F70000EFB0028FAD00220FFF75DFB00BFFFF751
:100F800063FB0828FBD1012144F20900FFF72AFC8A
:100F900010BD08B5FFF7B3FFFFF790FF00F003FAAD
:100FA0004FF4967000F03FF8FF2000900021684653
:100FB00000F00DFA0021684600F009FA0121074807
:100FC00000F005FA0121054800F001FA00BFFEE734
:100FD00070470000000C0140140000202E1600088D
:100FE00070B5044600251BE04FF480711548FFF7EB
:100FF000FCF904F0800028B14FF400711148FFF7AC
:10100000F2F904E04FF400710E48FFF7EEF96006C4
:10101000040E4FF480710B48FFF7E5F9681CC5B268
:10102000082DE1DB70BD0022002100BF06E0002298
:1010300000E0521CB2F5205FFBD3491C8142F6D37D
:1010400070470000000C014010B5002400BF0AE00A
:101050001021FE48FFF7BAF908B9012010BD0A2097
:10106000FFF7E1FF641CB4F5C87FF1D30020F5E77A
:1010700010B504468021F548FFF7B7F94021F34841
:10108000FFF7B3F92046FFF7ABFF8021EF48FFF7EA
:10109000AAF910BD70B505460C46FFF7D5FF8021B3
:1010A000EA48FFF7A2F94021E848FFF79EF92846F1
:1010B000FFF796FF4021E548FFF795F92046FFF737
:1010C0008FFF8021E148FFF78EF970BD2DE9F041D7
:1010D00004460E46002725468021DC48FFF785F9A7
:1010E0004021DA48FFF781F92878FFF779FF6D1C76
:1010F0004021D648FFF777F900BF05E02878FFF7D1
:101100006FFF6D1C781CC7B2701EB842F6DC8021E0
:10111000CE48FFF768F9BDE8F0812DE9F0410446BB
:101120000E4615460027B846E11704EB5171C91069
:10113000A4EBC10151B12046E11704EB5171C91074
:10114000A4EBC101C1F108012144CCB22046E11752
:1011500004EB5171C1F3C704FFF776FF8021BB4850
:10116000FFF743F94021B948FFF73FF92420FFF783
:1011700037FF4021B548FFF736F900270BE04FF065
:10118000000805E02878FFF72BFF6D1C08F1010827
:10119000A045F7DB7F1CB742F1D38021AB48FFF7B6
:1011A00022F9BDE8F0812DE9F04104460D461646CE
:1011B0000027B846E11704EB5171C910A4EBC10137
:1011C00051B12046E11704EB5171C910A4EBC101E4
:1011D000C1F108012144CCB22046E11704EB517162
:1011E000C1F3C704FFF730FF80219848FFF7FDF8EF
:1011F00040219648FFF7F9F82420FFF7F1FE40213F
:101200009248FFF7F0F800270AE04FF0000804E0EA
:101210003046FFF7E5FE08F10108A045F8DB7F1C2A
:10122000AF42F2D380218948FFF7DDF8BDE8F081B5
:1012300010B5C0212220FFF72DFF2020FFF718FF57
:1012400010BD2DE9FE4304460D4617461E46DDE956
:101250000A8944208DF808008DF809408DF80A505D
:1012600045208DF800008DF801708DF802608DF832
:1012700003808DF80490032102A8FFF727FF0521C2
:101280006846FFF723FFBDE8FE837CB506460C46A3
:1012900015464E208DF804008DF805604F208DF81E
:1012A00000008DF801408DF80250022101A8FFF7DF
:1012B0000DFF03216846FFF709FF7CBD2DE9FC47C0
:1012C00006460F4614461D46DDE90A892B4622468E
:1012D00039463046CDE90089FFF7B3FF2A4621465B
:1012E0003046FFF7D2FFBDE8FC871CB50421584803
:1012F000FFF7ECFE04215748FFF7E8FE02215648AD
:10130000FFF7E4FE02215548FFF7E0FE02215448B2
:10131000FFF7DCFE02215348FFF7D8FE00200090C3
:101320000346C72218210190FFF78BFF0022C72137
:101330001046FFF7AAFF1CBD10B54FF400614348EB
:10134000FFF753F820214148FFF74FF86420FFF7DB
:101350006AFE20213D48FFF746F86420FFF763FE50
:10136000FFF7C3FF10BD10B5C7212220FFF792FE83
:101370002020FFF77DFEFF20FFF77AFE10BD10B59D
:1013800004212220FFF786FE2020FFF771FEFF20B8
:10139000FFF76EFE10BD70B504460D462946204687
:1013A000FFF794FE70BD10B5FFF7C6FF1F212E4852
:1013B000FFF7F1FFFFF73CFF10BD10B5FFF7BCFFD3
:1013C0001F212A48FFF7E7FFFFF732FF10BD70B576
:1013D00004460D460022C7211046FFF756FF2DB9DF
:1013E000FF22C8210846FFF7DEFE04E02246C8219E
:1013F0000846FFF792FEFFF7B6FF70BD2DE9FC5FD0
:1014000004460D4616461F46DDE90C89B9F1000F6A
:1014100052D1C6F30720F1B2AA46EB1705EB53737E
:10142000CDE90010C3F3C701A346E31704EB5373E0
:10143000C3F3C700FAB2C7F30723FFF73FFF98F8DB
:101440000020BB1B591C2B1BD8B211E0000C014023
:101450001500002019000020250000202900002090
:101460002B0000202F000020D5290008B6290008F5
:10147000FFF799FEFFF783FFC820FFF7D4FDC6F3FF
:101480000720F1B2EB1705EB5373CDE90010C3F35E
:10149000C701E31704EB5373C3F3C700FAB2C7F3F2
:1014A0000723FFF70BFF98F80020BB1B591C2B1BD1
:1014B000D8B2FFF778FE7FE0B9F1010F3ED1C6F355
:1014C0000720F1B2AA46EB1705EB5373CDE90010E4
:1014D000C3F3C701A346E31704EB5373C3F3C70079
:1014E000FAB2C7F30723FFF7E9FEBA1B511C2A1B08
:1014F000D0B24246FFF711FEFFF741FF4FF496705E
:10150000FFF791FDC6F30720F1B2EB1705EB53731C
:10151000CDE90010C3F3C701E31704EB5373C3F322
:10152000C700FAB2C7F30723FFF7C8FEBA1B511C66
:101530002A1BD0B24246FFF7F0FD3DE0C6F307207C
:10154000F1B2AA46EB1705EB5373CDE90010C3F3D4
:10155000C701A346E31704EB5373C3F3C700FAB202
:10156000C7F30723FFF7AAFEBA1B511C2A1BD0B2F0
:101570004246FFF7D2FDFFF702FF4FF49670FFF7E8
:1015800052FDC6F30720F1B2EB1705EB5373CDE91B
:101590000010C3F3C701E31704EB5373C3F3C70091
:1015A000FAB2C7F30723FFF789FEBA1B511C2A1BA7
:1015B000D0B24246FFF7B1FDBDE8FC9F70477047CF
:1015C0007047754600F028F8AE4605006946534658
:1015D00020F00700854618B020B5FFF713FCBDE8E2
:1015E00020404FF000064FF000074FF000084FF08A
:1015F000000B21F00701AC46ACE8C009ACE8C0091B
:10160000ACE8C009ACE8C0098D4670470446AFF3AA
:1016100000802046FEF7D3FD0048704734000020CC
:1016200001491820ABBEFEE7260002007047FFFF0D
:10163000FFFFFFFFFFFFFFFFFFFFFFFFFFFFFFFFBA
:10164000FFFFFFFFFFFFFFFFFFFFFFFFFFFFFFFFAA
:10165000FFFFFFFFFFFFFFFFFFFFFFFFFFFFFFFF9A
:10166000FFFFFFFFFFFFFFFFFFFFFFFFFFFFFFFF8A
:10167000FFFFFFFFFFFFFFFFFFFFFFFFFFFFFFFF7A
:10168000FFFFFFFFFFFFFFFFFFFFFFFFFFFFFFFF6A
:10169000FFFFFFFFFFFFFFFFFFFFFFFFFFFFFFFF5A
:1016A000FFFFFFFFFFFFFFFFFFFFFFFFFFFFFFFF4A
:1016B000FFF9FFFFFFFFFFFFFFFFFFFFFFFFFFFF40
:1016C000FFFFFFFFFFFFFFFFFFFFF9FFFFFFFFFF30
:1016D000FFFFFFFFFFFFFFFFFFFFFFFFFFFFFFFF1A
:1016E000FFFFFFF9FFFFFFFFFFFFFFFFFFFFFFFF10
:1016F000FFFFFFFFFFFFFFFFFFFFFFFFF9FFFFFF00
:10170000BFFFFFFFBFFFFFFFFFFFFFFFFC01FFFF6A
:10171000C000000003F9F803FC07F803FC07FFFF13
:10172000FFFFFFFFFFFC01FFFF0000000000FFF8CC
:1017300003F807F803F807FFFFFFFFFFFFFFFDCFE8
:10174000FFFE00000000007FFBBFF9F3FBBFF9F3D1
:10175000FFFFFFFFFFFFFFFDCFFFFE0000000000C7
:1017600039FB9FFBF3FB9FFBF3FFFFFFFFFFFFFF37
:10177000FCDFFFFC00000F000039F90FFBF3F90F4D
:10178000FBF3FFFFFFFFFFFFFFFC1FFFFCF0001953
:10179000800039F843F9F3F843FBF3FFFFFFFFFF45
:1017A000FFFFFE3FFFFD9FFFF0800039FCF3F8478D
:1017B000FCF3F9F3FFFFFFFFFFFFFFFFFFFFFD0F4C
:1017C000FFF1800039FFFBFC07FFFBFFFFFE00007D
:1017D000000007FFFFA1FFFD8E001B80003FFF8F71
:1017E000FF1FFF8FFF87F80000000001FFFF69FF68
:1017F000FDDF000F00003FFF03FFFFFF03FF03F0CB
:101800000000000000FFFF69FFFCF1C00400003988
:10181000FE53FE007E53FE73E00000000000FFFF59
:1018200003FFFC007004000039FE5BFE007E5BFEDF
:101830007BE3FFFFFFFFF8FFFF81FFFC00380400A0
:101840000039FE5BFF73FE5BFE73E3FFFFFFFFF8F3
:10185000FFFFFFFFFC000E04000039FF13FE7BFFBB
:1018600013FF03E3FFFFFFFFF8FFFFFFFFFC000391
:1018700084000039FFDFFE73FFDFFF87E3FFFFFF18
:10188000FFF8FFFF007FFC0001C400003FFFFFFEE8
:1018900003FE7FFFFFE3F9F9FBF3F8FFFF007FFC96
:1018A0000000C400003FFF1BFF07FC03FE03E3F141
:1018B000F1F1F1F8FFFF3BFFFC000784000039FE67
:1018C0001BFFFFF003FE03E3F1F1F1F1F8FFFF79F5
:1018D000FFFC003E04000039FE4BFF87F27FFF3F14
:1018E000E3F1F1F1F1F8FFFF33FFFC00F004000039
:1018F00039FE43FF03F27FFE7FE3F1F1F1F1F8FFE0
:10190000FF03FFFC07C0040007B9FFE7FE53FFFF1A
:10191000FE7FE3F1F1F1F1F8FFFFCFFFFC0E0004D1
:10192000000FF9FFFFFE5BFE03FE03E3F1F1F1F1AF
:10193000F8FFFFFFFFFC0FFFFFFFF8FFFF07FE1B95
:10194000FE03FF03E3F1F1F1F1F8FFFF83FFFC0772
:10195000FFFFFFF8FFFF03FF13FF7FFF7FE3F1F1BE
:10196000F1F1F8FFFF03FFFC00000C000CFFFE7319
:10197000FFFFFE7FFE7FE3F1F1F1F1F8FFFF6BFF68
:10198000FC00000C000FB9FE7BFFFFFFFFFE03E32E
:10199000F1F1F1F1F8FFFF6BFFFC00000C000039E2
:1019A000FE73FE03FF87FF03E3F1F1F1F1F8FFFFA0
:1019B0000BFFFC00000C000039FF07FE03FF03FFD4
:1019C000FFE3F1F1F1F1F8FFFF8FFFFC00000C00E5
:1019D0000039FF8FFE7FFE53FFFFE3F1F1F1F1F8D5
:1019E000FFFFFFFFFC00000C00003FFFFFFE7FFE3B
:1019F0005BFE03E3F9F1F1F1F8FFFF03FFFC3000B8
:101A00000C00033FF003FFF7FE1BFE03E3FFF1F1C1
:101A1000F1F8FFFF03FFFCF8000C000FBFF003FF1D
:101A200043FF13FF7FE3FFF1F1F1F8FFFF3FFFFCFE
:101A30008C000C0008F9FFFFFE53FFFFFE7FE3FF61
:101A4000F1F1F1F8FFFF7FFFFD8FFFFFFFF8F9FFD6
:101A5000FFFE5BFF33FE03E3FFF1F1F1F8FFFFFF51
:101A6000FFFD8C000C0008F9FE07FE57FF1BFF036B
:101A7000E007F1F1F1F8FFFFDFFFFCF8000C000FC9
:101A8000B9FE03FF03FE5BFF7FE001F1F1F1F8FF18
:101A9000FFDFFFFC70001E00073FFFF3FFFFFE4368
:101AA000FE7FE001F9F1F1F8FFFFDFFFFC000033FA
:101AB0002D003FFFF3FFFFFE43FE03F1F1FFFFFFA9
:101AC000F8FFFFDFFFFC0000212D003FFE03FE7F3B
:101AD000FFFFFF03F071FFFFFFF8FFFFFFFFFC00B8
:101AE00000212D0039FE03FC03FFFFFFFFF831FF4B
:101AF000FFFFF8FFF803FFFE0000332D0039FFFF62
:101B0000F803F003FFFFFC11FFFFFFF8FFF803FFEE
:101B1000FE00CC1E2D0079FE7FFE7BF003FE07FE4B
:101B200001FFFFFFF0FFFFFFFFFF00CC042D00F9D6
:101B3000FC0FFFFFFF7FFE03FF0000000000FFFF20
:101B4000FFFFFFC0CC042D03F9FC03FA03FE7FFF67
:101B5000FBFFC000000001FFF903FFFFFFFFFFFFD5
:101B6000FFFFFE73F203FE03FFFBFFE00000000334
:101B7000FFFB03FFFFFFFFFFFFFFFFFE7BFFFFFFFA
:101B800003FE03FFFFFFFFFFFFFFFFFFFFFFFFFF5E
:101B9000FFFFFFF9FFFFFFFFFFFFFE03FFFFFFFF58
:101BA000FFFFFFFFFFFFFFFFFFFFFFFFF9F203FE55
:101BB00003FFFFFFFFFFFFFFFFFFFFFFF803FFFF34
:101BC000FFFFFFFFFFF9F203FE03FFFFFFFFFFFF31
:101BD000FFFFFFFFFFFFC3FFFFFFFFFFFFFFF9FF57
:101BE000FFFF7FFFFFFE03FFFFFFFFFFFFFFFF8FF2
:101BF000FFFFFFFFFFFFFFF9FFDFFE7FFFFFFE0399
:101C0000FFFFFFFFFFFFFFFF27FFFFFFFFFFFFFFBC
:101C1000FFFF07FE3FFFFFFF7FFFFFFFFFFFFFFF0D
:101C2000FE73FFFFFFFFFFFFFFFFFE23FF03F8032D
:101C3000FE7FFFFFFFFFFFFFFFFEFBFFFFFFFFFF3A
:101C4000FFFFF9FE73FFFFF9FFFE3FFFFFFFFFFFFE
:101C5000FFFFFFDFFFFFFFFFFFFFFFF9FE7BFFFF3F
:101C6000F83FFF03FFFFFFFFFFFFFFFF07FFFFFF3F
:101C7000FFFFFFFFF9FE73FF067E0FFF83FFFFFFED
:101C8000FFFFFFFFFE53FFFFFFFFFFFFFFF9FF070F
:101C9000FE027FC3FFFFFFFFFFFFFFFFFFFE5BFFB3
:101CA000FFFFFFFFFFFFF9FF8FFE737FC3F203FF0C
:101CB000FFFFFFFFFFFFFE5BFFFFFFFFFFFFFFFFD9
:101CC000FFFFFE7A7E0FF203FFFFFFFFFFFFFFFF24
:101CD00013FFFFC0007FFFFFFFFE03FF74787FFF4D
:101CE000FFFE01FFFFFFFFFFFF9FFFFFC0007FFF21
:101CF000FFF9FE03FE00F803FFFFFEC9FFFFFFFF31
:101D0000FFFFFFFFFFC0007FFFFFF9FF7FFE01F82D
:101D100003FF07FEC9FFFFFFFFFFFFFFFFFFC7FF36
:101D2000FFFFFFF9FE7FFFFFFFFFFF03FEC9FFFF7D
:101D3000FFFFFFFFFFFFFFC0FFFFFFFFF9FE3FFFB9
:101D4000FFFFFFFE73FFFFFFFFFFFFFFFFFFFFFF30
:101D5000C01FFFFFFFF9FE03FFFFFF87FE7BFF8130
:101D6000FFFFFFFFFFFFFFFFFFF803FFFFFFFFFF86
:101D700083FFFFFF03FE73FF81FFFFFFFFFFFFFFF6
:101D8000FFFFFF00FFFFFFFFFFFFFFFFFE73FFFFEF
:101D9000FFDFFFFFFFFFFFFFFFFFFFFFE07FFFFF12
:101DA000F9FFFFF8FFFE7BFFE3FFBFFFFFFFFFFF31
:101DB000FFFFFFFFFFF87FF800F9FFFFF81FFE733A
:101DC000FE43FF81FFFFFFFFFFFFFFFFFFFFC07F1D
:101DD000F800F9FFFFFF03FF03FE5BFFC1FFFFFFFA
:101DE000FFFFFFFFFFFFFE01FFFFCFF9FFFFFFE354
:101DF000FF87FE53FFFFFFFFFFFFFFFFFFFFFFF027
:101E00000FFFFFCFF9FE73FFC3FFFFFE03FFC3FF0A
:101E1000FFFFFFFFFFFFFFFFC07FFFFFCFFFFE734E
:101E2000FC0FFF87FF03FF81FFFFFF7C1FFFFFFF0A
:101E3000FFC3FFFFFFCFFFFFFFF87FFF03FFFFFFA1
:101E4000A5FFFFFF300FFFFFFFFFC0007FFFCFF9AF
:101E5000FFF3F9FFFE73FE7FFF85FFFFFF0003FF27
:101E6000FFFFFFC0007FF800F9F9E3FFFFFE7BFCF6
:101E700007FFC1FFFFFF0000FFFFFFFFC0007FF86B
:101E800000F9FBC3FF07FF73FC03FFFFFFFFFE002A
:101E9000007FFFFFFFFFFFFFF800F9FB93FF03F058
:101EA00003FE7BFF81FFFFFE00003FFFFFFFFFFF00
:101EB000FFFFFFF9F913FE73F003FE7BFF81FFFFC5
:101EC000FE00301FFFFFFFFFFFFFFFFFFFF833FEA5
:101ED0007BFFFFFFFFFF9FFFFFEE00F01FFFFFFFF5
:101EE000FFFFFFFFC1FFFEFFFE73FFCFF203FF9F67
:101EF000FFFF8C01F01FFFFFFFC0007FFF80FFFF8F
:101F0000FFFF07FF07FA03FFE7FFFF0603F01FFFCE
:101F1000FFFFC0007FFF34F9FC07FF8FFE53FFFF78
:101F2000FFC17FFC07C1F01FFFFFFFC0007FFF362E
:101F300079F803FFFFFE5BFF8FFF997FF003FDF051
:101F40001FFFFFFFFF1FFFFF3679FBF3F003FE5B70
:101F5000FF03FFBD7FE001FFF01FFFFFFFFF1FFF3B
:101F6000FF06F9FBFBF003FF1BFE73FF807FC00140
:101F7000FFF01FFFFFFFFF1FFFFF84FFF8C3FFFFFE
:101F8000FF9FFE7BFF80FFC007FFF01FFFFFFFFFEB
:101F90001FFFFFE7FFF807FE7FFFFFFE73FFFFFF56
:101FA000C00FFFF01FFFFFFFFF1FFFFFFFFFFF3FFF
:101FB000FC0FFE73FF03FF9F7FC03FF7F01FFFFF83
:101FC000FFFF1FFFF000F9FFFFFC03FE73FF07FF99
:101FD000877FC0FFC77FFFFFFFFFFF1FFFF000F9F4
:101FE000FC07FE73FFFFFFFFFFF07FC1FF00FFFF55
:101FF000FFFFFFC0007FF000F9F843FE7BFF1FFFEB
:10200000FFFFF1FFC3FF01FE7FFFFFFFC0007FFF67
:10201000FFF9FBFBFFFFFC07FE03FF87FFC1FF2368
:10202000FC3FFFFFFFC0007FFFFFFFFBF3FF43F814
:10203000C7FE03FFBFFFC073E7F83FFFFFFFFFFFCF
:10204000FFF000FFF803FE43F9F3FF7FFFFFFFC03F
:1020500013EFF01FFFFFFFFFFFFFF000FFFC07FE85
:102060005BFBF3FE7FFFFFFFC003FFE00FFFFFFFFF
:10207000FFFFFFFFFFF9FFFFFE57FBB3FE03FFFF6C
:10208000FFC003FFC007FFFFFFFFFFFFFFFFF9FFD8
:10209000FBFF03FBB3FF03FFBBFFC001FFC003FF58
:1020A000FFFFFFCFFFFFC1F9F9E3FF83F983FFFFD4
:1020B000FE19FFE001FFF01FFFFFFFFFCFFFFF80D2
:1020C000F9F847FFFFFF87FFFFFE4DFFF801DFF044
:1020D0001FFFFFFFFFCFFFFF1CF9FE0FFF87FFFF72
:1020E000FFFFFEC9FFFE0187F01FFFFFFFFFCFFFCD
:1020F000FF3E7FFF1FFF027003FFFFFEE1FFFF01B6
:1021000001F01FFFFFFFFFCFFFFF3E7FFC07FE73C5
:102110007003FFFFFFF3FFFE0F00F01FFFFFFFFF45
:10212000CFFFFF3CF9F8E3FE7A7FFFFFFFFFFFFFE1
:10213000FEFE00301FFFFFFFFFFFFFFF80F9FBF3F4
:10214000FF767FFFF803FF91FFFFFE00001FFFFFF8
:10215000FFFFFFFFFF81F9FFFFFE00FF07F9FFFF11
:10216000ADFFFFFE00003FFFFFFFFFFFFFFFE3F9B2
:10217000FFF3FE01FF03F83FFFADFFFFFF8000FF0D
:10218000FFFFFFC0007FFFFFF9FBE3FFFFFE7BFEC9
:102190000FFF81FFFFFFE003FFFFFFFFC0007FFF96
:1021A000FFFFFBC3FF8FFE7BFFC3FFE1FFFFFFF0DD
:1021B00007FFFFFFFFC0007FFFFFFFFB93FF07FE4E
:1021C00073FFC3FFBFFFFFFFFC1FFFFFFFFFC00048
:1021D0007FFFFFF9F833FE53FF07FE0FFF87FFFF76
:1021E000FFFFFFFFFFFFFFC71E7FFFFFF9F873FE32
:1021F0005BFF8FF87FFFE1FFFFFFFFFFFFFFFFFFA8
:10220000C71E7FFBFFF9FFFFFE5BFFFFF803FFF92F
:10221000FFFFFFFFFFFFFFFFFFC71E7FF83FF9FF34
:10222000FFFF13F003F803FF83FFFFFFFFFFF00F33
:10223000FFFFC71E7FF803F9FC07FF9FF003FFFFB6
:10224000FF9FFFFFFFFFFFF1FFFFFFC71E7FFF00A4
:10225000FFF803FFFFFF73FFFFFFFFFFFFFFFFFF1D
:10226000F87FFFFFFFFE7FFFF0FFFBF3FE73FE7BB7
:10227000FF87FE81FFFFFFFFFFFF0FFFFFFFFFFF55
:10228000FFE0F9FBF3FE73FE73FF03FE81FFFFFF28
:10229000FFFFFF8FFFFFC7FFFFFF01F9F803FFFFFD
:1022A000FE03FE73FFFFFFFFFFFFFFFC3FFFFFC7C3
:1022B000FFFFF80FF9FC07FFFFFF07FE7BFF81FF21
:1022C000FFFFFFFFF1FFFFFFC7FFFFF8FFF9FFFF71
:1022D000FBF3FFFFFE73FF81FFFFFFFFFFF00FFF28
:1022E000FFC7FFFFF80FF9FF1FFB3BFFE3FF03FFF3
:1022F000BFFFFFFFFFFFF00FFFFFC0007FFE00FFEB
:10230000FC07FB3BFE43FF87FF9FFFFFFFFFFFFF35
:10231000FFFFFFC0007FFFE0FFF8E3F813FE5BFF65
:10232000FFFF81FFFFFFFFFFFC1FFFFFC0007FFFDC
:10233000F0F9FBFBF807FE53FF87FFFFFFFFFFFFEE
:10234000FFFC0FFFFFC0007FFE00F9FBF3FFEFFE75
:1023500003FF03FFFFFFFFFFFFFFFFCFFFFFC7FFED
:10236000FFF807F9F803FFFFFF03FE73FFC17FFFCC
:10237000FFFFFFFFEFFFFFC7FFFFF87FF9FC0FFF35
:10238000F3FFFFFE7BFF997FFFFFFFFFFC0FFFFFC7
:10239000C7FFFFFFFFF9FFFFFFF3FFFFFF73FFBD65
:1023A0007FFFFFFFFFFC0FFFFFC7FFFFFFE3FFFF04
:1023B000FFFFFFF003F003FFDA7FFFFFFFFFFFFFE8
:1023C000FFFFFFFFFFFF81FFFFFFFFFFF003F003B1
:1023D000FF80FFFFFFFFFFE00FFFFFFFFFFFFF801A
:1023E000FFFFFFF9F3FFFFFFFFFFFFFFFFFFFFFF0F
:1023F000E00FFFFFFFFFFFFF3CF9FFFFFB3BFFF19B
:10240000FFCFFFFFFFFFFFFFFFFFFFFFFFFFFFFF0C
:10241000FF3E79FFFFFB3BFFC3FF07FFFFFFFFFF0F
:10242000FFFFFDFFFFFFFFFFFFFF3E79FFFFF933D7
:10243000FF0FFE13FFFFFFFFFFFFFFF81FFFFFFF70
:10244000FFFFFF1CF9FFFFF803F87FFE5BFFFFFFB4
:10245000FFFFFFFFF00FFFFFFFFFFFFF80FFFFFF0A
:10246000FDC7F9FFFE5BFFFFFFFFFFFFFFFDEFFF73
:10247000FFFFFFFFFFC1FFFFFFFFFFFFFFFF1BFF8E
:10248000FFFFFFFFFFFFFFFFFFFFFFFFFFFFFFFF5C
:10249000FFFFF9FFF803FF9FFFFFFFFFFFFFFFE4D0
:1024A0000FFFFFC0007FFFFFF9FFFFF83FF803FFBA
:1024B000FFFFFFFFFFFFFFFFF40FFFFFC0007FFFE5
:1024C00000F9FFFFFE07FFF3FE73FFFF9CE67FFFAF
:1024D000FFFFFFFFFFC0007FFF00F9FFFFFFC3FF0B
:1024E000F3FE73FFFF9CEE7FFFFFFC03FFFFFFFE89
:1024F0007FFFCFF9FFFFFFE3FFF3FFFFFFFF9CE646
:102500007FFFFFFC03FFFFFFFE7FFF3FFFFFFFFF9B
:1025100007FFF3FEF3FFFF9CE67FFFFFFDEFFFFFEA
:10252000FFFE7FFF3FFFFFFFF83FFFFFF873FFFF56
:102530009CE67FFFFFFDEFFFFFFFFE7FFFFFFFFF3A
:10254000FFF8FFFF07F83BFFFF9CE67FFFFFFC0F54
:10255000FFFFFFFE7FFFFFF9FFFFFFFFFF03FB3BD6
:10256000FFFF9CEE7FFFFFFE1FFFFFFFFE7FF000DF
:10257000F9FFFFFFF9FE73FB93FFFFFFFFFFFFFF74
:10258000FFFFFFFFFFFFFFF000F9FFFFFFC3FE7B30
:10259000FB83FFFFFFFFFFFFFFE00FFFFFCFFE7F8B
:1025A000FFFFF9FFFFFF0FFE73FFC7FFFFFFFFFFF6
:1025B000FFFFE00FFFFFC0007FFFFFF9FFFFFC3FC1
:1025C000FF07FFFFFFFE00001FFFFFFFFFFFFFC031
:1025D000007FFFC1FFFFFFF9FFFF8FF803FFFE0041
:1025E000001FFFFFFF9FFFFFC0007FFF80FFFFFF77
:1025F000FFFFFFFFF803F80600001C07FFFD0FFFB9
:10260000FFC0007FFF1C79FFFFFFFFFF87FB9FF8E4
:102610000600001C07FFFD6FFFFFCFFE7FFF3E7926
:10262000FFFFF833FF03FB9FFFFE00001FFFFFFCCF
:102630005FFFFFFFFFFFFF3EF9FFFFF83BFE73F96F
:102640009FFFFE00001FFFFFFE0FFFFFCFFFFFFFFA
:102650009CF9FFFFFB33FE7BF83FF80600001C07E8
:10266000FFFFFFFFFFC1FFFFF000F9FFFFFB03FECD
:102670007BFC3FF80600001C07FFFDFFFFFFC03F8B
:10268000FFF000FFFFFFFB87FFFFFFFFFFFE0000E3
:102690001FFFFFF81FFFFFE007FFFFFFFFFFFFFF28
:1026A000FFFFE7FBF3FFFE00001FFFFFF00FFFFF40
:1026B000FC00FFFFFFF9FFFFFFFFFF43F803FFFEF2
:1026C00000001FFFFFFDEFFFFFFF807FFFFFF9FF0F
:1026D000FFFFF3FE5BF803F80600001C07FFFFFF97
:1026E000FFFFFFF07FF804F9FFFFFFF3FE5BFFFF42
:1026F000F80600001C07FFFDFFFFFFFFF07FF80456
:1027000079FFFFFFFFFE03FFFFFFFE00001FFFFF3B
:10271000F00FFFFFFF807FFFFFF9FFFFFE0FFF03BA
:10272000FFFFFFFE00001FFFFFE5FFFFFFFC00FFB4
:10273000FFFFFFFFFFF807FFFFFFFFFFFE00001F87
:10274000FFFFE5FFFFFFE007FFFFFFFFFFFFF9F3DC
:10275000FFFFFFFFF80600001C07FFFE1FFFFFC082
:102760003FFFF804F9FFFFFBFBF003FFFFF8060053
:10277000001C07FFFC1FFFFFC1FFFFF80479FFFFEC
:10278000F9F3F003FFFFFFFE00001FFFFFFDCFFF87
:10279000FFCFFFFFF804F9FFFFF807FFFFFFFFFF80
:1027A000FE00001FFFFFFDEFFFFFFFFFFFFFFFF930
:1027B000FFFFFC0FFFFFFFFFFFFFFFFFFFFFFFFC1F
:1027C0000FFFFFFFFFFFFFFFF9FFFFFFFFFFFFFF0F
:1027D000FFFFFFFFFFFFFFFFFE1FFFFFC0007FFFA8
:1027E000FEFFFFFFF9FFFFFFFFFFFFFF9CE67FFFFC
:1027F000FFFFFFFFFFC0007FF8047FFFFFF83FFFF0
:10280000FFFFFFFFFF9CE67FFFFFFC0FFFFFC00005
:102810007FF804F9FFFFFE07FFFFFFFFFFFF9CE6C5
:102820007FFFFFFC0FFFFFC0007FFFFFF9FFFFFFEF
:10283000C3FFFFFFFFFFFF9CE67FFFFFFEFFFFFFE1
:10284000C71E7FFFFFF9FFFFFFC3FFFFFFFFFFFF73
:102850009CE67FFFFFFDFFFFFFC71E7FFFFFF9FF25
:10286000FFFE07FFFFFFFFFFFF9CE67FFFFFFFFF6D
:10287000FFFFC71E7FFFFFF9FFFFF83FFFFFFFFFCE
:10288000FFFF9CEE7FFFFFFC0FFFFFC71E7FFFFFD8
:10289000FFFFFFF9FFFFFFFFFFFFFF9CEE7FFFFF42
:1028A000FC0FFFFFC71E7FFFFFFFFFFFFFFFFFFFC4
:1028B000FFFFFFFFFFFFFFFFFFFDFFFFFFFFFE7FAB
:1028C000FFFFFFFFFFFFFFFFFFFFFFFFFFFFFFFF18
:1028D000FFFFFCFFFFFFFFFFFFFFFFF9FFFFFFFF11
:1028E000FFFFFFFFFFFFFFFFFFFFFFFC0FFFFFFFEB
:1028F000FFFFFFFFF9FFFFFFFFFFFFFFFFFFFFFFEE
:10290000FFFFFFFFFEFFFFFFFFFFFFFFFFF9FFFFDE
:10291000FFFFFFFFFFFFFFFFFFFFFFFFFFFDFFFFC9
:10292000FFFFFFFFFFFFF9FFFFFFFFFFFFFFFFFFBD
:10293000FFFFFFFFFFFFFC0FFFFFFFFFFFFFFFFF9A
:10294000FFFFFFFFFFFFFFFFFFFFFFFFFFFFFFFC9A
:102950000FFFFFFFFFFFFFFFFFFFFFFFFFFFFFFF77
:10296000FFFFFFFFFFFFFFFFFFFFFFFFFFFFFFFF77
:10297000FFFFFFFFFFFFFFFFFFFFFFFFFFFFFFFF67
:10298000FFFFFFFFFFFFFFFFFFFFFFFFFFFFFFFF57
:10299000FFFFFFFFFFFFFFFFFFFFFFFFFFFFFFFF47
:1029A000FFFFFFFFFFFFFFFFFFFFFFFFFFFFFFFF37
:1029B000FFFFFFFFFFFF321018182818181818081B
:1029C000000000000000000000000013112263114D
:1029D00000000000003266664466AA1180081118E3
:1029E00081181188118811880000FFFFFFFF5FAF79
:1029F000FFFF2F00142A0008000000203400000010
:102A00006C010008482A0008340000206406000019
:102A10008801000800000000010203040102030411
:102A200006070809020406080001C700000CD7D6F3
:102A30009D218F22F0036604042C7FF01F3A1A3B7D
:082A4000083C33110100000005
:0400000508000131BD
:00000001FF
